:020000040800F2
:100000003841002031020008C5210008E51E000823
:10001000C12100081F060008292D0008000000006B
:100020000000000000000000000000004302000883
:10003000230600080000000047020008C72100084E
:100040004B0200084B0200084B0200084B0200085C
:100050004B0200084B0200084B0200084B0200084C
:100060004B0200084B0200084B0200084B0200083C
:100070004B0200084B0200084B0200084B0200082C
:100080004B0200084B0200084B0200084B0200081C
:100090004B0200084B0200084B0200084B0200080C
:1000A0004B0200084B0200084B0200084B020008FC
:1000B0004B0200084B0200084B0200084B020008EC
:1000C0004B0200084B0200084B0200084B020008DC
:1000D0004B020008192D00084B0200084B020008D3
:1000E0004B0200084B0200084B0200084B020008BC
:1000F0004B0200084B020008E92200084B020008EE
:100100004B0200084B0200084B0200084B0200089B
:100110004B0200084B0200084B0200084B0200088B
:100120004B0200084B0200084B0200084B0200087B
:100130004B0200084B0200084B0200084B0200086B
:100140004B0200084B0200084B0200084B0200085B
:100150004B0200084B0200084B0200084B0200084B
:100160004B0200084B0200084B0200084B0200083B
:100170004B0200084B0200084B0200080000000080
:100180004B0200084B02000800F002F800F041F8B2
:100190000AA090E8000C82448344AAF10107DA45E2
:1001A00001D100F036F8AFF2090EBAE80F0013F0F3
:1001B000010F18BFFB1A43F001031847102D000070
:1001C000302D0000103A24BF78C878C1FAD8520701
:1001D00024BF30C830C144BF04680C6070470000C1
:1001E0000023002400250026103A28BF78C1FBD840
:1001F000520728BF30C148BF0B607047642900F028
:10020000F780002070471FB502F04EFE1FBD10B5ED
:1002100010BD00F0CAF91146FFF7F5FF02F0A2FD8C
:1002200000F0E8F903B4FFF7F2FF03BC00F0F0F9C7
:100230000948804709480047FEE7FEE7FEE7FEE77A
:10024000FEE7FEE7FEE7FEE7FEE7FEE704480549B6
:10025000054A064B70470000852200088901000806
:1002600038010020384100203821002038210020AA
:1002700053EA020C00F069802DE9F04B4FF00006C4
:10028000002B1FBFB3FA83F503FA05F424FA05F631
:100290005E4012BF1643B2FA82F502FA05F4C5F1C8
:1002A00020051EBF22FA05FC44EA0C04203556EA5C
:1002B000044C4FEA144418BF641C4FF000084FF080
:1002C0000009904271EB030C39D3002919BFB1FA30
:1002D00081F701FA07F6B0FA80F700FA07F6C7F1DE
:1002E00020071EBF20FA07FC46EA0C062037B6FBA3
:1002F000F4FCA7EB0507103F07F01F0BCBF120061E
:100300000CFA0BFB2CFA06F644BFB3460026202F4E
:10031000A4BF5E464FF0000B5BEA060C08BF4FF02F
:10032000010B19EB0B09ABFB027C48EB0608C01B69
:1003300006FB02CC0BFB03CC71EB0C01C1E70B46B7
:10034000024641464846BDE8F08B13B54FF0000029
:100350004FF00001AFF30080BDE81C407047000083
:100360000FB41CB5074B06AA7B446946009005985C
:1003700000F003F90020694600F012F91CBC5DF89A
:1003800014FB0000350200002DE9F0410E46044642
:10039000002020622046E168884730B3252805D038
:1003A000D4E901219047206A401CF2E7E168204629
:1003B00000278847050018D0A5F14100192802D868
:1003C00020354FF400673246294620462760FFF764
:1003D00015FF40B1012804D0F61D26F007060836A7
:1003E000D8E7361DD6E72846DAE7206ABDE8F0816F
:1003F0002DE9F0410646002410687529314616A5FE
:1004000010D0AFF30080002802DA404213A507E0C5
:1004100031688A0701D512A502E0490704D511A564
:10042000012401E0AFF3008000210A2206F1240735
:1004300009E0B0FBF2FCB0FBF2F302FB1C00303031
:1004400078541846491C0028F3D123462A463046E2
:10045000BDE8F04100F032B8000000002D000000BF
:100460002B000000200000004FF0000200B51346F2
:1004700094469646203922BFA0E80C50A0E80C50C4
:10048000B1F12001BFF4F7AF090728BFA0E80C5075
:1004900048BF0CC05DF804EB890028BF40F8042B6E
:1004A00008BF704748BF20F8022B11F0804F18BFDB
:1004B00000F8012B70477047704770472DE9F047EF
:1004C0000D4699469246044600F1240801688806C4
:1004D00004D5E06921F01001216000E00120A8426C
:1004E00001DD471B00E00027A1697A1902EB090032
:1004F000081AA0612078C00602D42046AFF300801D
:10050000002608E0D4E901211AF806009047206A85
:10051000401C761C20624E45F4DB2078C0060AD5CC
:100520002046AFF3008006E0D4E901213020904757
:10053000206A401C2062381EA7F10107F4DC07E0A6
:10054000D4E9012118F805009047206A401C206278
:10055000281EA5F10105F3DC2046AFF300802078CA
:10056000000602D50220BDE8F0870120FBE700006D
:1005700001694A1C02610878704700B58FB0CDE967
:1005800001310021059105497944CDE90310114657
:100590006846FFF7F9FE0FB000BD0000E5FFFFFF62
:1005A0000A6802F8010B0A607047754600F02CF8E3
:1005B000AE4605006946534620F00700854618B050
:1005C00020B5FFF743FEBDE820404FF000064FF096
:1005D00000074FF000084FF0000B21F00701AC4678
:1005E000ACE8C009ACE8C009ACE8C009ACE8C00997
:1005F0008D46704710B50446AFF300802046BDE835
:100600001040FFF70FBE000000487047D8000020E0
:1006100001491820ABBEFEE726000200704700BF6C
:10062000FEE770477047014691F83500022803D075
:100630008020486501207047052081F83500086852
:10064000006820F001000A6810600020F3E7000055
:1006500070B5044600F016F906462546681C10B130
:1006600004480078054400BF00F00CF9801BA84244
:10067000FAD370BD14000020F8B502460B460025E1
:10068000002400200021DCE0012606FA01F51E68A6
:1006900006EA0504AC4273D15E68012E08D05E689C
:1006A000022E05D05E68112E02D05E68122E13D184
:1006B00090684F000326BE40B0434F00DE68BE4046
:1006C00030439060506801268E40B0431E79C6F3D7
:1006D00000168E4030435060D0684F000326BE4065
:1006E000B0434F009E68BE403043D0605E68022E2B
:1006F00002D05E68122E13D1CF0802F1200656F800
:1007000027004E07F70E0F26BE40B0434F07FF0EDF
:100710001E69BE403043CF0802F1200646F827008C
:1007200010684F000326BE40B0431E7906F0030652
:100730004F00BE40304310605E6806F08056B6F150
:10074000805F7DD100BF00260096404E366846F49B
:1007500080463E4F3E603E46366806F48046009630
:1007600000BF00BF3A4E8F0856F827008E07370F9C
:100770000F26BE40B043374EB24202D1002624E0DD
:100780005EE0354EB24201D101261EE0334EB24248
:1007900001D1022619E0324EB24201D1032614E003
:1007A000304EB24201D104260FE02F4EB24201D1A9
:1007B00005260AE02D4EB24201D1062605E02C4E58
:1007C000B24201D1072600E008268F073F0FBE4046
:1007D00030431F4E8F0846F82700264E3068A0434E
:1007E0005E6806F48036B6F5803F00D12043214E86
:1007F0003060361D3068A0435E6806F40036B6F5FA
:10080000003F00D120431B4E361D3060361D30683E
:10081000A0435E6806F48016B6F5801F00D1204321
:10082000144E08363060361D3068A0435E6806F40A
:100830000016B6F5001F00D120430E4E0C36306076
:10084000491C1029FFF420AFF8BD000044380240D5
:100850000838014000000240000402400008024045
:10086000000C024000100240001402400018024038
:10087000001C0240003C01400AB1816101E00B0410
:100880008361704701480068704700000C00002039
:100890000348006803490978084401490860704723
:1008A0000C0000201400002010B50D48006840F432
:1008B00000700B4908600846006840F480600860DA
:1008C0000846006840F480700860032000F0A2F839
:1008D000002000F007F800F02BF8002010BD000009
:1008E000003C024070B504460E4800784FF47A711F
:1008F000B1FBF0F00C490968B1FBF0F5284600F0B7
:1009000021FC08B1012070BD102C07D20022214625
:10091000501E00F041F80548046001E00120F2E7B4
:100920000020F0E714000020080000201000002044
:1009300008B500BF002000900E48006840F48040D9
:100940000C4908600846006800F48040009000BF31
:1009500000BF00BF00200090081F006840F08050DA
:10096000091F08600846006800F08050009000BF32
:1009700000BF08BD4438024001460846002809DB94
:1009800000F01F0301229A4043099B0003F1E0237A
:10099000C3F8002100BF70472DE9F05F80460D4687
:1009A0001646002702F0C2F9074639462A46334662
:1009B00001F00700C0F1070ABAF1040F02D94FF0A5
:1009C000040A01E0C0F1070AD14600F1040ABAF1B5
:1009D000070F02D24FF0000A01E0A0F1030AD4464B
:1009E0004FF0010A0AFA09FAAAF1010A0AEA020A10
:1009F0000AFA0CFA4FF0010B0BFA0CFBABF1010BEE
:100A00000BEA030B4AEA0B042146404602F096F932
:100A1000BDE8F09F00BF00F00702064B19684FF6D3
:100A2000FF031940044B0B4343EA0221014B1960B9
:100A300000BF70470CED00E00000FA0570B50446F9
:100A40000D460CB9012070BD5848006800F00F0039
:100A5000A84209D255490D700846006800F00F0001
:100A6000A84201D00120EEE7207800F00200022821
:100A70001DD1207800F00400042805D14C480068FE
:100A800040F4E0504A490860207800F00800082847
:100A900005D14748006840F4604045490860444833
:100AA000006820F0F000A168084341490860207800
:100AB00000F00100A8B36068012807D13C4808385D
:100AC0000068C0F34040B8B90120BCE76068022864
:100AD00002D06068032807D1354808380068C0F3A1
:100AE000406048B90120AEE7314808380068C0F3DB
:100AF000400008B90120A6E72D48006820F0030057
:100B0000616808432A490860FFF7BCFE064609E011
:100B1000FFF7B8FE801B41F28831884202D90320DA
:100B200091E707E02248006800F00C006168B0EB34
:100B3000810FEDD11D48006800F00F00A84209D9CF
:100B40001A490D700846006800F00F00A84201D055
:100B5000012078E7207800F00400042807D1144829
:100B6000006820F4E050E1680843114908602078EB
:100B700000F00800082808D10D48006820F4604003
:100B8000216940EAC1000A49086000F03FF80849BD
:100B90000968C1F30311074A515CC840064908605F
:100BA00006480068FFF79EFE00204CE7003C02402C
:100BB00008380240B22E0008080000201000002073
:100BC00001480068704700000800002000B5FFF7EA
:100BD000F7FF04490968C1F38221034A515CC84008
:100BE00000BD000008380240C22E000800B5FFF723
:100BF000E7FF04490968C1F34231034A515CC84028
:100C000000BD000008380240C22E00082DE9F04760
:100C1000002400250026A1462548006800F00C00AD
:100C200020B1042805D008283AD105E0DFF88490E7
:100C300039E0DFF8849036E01D48001F006800F0BE
:100C40003F041B48001F006800F4800078B11A4878
:100C50001749091F0968C1F38811A0FB01700146FB
:100C6000224600233846FFF703FB05460EE01148F5
:100C70000F49091F0968C1F38811A0FB01700146E3
:100C8000224600233846FFF7F3FA05460848001FBE
:100C90000068C0F30140401C4600B5FBF6F902E0D5
:100CA000DFF8109000BF00BF4846BDE8F0870000A5
:100CB000083802400024F400001BB700F8B50446D1
:100CC0000CB90120F8BD207800F00100002874D094
:100CD000F948006800F00C0004280DD0F6480068C0
:100CE00000F00C00082813D1F348001F006800F43E
:100CF0008000B0F5800F0BD1EF4808380068C0F3D2
:100D00004040002859D06068002856D10120D9E71A
:100D100000BF6068B0F5803F08D1E7480838006838
:100D200040F48030E449083908601EE06068B0F59E
:100D3000A02F0DD1E0480838006840F48020DE493B
:100D4000083908600846006840F4803008600CE00C
:100D5000D9480838006820F48030D749083908603D
:100D60000846006820F48020086000BF606890B1E9
:100D7000FFF788FD054606E0FFF784FD401B642869
:100D800001D903209EE7CC4808380068C0F34040F2
:100D90000028F1D011E0FFF775FD054606E0FFF7EA
:100DA00071FD401B642801D903208BE7C248083835
:100DB0000068C0F340400028F1D1207800F0020024
:100DC00002285FD1BC48006800F00C0058B1BA4856
:100DD000006800F00C0008281CD1B748001F00680C
:100DE00000F48000B0B9B44808380068C0F340008F
:100DF00020B1E068012801D0012063E7AE4808383F
:100E0000006820F0F800216940EAC100AA490839C9
:100E1000086037E0E06800B30120A8490860FFF7E8
:100E200031FD054606E0FFF72DFD401B022801D9E4
:100E3000032047E7A04808380068C0F340000028B6
:100E4000F1D09D480838006820F0F800216940EA98
:100E5000C10099490839086014E0002097490860EA
:100E6000FFF710FD054606E0FFF70CFD401B0228CA
:100E700001D9032026E7904808380068C0F34000F5
:100E80000028F1D1207800F0080008282CD16069F2
:100E9000A8B101208A490860FFF7F4FC054606E086
:100EA000FFF7F0FC401B022801D903200AE7824823
:100EB0006C300068C0F340000028F1D014E000203E
:100EC0007F490860FFF7DEFC054606E0FFF7DAFC25
:100ED000401B022801D90320F4E677486C300068F3
:100EE000C0F340000028F1D1207800F0040004286D
:100EF00070D1002770483830006800F0805090B9F9
:100F000000BF002000906C483830006840F08050EE
:100F10006949383108600846006800F08050009048
:100F200000BF00BF01276748006800F48070B0B9B7
:100F30006448006840F4807062490860FFF7A2FCD2
:100F4000054606E0FFF79EFC401B022801D903205E
:100F5000B8E65C48006800F480700028F2D000BF5A
:100F6000A068012808D154486830006840F00100AA
:100F70005149683108601DE0A06805280DD14E4830
:100F80006830006840F004004B496831086008464A
:100F9000006840F0010008600CE0474868300068D5
:100FA00020F001004449683108600846006820F0DC
:100FB0000400086000BFA068A8B1FFF763FC054605
:100FC00009E0FFF75FFC401B41F28831884202D9FB
:100FD000032077E626E0384868300068C0F3400018
:100FE0000028EED013E0FFF74DFC054608E0FFF7C0
:100FF00049FC401B41F28831884201D9032061E657
:101000002D4868300068C0F340000028EFD1012F60
:1010100007D129483830006820F0805026493831FF
:10102000086000BFA069002845D02348006800F090
:101030000C0008285DD0A069022845D100201F4976
:101040000866FFF71FFC054606E0FFF71BFC401B88
:10105000022801D9032035E6174808380068C0F394
:1010600040600028F1D1D4E907010843616A40EAF1
:1010700081110122A06AC2EB500041EA00412C20FC
:10108000005D41EA00600C49091F086001200B491E
:101090000866FFF7F7FB054606E0FFF7F3FB401B8A
:1010A000022801D903200DE6034808380068C0F380
:1010B00040600028F1D03FE008380240000047427D
:1010C000800E47420070004000201C490866FFF770
:1010D000D9FB054606E0FFF7D5FB401B022801D9E6
:1010E0000320EFE516480068C0F340600028F2D105
:1010F00022E0A069012800D1E4E51148001D06683E
:1011000006F48001E069814214D106F03F01206AB3
:1011100081420FD147F6C0703040616A884209D1E0
:1011200006F44031A06A814204D106F07061E06AA1
:10113000814201D00120C5E50020C3E500004742FF
:101140000038024070B504462546681EB0F1807F25
:1011500001D301200FE0681E4FF0E02148610F210C
:101160004FF0FF3001F0EAFD00204FF0E0218861F0
:1011700007200861002070BD7047704710B5034616
:10118000002200BF93F83C00012801D1022010BDCD
:10119000012083F83C0000BF22F0FF00CC6840EA49
:1011A000040222F440708C6840EA040222F4806059
:1011B0004C6840EA040222F400600C6840EA040231
:1011C00022F480500C6940EA040222F400504C6979
:1011D00040EA040222F48040CC6940EA0402186824
:1011E000426400BF002083F83C0000BF00BFCEE790
:1011F00030B502460B4600BF92F83C00012801D1F1
:10120000022030BD012082F83C0000BF022082F89D
:101210003D00106844681068816824F07004186804
:10122000044310684460184D1068A8421BD0106831
:10123000B0F1804F17D0154D1068A84213D0144D4F
:101240001068A8420FD0134D1068A8420BD0124D61
:101250001068A84207D0114D1068A84203D0104D65
:101260001068A84205D121F0800158680143106838
:101270008160012082F83D0000BF002082F83C0020
:1012800000BF00BFBDE700000000014000040040B7
:1012900000080040000C00400004014000400140F4
:1012A0000018004010B504460CB9012010BD94F898
:1012B0003D0028B9002084F83C00204600F00CF8DE
:1012C000022084F83D00211D206801F015F801205E
:1012D00084F83D000020E9E710B586B004461421EB
:1012E00001A8FFF7C1F83B49206888420FD100BF31
:1012F000002000903848006840F00100364908603E
:101300000846006800F00100009000BF60E033492B
:10131000206888425CD100BF002000902E48006801
:1013200040F002002C4908600846006800F0020006
:10133000009000BF00BF00BF002000902648143876
:10134000006840F480702449143908600846006839
:1013500000F48070009000BF00BF00BF002000902C
:101360000846006840F0040008600846006800F085
:101370000400009000BF00BF802001900220029076
:10138000039004900320059001A91548FFF774F914
:1013900040200190022002900390049003200590C9
:1013A00001A91048FFF768F9002202212E20FFF75B
:1013B000F3FA2E20FFF7E0FA00210B4800F08BF93A
:1013C00009480068C06840F0010007490968C86022
:1013D00006B010BD00000140443802400004014046
:1013E0000020024000080240580000200146022070
:1013F00081F83D000868806800F00702062A05D0E1
:101400000868006840F001000B681860012081F84E
:101410003D00002070472DE9F04104460D4600BF15
:1014200094F83C00012802D10220BDE8F08101209F
:1014300084F83C0000BF022084F83D0020688668E4
:1014400026F0770626F47F462068866028685028B4
:1014500033D00CDC202850D004DC00284BD01028DE
:1014600051D149E0302849D040284CD139E060289A
:101470002DD0702807D0B0F5805F03D0B0F5005FA5
:1014800041D10DE040E0D5E902136A68206800F020
:10149000B0FF2068866846F077062068866033E0F3
:1014A000D5E902136A68206800F0A3FF206880680D
:1014B00040F480402168886026E0EA686968206816
:1014C00001F088F85021206800F09EFF1CE0EA68D7
:1014D0006968206801F0DAF86021206800F094FF64
:1014E00012E0EA686968206801F074F84021206819
:1014F00000F08AFF08E000BF00BF00BF2968206835
:1015000000F082FF00E000BF00BF012084F83D0032
:1015100000BF002084F83C0000BF00BF85E700004A
:1015200010B504462348007800F0800000283FD121
:101530002048007800F0400060B11E48007840F07C
:1015400080001C49087000211B4800F0F1FA1B497B
:1015500008602DE0002017490870184908601548F8
:10156000007840F040001349087000BF124800683E
:10157000006A41F21111084068B90F480068006A1A
:101580008910084038B90C480068006820F0010054
:1015900009490968086000BF0020074909684862D6
:1015A00005480068006840F00100034909680860C8
:1015B00010BD0000000000205800002004000020A2
:1015C0002DE9F04104460D46164600BF94F83C0054
:1015D000012802D10220BDE8F081012084F83C00FE
:1015E00000BF022084F83D0096B9EB68D5E90012EF
:1015F000206801F003F82068806920F00C00216861
:10160000886120688069A9680843216888613DE095
:10161000042E13D1EB68D5E90012206801F04AF8D6
:101620002068806920F440602168886120688069B2
:10163000A96840EA01202168886127E0082E12D1BC
:10164000EB68D5E90012206801F051F82068C06904
:1016500020F00C002168C8612068C069A9680843AF
:101660002168C86112E0EB68D5E90012206801F03A
:101670005AF82068C06920F440602168C861206879
:10168000C069A96840EA01202168C861012084F886
:101690003D0000BF002084F83C0000BF00BF9AE777
:1016A00010B504460CB9012010BD94F83D0028B9CE
:1016B000002084F83C00204600F00CF8022084F85A
:1016C0003D00211D206800F017FE012084F83D0038
:1016D0000020E9E7704770B504460D4635B1042D8A
:1016E0000BD0082D10D00C2D1CD114E02068C06840
:1016F00040F002002168C86015E02068C06840F032
:1017000004002168C8600EE02068C06840F008004E
:101710002168C86007E02068C06840F010002168B8
:10172000C86000E000BF00BF01222946206800F029
:101730004FFE2068806800F00706062E05D020685E
:10174000006840F0010021680860002070BD10B5FD
:10175000044620680069C0F34000D8B12068C06822
:10176000C0F34000B0B16FF00200216808610120B1
:1017700020772068806900F0030018B12046FFF749
:10178000CFFE05E0204600F0DFF8204600F07CF9AF
:101790000020207720680069C0F38000D8B120685D
:1017A000C068C0F38000B0B16FF004002168086128
:1017B000022020772068806900F4407018B120462C
:1017C000FFF7AEFE05E0204600F0BEF8204600F030
:1017D0005BF90020207720680069C0F3C000D8B111
:1017E0002068C068C0F3C000B0B16FF00800216885
:1017F0000861042020772068C06900F0030018B158
:101800002046FFF78DFE05E0204600F09DF82046BB
:1018100000F03AF90020207720680069C0F300103A
:10182000D8B12068C068C0F30010B0B16FF01000EC
:1018300021680861082020772068C06900F44070A2
:1018400018B12046FFF76CFE05E0204600F07CF85A
:10185000204600F019F9002020772068006900F088
:10186000010058B12068C06800F0010030B16FF08D
:10187000010021680861204600F034F92068006901
:10188000C0F3C01058B12068C068C0F3C01030B1B8
:101890006FF08000216808612046FFF76DFC20682A
:1018A0000069C0F3801058B12068C068C0F3801090
:1018B00030B16FF0400021680861204600F051F916
:1018C00020680069C0F3401058B12068C068C0F3B8
:1018D000401030B16FF02000216808612046FFF70A
:1018E0004CFC10BD10B586B00446142101A8FEF7CB
:1018F000BBFD1249206888421ED100BF0020009025
:101900000F48006840F010000D4908600846006864
:1019100000F01000009000BF00BF4FF4D4400190D1
:1019200002200290012003900220049001200590E3
:1019300001A90448FEF7A0FE06B010BD000001405A
:101940003038024000100240704770B504460D4622
:10195000164600BF94F83C00012801D1022070BD5A
:10196000012084F83C0000BF022084F83D0036B11D
:10197000042E1BD0082E31D00C2E5ED145E0294616
:10198000206800F04BFD2068806940F00800216865
:1019900088612068806920F00400216888612068DF
:1019A0008069296908432168886147E029462068E1
:1019B00000F06CFD2068806940F400602168886157
:1019C0002068806920F480602168886120688069CF
:1019D000296940EA0120216888612FE029462068B2
:1019E00000F092FD2068C06940F008002168C861DD
:1019F0002068C06920F004002168C8612068C069BF
:101A0000296908432168C86118E02946206800F068
:101A1000B7FD2068C06940F400602168C861206893
:101A2000C06920F480602168C8612068C0692969A4
:101A300040EA01202168C86100E000BF00BF01202A
:101A400084F83D0000BF002084F83C0000BF00BFC8
:101A500085E710B504460CB9012010BD94F83D008F
:101A600028B9002084F83C00204600F00CF8022041
:101A700084F83D00211D206800F03EFC012084F820
:101A80003D000020E9E770477047000070B504464C
:101A90000E4601223146206800F09AFC0F4920686A
:101AA000884203D00E492068884201D1012000E01D
:101AB000002028B12068406C40F400402168486450
:101AC0002068806800F00705062D05D020680068B2
:101AD00040F0010021680860002070BD0000014056
:101AE000000401401049097801F08001D1B90E4984
:101AF000097801F04001A9B10B49097801F03F01D3
:101B00003F290AD10849097841F08001064A11703D
:101B10004FF0FF31054A116004E003490978491C80
:101B2000014A1170704700000000002004000020EE
:101B30000246002031B1042907D0082908D00C2919
:101B40000CD108E01368586B09E01368986B06E045
:101B50001368D86B03E01368186C00E000BF00BF87
:101B600070477047704700002DE9F0470446206831
:101B700005682068C668206847694FF00008C146BC
:101B800005F00F08B8F1000F0AD105F0200038B1B8
:101B900006F0200020B1204600F00DFEBDE8F087E1
:101BA000B8F1000F72D007F0010018B906F4907078
:101BB00000286BD005F0010030B106F4807018B138
:101BC000E06B40F00100E06305F0040030B107F085
:101BD000010018B1E06B40F00200E06305F0020084
:101BE00030B107F0010018B1E06B40F00400E06391
:101BF00005F0080048B106F0200010B907F0010018
:101C000018B1E06B40F00800E063E06B70B305F0E2
:101C1000200028B106F0200010B1204600F0CBFDD6
:101C200020684069C0F38019E06B00F0080010B92B
:101C3000B9F1000F23D0204600F09DFD20684069D7
:101C400000F04000402816D12068406920F0400094
:101C500021684861606B50B11748616B0865606B23
:101C6000FEF7E1FC10B1606B016D88470CE0204687
:101C7000FFF778FF08E02046FFF774FF04E02046F6
:101C8000FFF770FF0020E06388E7FFE705F08000C2
:101C900030B106F0800018B1204600F0D3FF7DE798
:101CA00005F0400030B106F0400018B1204600F0C9
:101CB00072FD73E700BF71E76327000810B50446A3
:101CC0000CB9012010BDA06900B100E000BF94F87C
:101CD000390028B9002084F83800204600F028F8A0
:101CE000242084F839002068C06820F4005021685E
:101CF000C860204600F0B2FD2068006920F49040E2
:101D0000216808612068406920F02A002168486144
:101D10002068C06840F400502168C8600020E0637B
:101D2000202084F8390084F83A000020CAE7000037
:101D300010B586B00446142101A8FEF795FB2E4984
:101D40002068884255D100BF002000902B480068D1
:101D500040F01000294908600846006800F01000B3
:101D6000009000BF00BF00BF00200090234814383F
:101D7000006840F0020021491439086008460068F4
:101D800000F00200009000BF00BF00BF00200090E4
:101D90000846006840F0010008600846006800F04E
:101DA0000100009000BF00BF80200190022002903F
:101DB00000200390032004900720059001A91048FB
:101DC000FEF75AFC4FF400700190022002900020B0
:101DD0000390032004900720059001A90948FEF70D
:101DE0004BFC002211462520FEF7D6FD2520FEF7EC
:101DF000C3FD06B010BD0000001001404438024091
:101E0000000402400000024070472DE9F8430446F8
:101E10000D4616461F464FF0000994F83900202859
:101E20005DD105B116B90120BDE8F88300BF94F873
:101E30003800012801D10220F6E7012084F838009B
:101E400000BF0020E063212084F83900FEF71AFD6E
:101E50008146A684E68400BF002084F8380000BFD5
:101E60002BE0E08C401EE084A068B0F5805F16D1C6
:101E70004B46002280212046009700F017FF08B152
:101E80000320D1E7A846B8F80000C0F30800216895
:101E90004860206908B9AD1C0FE06D1C0DE04B4691
:101EA000002280212046009700F000FF08B10320A7
:101EB000BAE715F8010B21684860E08C0028D0D102
:101EC0004B46002240212046009700F0EFFE08B16B
:101ED0000320A9E7202084F839000020A4E702208D
:101EE000A2E7704700BFFEE700B587B0142102A843
:101EF000FEF7BAFA00BF002001903648006840F0B3
:101F00000100344908600846006800F001000190B3
:101F100000BF00BF00BF002001900846006840F0ED
:101F2000020008600846006800F00200019000BF4F
:101F300000BF00BF002001900846006840F4807098
:101F400008600846006800F48070019000BF00BF80
:101F500000BF002001900846006840F08000086043
:101F60000846006800F08000019000BF00BF00BF7D
:101F7000002001900846006840F004000860084610
:101F8000006800F00400019000BF00BF00BF002007
:101F900001900846006840F010000860084600689C
:101FA00000F01000019000BF00BF00224FF4E0518C
:101FB0000948FEF761FC4FF4E050029001200390C5
:101FC00000200490059002A90348FEF755FB07B0D6
:101FD00000BD000030380240001C024000B595B042
:101FE000002011901290139014900F9010901C21CB
:101FF00008A8FEF739FA20216846FEF735FA384876
:1020000038490860A720486000213648816044F6BE
:102010001F61C1600021016141618161FFF742F9E7
:1020200008B1FEF7FFFA4FF48050119011A92D4826
:10203000FFF7F1F908B1FEF7F5FA2A48FFF709FDB5
:1020400008B1FEF7EFFA00200F9010900FA9254875
:10205000FFF7CEF808B1FEF7E5FA602008904FF4DC
:10206000FA60099000200A900B900C900D900E9051
:10207000002208A91B48FFF768FC08B1FEF7D2FA56
:10208000042208A91748FFF760FC08B1FEF7CAFA56
:10209000082208A91348FFF758FC08B1FEF7C2FA56
:1020A0000C2208A90F48FFF750FC08B1FEF7BAFA56
:1020B0000020009001900290039004904FF4005093
:1020C00005900020079069460648FFF757F808B1C9
:1020D000FEF7A8FA0348FFF705FC15B000BD0000A5
:1020E000000001401800002000B58BB000200790D0
:1020F000089009900A900590069001900290039034
:1021000004901F481F4908602820486000211D488E
:10211000816044F61F61C1600021016141618161FC
:10212000FFF7C0F808B1FEF77DFA4FF48050079032
:1021300007A91448FFF76FF908B1FEF773FA1148C1
:10214000FFF7AEFA08B1FEF76DFA00200590069091
:1021500005A90C48FFF74CF808B1FEF763FA002018
:10216000019001200290002003900490002201A918
:102170000448FFF725FA08B1FEF754FA0BB000BD8A
:10218000000401405800002010B50B480B490860BE
:102190004FF4E1304860002108488160C16001616E
:1021A0000C21416100218161C161FFF787FD08B108
:1021B000FEF738FA10BD0000001001409800002022
:1021C00000BFFEE7704710B5FEF762FB10BD0000D0
:1021D00000B593B0302107A8FEF746F9142102A8F4
:1021E000FEF742F900BF002001902448006840F04B
:1021F0008050224908600846006800F08050019035
:1022000000BF00BF00BF002001901D48006840F4DF
:1022100080401B4908600846006800F48040019037
:1022200000BF00BF012007900004089002200D901D
:1022300041050E9106210F91A821109102211191C3
:102240000721129107A8FEF739FD08B1FEF7EAF958
:102250000F20029002200390002004904FF4A05021
:1022600005904FF480500690052102A8FEF7E6FB8A
:1022700008B1FEF7D7F913B000BD000040380240A6
:10228000007000401448006840F470001249086073
:102290001248006840F001001049086000200F4912
:1022A000083108600D4800680D4908400B49086076
:1022B0000C48091D0860081F006820F48020091FD1
:1022C0000860002005490C3108604FF000600249A9
:1022D000803908607047000088ED00E00038024057
:1022E000FFFFF6FE1030002410B50248FFF72FFA6A
:1022F00010BD00005800002010B50268294B98421C
:102300000ED0B0F1804F0BD0274B984208D0274B0E
:10231000984205D0264B984202D0264B984203D1D2
:1023200022F070024B681A431E4B984220D0B0F145
:10233000804F1DD01C4B98421AD01C4B984217D08E
:102340001B4B984214D01B4B984211D01A4B984209
:102350000ED01A4B98420BD0194B984208D0194B0B
:10236000984205D0184B984202D0184B984203D19E
:1023700022F44072CB681A4322F080034C6943EA8E
:10238000040202608B68C3620B688362054B98424B
:1023900002D0084B984201D10B69036301234361CA
:1023A00010BD000000000140000400400008004093
:1023B000000C004000040140004001400044014086
:1023C0000048014000180040001C00400020004070
:1023D00030B501F01F05012404FA05F3046A9C439B
:1023E0000462046A01F01F0502FA05F52C43046239
:1023F00030BD30B50C46816821F47F4142EA0325A7
:1024000025432943816030BD0A46816821F070016F
:1024100042F00703194381607047000030B5056A38
:1024200025F001050562026A4368846924F070049E
:1024300024F003040D682C4322F002028D682A4325
:10244000104DA84200D103E00F4DA84206D100BFB5
:1024500022F00802CD682A4322F00402094DA84266
:1024600002D0094DA84207D123F4807323F40073EE
:102470004D692B438D692B43436084614D684563EF
:10248000026230BD000001400004014030B5056A21
:1024900025F010050562026A4368846924F4E0446B
:1024A00024F440740D6844EA052422F020028D686B
:1024B00042EA0512124DA84200D103E0114DA84294
:1024C00007D100BF22F08002CD6842EA051222F057
:1024D00040020B4DA84202D00A4DA84209D123F474
:1024E000806323F400634D6943EA85038D6943EA01
:1024F0008503436084614D688563026230BD0000DE
:10250000000001400004014030B5056A25F48075E3
:102510000562026A4368C46924F0700424F003046D
:102520000D682C4322F400728D6842EA0522124D98
:10253000A84200D103E0114DA84207D100BF22F408
:102540000062CD6842EA052222F480620A4DA84268
:1025500002D00A4DA84209D123F4805323F400533A
:102560004D6943EA05138D6943EA05134360C4616D
:102570004D68C563026230BD0000014000040140A7
:1025800030B5056A25F480550562036A4468C2695E
:1025900022F4E04222F440720D6842EA052223F45C
:1025A00000538D6843EA0533084DA84202D0084D18
:1025B000A84204D124F480444D6944EA851444605F
:1025C000C2614D680564036230BD00000000014037
:1025D0000004014030B50B461446026A056A25F036
:1025E00001050562816921F0F00141EA041122F040
:1025F0000A021A438161026230BD000070B50C46C8
:102600001546066A26F0010606628169026A184EBE
:10261000B04214D0B0F1804F11D0164EB0420ED05F
:10262000154EB0420BD0154EB04208D0144EB042F9
:1026300005D0144EB04202D0134EB04201D1012653
:1026400000E000261EB121F00301294301E041F022
:10265000010121F0F001F02606EA0316314322F0D1
:102660000A0204F00A0632438161026270BD000072
:10267000000001400004004000080040000C004041
:1026800000040140004001400018004030B50B46F6
:102690001446056A25F0100505628169026A21F475
:1026A000704141EA043122F0A00242EA0312816142
:1026B000026230BD70B50C461546066A26F010065B
:1026C00006628169026A21F4407141EA052121F420
:1026D00070414FF4704606EA0336314322F0A002FF
:1026E000A02606EA041632438161026270BD70B50D
:1026F0000C461546066A26F480760662C169026AAF
:1027000021F00301294321F0F001F02606EA031627
:10271000314322F420624FF4206606EA0426324355
:10272000C161026270BD70B50C461546066A26F49A
:1027300080560662C169026A21F4407141EA0521AE
:1027400021F470414FF4704606EA0336314322F417
:1027500020424FF4204606EA04363243C161026249
:1027600070BD70B50546AC6B0020E085E084204666
:10277000FFF7F8F970BD0168C96821F4907102682B
:10278000D1600168496921F001010268516120218D
:1027900080F83A10704710B504462068C06820F0F1
:1027A00040002168C860202084F839002046FFF7E7
:1027B00098FB002010BD70B5044694F83A0022281A
:1027C0004AD1A068B0F5805F13D1A56A206940B9ED
:1027D00020684068C0F308002880A06A801CA062BE
:1027E00019E020684068C0B22880A06A401CA0623E
:1027F00011E0206938B920684068C1B2A26A501C53
:10280000A062117007E02068406800F07F01A26AB2
:10281000501CA0621170E08D401E80B2E085C8B9E6
:102820002068C06820F020002168C8602068C06867
:1028300020F480702168C8602068406920F00100A1
:1028400021684861202084F83A002046FFF7DCFA2E
:10285000002070BD0020FCE70220FAE72DE9F84FC8
:1028600004462068006920F44050E168084321686C
:1028700008612169A068084361690843E169084368
:1028800000902068C06849F20C61884300990843B1
:102890002168C8602068406920F44070A16908433D
:1028A00021684861E069B0F5004F75D1E3492068BF
:1028B000884203D0E249206888426FD1FEF796F93A
:1028C000814602206168A0FB01510B461920A9FB3B
:1028D00000712A463846FDF7CBFC6421B0FBF1F0CD
:1028E0004FEA001A02206168A0FB01510B46192033
:1028F000A9FB00712A463846FDF7BAFC07460220BC
:102900006168A0FB01510B461920A9FB00B12A46C2
:102910005846FDF7ADFC6421B0FBF1F000EBC001BF
:1029200001EB0010A7EB8000322101EBC000642115
:10293000B0FBF1F000F0F8000AEB400A02206168F9
:10294000A0FB01510B461920A9FB00712A4638460D
:10295000FDF78EFC074602206168A0FB01510B4683
:102960001920A9FB00B12A465846FDF781FC6421D5
:10297000B0FBF1F000EBC00101EB0010A7EB800011
:10298000322101EBC0006421B0FBF1F000F0070040
:102990005044216888604FE16EE0FFE7FEF716F9CA
:1029A000814602206168A0FB01510B461920A9FB5A
:1029B00000712A463846FDF75BFC6421B0FBF1F05C
:1029C0004FEA001A02206168A0FB01510B46192052
:1029D000A9FB00712A463846FDF74AFC074602204B
:1029E0006168A0FB01510B461920A9FB00B12A46E2
:1029F0005846FDF73DFC6421B0FBF1F000EBC0014F
:102A000001EB0010A7EB8000322101EBC000642134
:102A1000B0FBF1F000F0F8000AEB400A0220616818
:102A2000A0FB01510B461920A9FB00712A4638462C
:102A3000FDF71EFC074602206168A0FB015003461B
:102A40001920A9FB00B12A465846FDF711FC642164
:102A5000B0FBF1F000EBC00101EB0010A7EB800030
:102A6000322101EBC0006421B0FBF1F000F007005F
:102A7000504421688860DFE070492068884203D0B4
:102A80006F49206888426BD1FEF7B0F88146042078
:102A90006168A0FB01510B461920A9FB00712A4671
:102AA0003846FDF7E5FB824604206168A0FB015132
:102AB0000B461920A9FB00712A463846FDF7D8FBC2
:102AC0006421B0FBF1F000EBC00101EB0010AAEBB8
:102AD0008000322101EB00106421B0FBF1F000F026
:102AE000F00A04206168A0FB015003461920A9FBED
:102AF00000712A463846FDF7BBFB6421B0FBF1F0BC
:102B00000AEB001A04206168A0FB01510B46192052
:102B1000A9FB00712A463846FDF7AAFB07460420A8
:102B20006168A0FB015003461920A9FB00B12A46A9
:102B30005846FDF79DFB6421B0FBF1F000EBC001AE
:102B400001EB0010A7EB8000322101EB00106421A3
:102B5000B0FBF1F000F00F005044216888606BE09A
:102B6000FEF734F8814604206168A0FB015003465B
:102B70001920A9FB00712A463846FDF779FB8246E9
:102B800004206168A0FB015003461920A9FB0071D5
:102B90002A463846FDF76CFB6421B0FBF1F000EBF0
:102BA000C00101EB0010AAEB8000322101EB001004
:102BB0006421B0FBF1F000F0F00A04206168A0FB92
:102BC000015003461920A9FB00712A463846FDF73B
:102BD0004FFB6421B0FBF1F00AEB001A042061689E
:102BE000A0FB017003461920A9FB005001463A469C
:102BF0002846FDF73DFB074604206168A0FB015015
:102C000003461920A9FB00B12A465846FDF730FBC0
:102C10006421B0FBF1F000EBC00101EB0010A7EB69
:102C20008000322101EB00106421B0FBF1F000F0D4
:102C30000F00504421688860BDE8F88F0010014003
:102C400000140140014691F8390021282CD18868F0
:102C5000B0F5805F0FD10A6A1088C0F308000B68D6
:102C60005860086918B9086A801C086209E0086A97
:102C7000401C086205E00B6A581C086218780B6853
:102C80005860C88C401E80B2C88458B90868C068B3
:102C900020F080000B68D8600868C06840F04000F1
:102CA0000B68D860002070470220FCE72DE9F04156
:102CB00004460D4617469846069E21E0701CF8B162
:102CC0002EB1FDF7DFFDA0EB0800B04218D9206857
:102CD000C06820F4D0702168C8602068406920F086
:102CE000010021684861202084F8390084F83A0006
:102CF00000BF002084F8380000BF0320BDE8F08149
:102D0000206800682840A84201D1012000E000208E
:102D1000B842D3D00020F1E710B50248FEF724FFF7
:102D200010BD00009800002000BFFEE702480068C8
:102D3000C0F30220704700000CED00E010B5002841
:102D400004DB0A07130E054A135406E00A07140EA3
:102D5000034A00F00F031B1FD45410BD00E400E031
:102D600018ED00E00EB5002400BF00BF00BF00BF9B
:102D700000BFFDF799FDFFF72BFAFFF7B5F8FFF756
:102D8000B3F9FFF72BF9FFF7FFF900224FF4805159
:102D90003A48FDF771FD00224FF400613748FDF716
:102DA0006BFD00224FF480613448FDF765FD344827
:102DB000FEF71CFB00213248FEF768FE0C2130486C
:102DC000FEF764FE2F48FEF711FB2F480068C0682D
:102DD00040F020002C490968C8602B480068C06892
:102DE00040F0100028490968C86040F2DC502449CE
:102DF0000968486322490968086441F28830FDF790
:102E000027FC4FF4C8601E490968486364230C22FC
:102E10001EA11D48FEF7F9FF0122D1021748FDF758
:102E20002BFD4FF4FA60FDF713FC40F2DC5014491F
:102E30000968486300224FF400611048FDF71CFD4B
:102E40004FF4FA60FDF704FC17E01448007800F036
:102E5000800090B11148007800F03F0464421048AF
:102E60000068044422460FA16846FDF779FA6423FE
:102E70000C2269460448FEF7C8FFE6E7001C024042
:102E80001800002058000020980000203130303019
:102E900030302D2D2D2D0D0A0000000000000020E7
:102EA00004000020256400004FF04070E1EE100A9D
:102EB0007047000000000000000001020304060744
:102EC000080900000000010203040000EC2E0008C5
:102ED0000000002018000000C4010008042F0008B2
:102EE0001800002020410000E00100080000000060
:102EF000000000000024F4000000000010000000AA
:042F000001000000CC
:040000050800018965
:00000001FF
