:020000040800F2
:10000000300E00209D01000851370008212F000804
:10001000313700087F06000869440008000000002E
:10002000000000000000000000000000D3380008BD
:100030005F08000800000000D1380008D53800082B
:10004000B7010008B7010008B7010008B7010008B0
:10005000B7010008B7010008B7010008B7010008A0
:10006000B7010008B7010008B7010008C50600087D
:10007000D5060008E5060008F5060008B7010008E7
:100080000507000815070008B7010008B7010008B8
:100090008506000895060008B701000861080008F9
:1000A000B7010008B7010008B7010008B701000850
:1000B000493A0008B7010008B7010008B701000875
:1000C000B7010008B7010008B7010008B701000830
:1000D000B7010008294400083944000849440008D1
:1000E000B7010008B7010008B7010008B701000810
:1000F000B7010008B7010008B7010008250700088C
:10010000B7010008B7010008B7010008B7010008EF
:10011000D53D0008E53D0008593A0008B701000840
:10012000B7010008B7010008B7010008B7010008CF
:10013000B70100080000000000000000B70100083F
:10014000A5060008B5060008B7010008B7010008B9
:10015000B7010008350700084507000859440008A2
:10016000B7010008B7010008B7010008B70100088F
:10017000B7010008B70100080000000000000000FF
:10018000B7010008B7010008DFF80CD000F02AFA28
:1001900000480047914A0008300E0020064880477A
:1001A00006480047FEE7FEE7FEE7FEE7FEE7FEE75C
:1001B000FEE7FEE7FEE7FEE7E539000889010008F3
:1001C0002DE9F05F0546002092469B46884606468C
:1001D000814640241BE0284641464746224600F01F
:1001E00094F953465A46C01A914110D31146184605
:1001F000224600F07BF92D1A67EB01084F46224694
:100200000120002100F072F917EB00094E41201E79
:10021000A4F10104DFDC484631462A464346BDE8E6
:10022000F09FD2B201E000F8012B491EFBD27047CB
:100230000022F6E710B513460A4604461946FFF7B2
:10024000F0FF204610BD2DE9FE4F81EA030404F0C3
:10025000004421F0004100944FF0000B23F00043D4
:1002600050EA01045ED052EA03045BD0C3F30A549F
:10027000C1F30A552C44A4F2F3340194A0FB0254B8
:10028000C1F3130141F48011C3F3130343F480134A
:1002900001FB024400FB034E840A970A44EA81549E
:1002A00047EA8357A4FB076802958D0A05FB07857B
:1002B0004FEA932C04FB0C542705029D4FEA065885
:1002C00047EA1637B5EB08056EEB070C870E920E62
:1002D00047EA811742EA8312A7FB0201B6EB0B0142
:1002E00064EB00042B0D43EA0C335E1844EB1C5006
:1002F000DA465146E7FB0201C5F313044FEA0B331C
:1003000043EA14534FEA0432019C43EA0603A4F182
:100310000C040294009CCDE900B400F015F903B080
:10032000BDE8F08F00200146F9E72DE9F04D81EAA4
:10033000030404F0004B21F0004514464FF0000A7E
:1003400023F0004150EA050220D054EA01021DD0FA
:10035000C5F30A570246C5F31303C1F31300C1F3F3
:100360000A5640F4801543F48013A7EB0608101BCF
:10037000D64608F2FD3873EB050002D308F10108F8
:1003800001E092185B41B8F1000F03DA002001464A
:10039000BDE8F08D00204FF48011064684460EE043
:1003A000171B73EB050705D3121B63EB050306430D
:1003B0004CEA010C49084FEA300092185B4150EAC0
:1003C0000107EDD152EA030012D082EA040083EA69
:1003D0000501084305D0101BAB4106D201220023C2
:1003E00006E000224FF0004302E06FF001025310DC
:1003F0001AEB06004CEB085110EB0A0041EB0B0125
:10040000BDE8F04D00F091B80EB5C10F80EAE07084
:100410000844CA07002140F233438DE80E000A4623
:100420000B4600F091F803B000BD70B5C1F30A525D
:1004300001F000450024C1F3130140F2FF3341F401
:1004400080119A4201DA002070BD40F233439A4293
:10045000A2F2334203DC524200F057F800E0904031
:100460002C43F1D0404270BD00F0004230F000401B
:100470000AD0C10D01F56071C0F3160042EA0151C6
:10048000C208400711437047002001467047000032
:1004900030B5041E71F1000404DB4FF0004440420B
:1004A00064EB0101141E73F1000405DB1C464FF0E0
:1004B0000043524263EB0403994208BF904230BDAF
:1004C00030B50B46014600202022012409E021FA24
:1004D00002F59D4205D303FA02F5491B04FA02F521
:1004E0002844151EA2F10102F1DC30BD202A04DBF4
:1004F000203A00FA02F1002070479140C2F1200337
:1005000020FA03F3194390407047202A04DB203A75
:1005100021FA02F00021704721FA02F3D040C2F123
:100520002002914008431946704710B5141E73F11C
:10053000000408DA401C41F1000192185B411A43A3
:1005400001D120F0010010BD2DE9F04D92469B46EF
:1005500011B1B1FA81F202E0B0FA80F22032904695
:10056000FFF7C4FF04460F4640EA0A0041EA0B01C8
:1005700053465A46084313D0114653EA010019D096
:10058000C8F140025046FFF7C0FF05460E465046F0
:1005900059464246FFF7AAFF084305D0012004E070
:1005A00020463946BDE8F08D0020054346EAE07656
:1005B0002C4337430A986305E40AA0EB08000022A5
:1005C000FD0A44EA47540A3002D500200146E9E713
:1005D000010510196941DDE9084500196941BDE8C7
:1005E000F04DA2E7064C074D06E0E06840F001033D
:1005F00094E8070098471034AC42F6D3FFF7C8FDE3
:10060000F44F000814500008F0B50546059C012A77
:1006100032DB1E2A30DC88261E7005F1A0065E70D3
:100620005606360E9E7000200BE001EB40067778F0
:100630004600F61C9F5511F810704600361D9F5558
:10064000401C561E8642F0DA00275600F61C9F55C5
:10065000002009E05600F61C9E5D1F5C3E44F7B288
:100660005600F61C9F55401C5600B61C8642F1DA17
:100670005600361D268001E000202080F0BD00BF1E
:10068000FEE7000010B5024800F099F910BD000027
:100690004000002010B5024800F091F910BD0000A4
:1006A0004000002010B5024800F089F910BD00009C
:1006B0006800002010B5024800F081F910BD00006C
:1006C0006800002010B5024800F016FB10BD0000C5
:1006D0009405002010B5024800F00EFB10BD00008C
:1006E0007404002010B5024800F006FB10BD0000A5
:1006F0003405002010B5024800F0FEFA10BD0000DD
:10070000D404002010B5024800F0F6FA10BD000035
:10071000B403002010B5024800F0EEFA10BD00004E
:100720001404002010B5024800F0E6FA10BD0000E5
:10073000F405002010B5024800F0DEFA10BD0000FC
:100740005406002010B5024800F0D6FA10BD000093
:10075000540300200146087810381823B0FBF3F248
:100760000848805CC865032A05D908686FF309004A
:10077000001D886503E008686FF309008865886DCF
:1007800070470000D44F0008014600208A6A8B6938
:10079000CBB932B1012A0DD0022A03D0032A10D1DD
:1007A0000EE000BFCB6A03F08073B3F1807F00D10D
:1007B000012007E0CB6AB3F1C07F00D1012001E046
:1007C00000E000BF34E08B69B3F5005F1AD132B1AD
:1007D000012A07D0022A03D0032A11D10AE000BF60
:1007E00001200EE0CB6A03F08073B3F1807F00D16B
:1007F000012006E0CB6AB3F1C07F00D1012000E008
:1008000000BF15E032B1012A05D0022A04D0032A24
:100810000CD103E000BF00BF012008E0CB6A03F069
:100820008073B3F1807F00D1012000E000BF00BFE2
:10083000704730B50468246824F4802405682C606F
:10084000046863608468402C04D10468A260046872
:10085000E16003E00468A1600468E26030BD7047B5
:1008600010B5202000F042FC10BD10B502F054FD80
:1008700000F028F800F04EF810BD000004480068B1
:1008800000F0100010B94FF0FF3070470120FCE776
:100890001008024070B504460948006805B20020FF
:1008A00007490860FFF7EAFF012801D1256005E04C
:1008B000FFF7E4FF401C08B96842206070BD0000EB
:1008C0002404004000B587B0142102A8FFF7B0FC53
:1008D00000BF002001900D48006840F004000B4963
:1008E00008600846006800F00400019000BF00BFE7
:1008F000102002900020039004900320059002A98C
:10090000034800F001FC07B000BD00003038024091
:100910000008024000B587B0142102A8FFF788FC48
:1009200000BF002001901148006840F004000F490A
:1009300008600846006800F00400019000BF00BF96
:10094000202002900A480390002004900320059084
:1009500002A9084800F0D8FB00221146172000F039
:100960009AFD172000F08AFD07B000BD3038024024
:10097000000011100008024004460D4604E02A461B
:10098000214602A003F072FDF9E7000057726F6E76
:100990006720706172616D65746572732076616C39
:1009A00075653A2066696C65202573206F6E206C32
:1009B000696E652025640D0A0000000070472DE96E
:1009C000F05F04460025206846692068D0F804904E
:1009D000206887682068D0F80CA02068D0F810B094
:1009E0002068D0F8188006F00100002855D007F0E4
:1009F0000100C0B101202168886007F0020018B131
:100A0000204600F009F90EE007F0040010B145F4AB
:100A1000006508E007F0080010B145F4805502E0D9
:100A2000204600F0F8F807F48070C8B14FF48070E9
:100A30002168886007F4007018B1204600F0EEF8D5
:100A40000EE007F4806010B145F4005508E007F4AB
:100A5000006010B145F4804502E0204600F0DDF86A
:100A600007F48030C8B14FF480302168886007F403
:100A7000003018B1204600F0D3F80EE007F48020D3
:100A800010B145F4004508E007F4002010B145F42A
:100A9000803502E0204600F0C2F806F0080038B1C8
:100AA0000AF0100020B145F4007510202168C860DC
:100AB00006F0040040B10AF0080028B108202168BF
:100AC000C860204600F0A2F806F0020038B12068A5
:100AD000C06800F0030010B1204600F098F806F05E
:100AE000400038B10BF0100020B145F480651020B3
:100AF0002168086106F0200040B10BF0080028B121
:100B0000082021680861204600F082F806F01000F5
:100B100038B12068006900F0030010B1204600F0F1
:100B200078F806F4003040B109F0100028B1102028
:100B300021684860204600F06DF806F4803040B12E
:100B400009F0080028B1082021684860204600F01C
:100B500068F806F4004088B309F0040078B306F49E
:100B6000807020B108F0010008B145F0010506F4DD
:100B7000007020B108F0020008B145F0020506F44B
:100B8000806020B108F0040008B145F0040506F4C7
:100B90000060A0B108F0700088B108F07000402833
:100BA00017D006DC10280BD020280CD0302819D103
:100BB0000CE0502810D0602814D110E01DE019E09E
:100BC00045F008050FE045F010050CE045F0200564
:100BD00009E045F0400506E045F0800503E045F4F6
:100BE000807500E000BF00BF2068806920F07000C1
:100BF000216888610420216848602DB1606A28431B
:100C000060622046FFF7DAFEBDE8F09F704770474C
:100C1000704770477047704770477047704770471C
:100C20007047704770B50446A56D00F07DFB064621
:100C300094F83500022808D08020606500BF0020AD
:100C400084F8340000BF012070BD2068006820F0E7
:100C50001600216808602068406920F08000216843
:100C60004861206C08B9A06C28B12068006820F0A9
:100C70000800216808602068006820F001002168F1
:100C800008600FE000F050FB801B05280AD92020E7
:100C9000606500BF002084F8340000BF032084F8A2
:100CA0003500D1E72068006800F001000028E9D194
:100CB00094F85C103F208840A86000BF002084F8B2
:100CC000340000BF012084F835000020BCE7014655
:100CD00091F83500022803D0802048650120704734
:100CE000052081F835000868006820F001000A68D6
:100CF00010600020F3E70000F8B5044600200090E3
:100D00008C4800684FF41651B0FBF1F7A56D2E68C2
:100D100094F85C1008208840304098B12068006842
:100D200000F0040070B12068006820F00400216821
:100D3000086094F85C1008208840A860606D40F05E
:100D40000100606594F85C1001208840304068B173
:100D50002068406900F0800040B194F85C100120E8
:100D60008840A860606D40F00200606594F85C10F7
:100D700004208840304068B12068006800F002001C
:100D800040B194F85C1004208840A860606D40F089
:100D90000400606594F85C1010208840304078B3FF
:100DA0002068006800F0080050B394F85C10102030
:100DB0008840A8602068006800F4802080B1206826
:100DC000006800F4002028B9206CC8B12046216CCE
:100DD000884715E0A06C98B12046A16C88470FE0C9
:100DE0002068006800F4807028B92068006820F04E
:100DF000080021680860206C10B12046216C8847EB
:100E000094F85C10202088403040002865D020688D
:100E1000006800F0100000285FD094F85C102020DB
:100E20008840A86094F83500052828D1206800681B
:100E300020F01600216808602068406920F08000DA
:100E400021684861206C08B9A06C28B1206800684E
:100E500020F008002168086094F85C103F2088406A
:100E6000A86000BF002084F8340000BF012084F88F
:100E70003500206D10B12046216D8847F8BD2068EF
:100E8000006800F4802080B12068006800F4002031
:100E900028B9606C10B12046616C88471DE0E06B9A
:100EA000D8B12046E16B884717E02068006800F45D
:100EB000807068B92068006820F010002168086020
:100EC00000BF002084F8340000BF012084F8350002
:100ED000E06B10B12046E16B8847606D38B3606D00
:100EE00000F00100F0B1052084F8350020680068AA
:100EF00020F001002168086000BF0098401C0090AD
:100F0000B84200D905E02068006800F00100002820
:100F1000F3D100BF00BF002084F8340000BF0120DF
:100F200084F83500E06C10B12046E16C884700BFC2
:100F3000A4E700000C0000202DE9F0410446002544
:100F400000F0F2F9074614B90120BDE8F081606AAB
:100F500000B100BF00BF002084F8340000BF0220B1
:100F600084F835002068006820F0010021680860DE
:100F70000AE000F0D9F9C01B052805D920206065DA
:100F8000032084F83500E0E72068006800F00100E5
:100F90000028EED12068056821480540D4E9010108
:100FA0000843E16808432169084361690843A1696E
:100FB0000843E1690843216A08430543606A04283D
:100FC00003D1D4E90B01084305432068056020687C
:100FD000456925F00705606A0543606A04280DD15C
:100FE000A06A0543E06A48B12046FFF7CDFB28B16F
:100FF00040206065012084F83500A6E7206845613F
:101000002046FFF7A7FB064694F85C103F20884077
:10101000B06000206065012084F83500002094E76E
:101020003F8010F02DE9F04704460D4616461F4656
:101030004FF00008D4F8589000BF94F8340001280D
:1010400002D10220BDE8F087012084F8340000BFFF
:1010500094F8350001282BD1022084F835000020B7
:1010600060653B46324629462046FFF7E2FB94F88E
:101070005C103F208840C9F808002068006840F0F4
:101080001600216808602068406940F080002168EF
:101090004861206C28B12068006840F00800216891
:1010A00008602068006840F001002168086006E0E0
:1010B00000BF002084F8340000BF4FF00208404613
:1010C000C0E7000010B50446FFF7D8FB012805D1A2
:1010D00005484068401C0449486004E002484068F4
:1010E000401E0149486010BD1C00002010B5044698
:1010F00004480068204020B1024804602046FFF701
:10110000E1FF10BD143C0140F8B502460B46002536
:10111000002400200021DCE0012606FA01F51E680B
:1011200006EA0504AC4273D15E68022E02D05E6806
:10113000122E13D1CF0802F1200656F827004E07D1
:10114000F70E0F26BE40B0434F07FF0E1E69BE408C
:101150003043CF0802F1200646F8270010684F0000
:101160000326BE40B0431E7906F003064F00BE4082
:10117000304310605E68012E08D05E68022E05D0F4
:101180005E68112E02D05E68122E13D190684F0057
:101190000326BE40B0434F00DE68BE40304390603F
:1011A000506801268E40B0431E79C6F300168E406B
:1011B00030435060D0684F000326BE40B0434F001C
:1011C0009E68BE403043D0605E6806F08056B6F13F
:1011D000805F7DD100BF00260096404E366846F401
:1011E00080463E4F3E603E46366806F48046009696
:1011F00000BF00BF3A4E8F0856F827008E07370F02
:101200000F26BE40B043374EB24202D1002624E042
:101210005EE0354EB24201D101261EE0334EB242AD
:1012200001D1022619E0324EB24201D1032614E068
:10123000304EB24201D104260FE02F4EB24201D10E
:1012400005260AE02D4EB24201D1062605E02C4EBD
:10125000B24201D1072600E008268F073F0FBE40AB
:1012600030431F4E8F0846F82700264E3068A043B3
:101270005E6806F48036B6F5803F00D12043214EEB
:101280003060361D3068A0435E6806F40036B6F55F
:10129000003F00D120431B4E361D3060361D3068A4
:1012A000A0435E6806F48016B6F5801F00D1204387
:1012B000144E08363060361D3068A0435E6806F470
:1012C0000016B6F5001F00D120430E4E0C363060DC
:1012D000491C1029FFF420AFF8BD0000443802403B
:1012E00008380140000002400004024000080240AB
:1012F000000C02400010024000140240001802409E
:10130000001C0240003C014042690A408A4202D16E
:101310000A04826100E0816170470AB1816101E0E5
:101320000B048361704700000148006870470000AB
:101330000000002070B504460CB9012070BD4CF6C9
:10134000CC402168086045F2555021680860D4E916
:10135000001048602168A0688860FFF7E5FF054637
:1013600006E0FFF7E1FF401B302801D90320E5E745
:101370002068C0680028F4D14AF6AA2021680860D5
:101380000020DBE701464AF6AA200A681060002028
:101390007047000003480068034909780844014980
:1013A00008607047000000200800002010B50D48BC
:1013B000006840F400700B4908600846006840F47B
:1013C000806008600846006840F480700860032070
:1013D00000F0A0F8002000F007F800F02BF8002043
:1013E00010BD0000003C024070B504460E48007875
:1013F0004FF47A71B1FBF0F00C490968B1FBF0F5DC
:10140000284600F012FC08B1012070BD102C07D254
:1014100000222146501E00F03EF80548046001E01D
:101420000120F2E70020F0E7080000200C00002077
:101430000400002008B500BF002000900E4800689E
:1014400040F480400C4908600846006800F4804081
:10145000009000BF00BF00BF00200090081F006880
:1014600040F08050091F08600846006800F0805076
:10147000009000BF00BF08BD4438024000BF00F02C
:101480001F02012191404209920002F1E022C2F8BC
:10149000001100BF70472DE9F05F80460D461646EB
:1014A000002702F057F9074639462A46334601F02D
:1014B0000700C0F1070ABAF1040F02D94FF0040A7D
:1014C00001E0C0F1070AD14600F1040ABAF1070FA2
:1014D00002D24FF0000A01E0A0F1030AD4464FF017
:1014E000010A0AFA09FAAAF1010A0AEA020A0AFA40
:1014F0000CFA4FF0010B0BFA0CFBABF1010B0BEAF2
:10150000030B4AEA0B042146404602F02BF9BDE8E2
:10151000F09F000000BF00F00702064B19684FF66D
:10152000FF031940044B0B4343EA0221014B1960AE
:1015300000BF70470CED00E00000FA0570B50446EE
:101540000D460CB9012070BD5848006800F00F002E
:10155000A84209D255490D700846006800F00F00F6
:10156000A84201D00120EEE7207800F00200022816
:101570001DD1207800F00400042805D14C480068F3
:1015800040F4E0504A490860207800F0080008283C
:1015900005D14748006840F4604045490860444828
:1015A000006820F0F000A1680843414908602078F5
:1015B00000F00100A8B36068012807D13C48083852
:1015C0000068C0F34040B8B90120BCE76068022859
:1015D00002D06068032807D1354808380068C0F396
:1015E000406048B90120AEE7314808380068C0F3D0
:1015F000400008B90120A6E72D48006820F003004C
:10160000616808432A490860FFF78EFE064609E034
:10161000FFF78AFE801B41F28831884202D90320FD
:1016200091E707E02248006800F00C006168B0EB29
:10163000810FEDD11D48006800F00F00A84209D9C4
:101640001A490D700846006800F00F00A84201D04A
:10165000012078E7207800F00400042807D114481E
:10166000006820F4E050E1680843114908602078E0
:1016700000F00800082808D10D48006820F46040F8
:10168000216940EAC1000A49086000F03DF80849B4
:101690000968C1F30311074A515CC8400649086054
:1016A0000020FFF7A1FE00204DE70000003C0240B3
:1016B00008380240DC4F00080C0000200148006898
:1016C000704700000C00002000B5FFF7F7FF044949
:1016D0000968C1F38221034A515CC84000BD000083
:1016E00008380240EC4F000800B5FFF7E7FF044957
:1016F0000968C1F34231034A515CC84000BD000093
:1017000008380240EC4F00082DE9F047002400257E
:101710000026A1462548006800F00C0020B10428EE
:1017200005D008283AD105E0DFF8849039E0DFF8E9
:10173000849036E01D48001F006800F03F041B48FD
:10174000001F006800F4800078B11A481749091F8B
:101750000968C1F38811A0FB0170014622460023ED
:101760003846FEF72DFD05460EE011480F49091FCA
:101770000968C1F38811A0FB0170014622460023CD
:101780003846FEF71DFD05460848001F0068C0F3F7
:101790000140401C4600B5FBF6F902E0DFF810906E
:1017A00000BF00BF4846BDE8F0870000083802408F
:1017B0000024F40000127A00F8B504460CB90120A8
:1017C000F8BD207800F00100002874D0F9480068C6
:1017D00000F00C0004280DD0F648006800F00C0062
:1017E000082813D1F348001F006800F48000B0F50A
:1017F000800F0BD1EF4808380068C0F34040002844
:1018000059D06068002856D10120D9E700BF606830
:10181000B0F5803F08D1E7480838006840F48030D0
:10182000E449083908601EE06068B0F5A02F0DD1CA
:10183000E0480838006840F48020DE490839086034
:101840000846006840F4803008600CE0D948083849
:10185000006820F48030D7490839086008460068DD
:1018600020F48020086000BF606890B1FFF75CFD45
:10187000054606E0FFF758FD401B642801D9032008
:101880009EE7CC4808380068C0F340400028F1D0FB
:1018900011E0FFF749FD054606E0FFF745FD401B57
:1018A000642801D903208BE7C24808380068C0F3D8
:1018B00040400028F1D1207800F0020002285FD1DA
:1018C000BC48006800F00C0058B1BA48006800F04D
:1018D0000C0008281CD1B748001F006800F48000E5
:1018E000B0B9B44808380068C0F3400020B1E068DF
:1018F000012801D0012063E7AE480838006820F0D5
:10190000F800216940EAC100AA490839086037E0B7
:10191000E06800B30120A8490860FFF705FD05460F
:1019200006E0FFF701FD401B022801D9032047E72D
:10193000A04808380068C0F340000028F1D09D4856
:101940000838006820F0F800216940EAC100994990
:101950000839086014E0002097490860FFF7E4FCAC
:10196000054606E0FFF7E0FC401B022801D90320F2
:1019700026E7904808380068C0F340000028F1D1FD
:10198000207800F0080008282CD16069A8B1012057
:101990008A490860FFF7C8FC054606E0FFF7C4FC6B
:1019A000401B022801D903200AE782486C300068F6
:1019B000C0F340000028F1D014E000207F49086007
:1019C000FFF7B2FC054606E0FFF7AEFC401B02281D
:1019D00001D90320F4E677486C300068C0F340007A
:1019E0000028F1D1207800F00400042870D10026EE
:1019F00070483830006800F0805090B900BF002077
:101A000000906C483830006840F0805069493831A7
:101A100008600846006800F08050009000BF00BFDA
:101A200001266748006800F48070B0B96448006817
:101A300040F4807062490860FFF776FC054606E0D6
:101A4000FFF772FC401B022801D90320B8E65C486E
:101A5000006800F480700028F2D000BFA068012860
:101A600008D154486830006840F00100514968319D
:101A700008601DE0A06805280DD14E486830006858
:101A800040F004004B49683108600846006840F0A7
:101A9000010008600CE047486830006820F0010051
:101AA0004449683108600846006820F00400086076
:101AB00000BFA068A8B1FFF737FC054609E0FFF7B3
:101AC00033FC401B41F28831884202D9032077E67B
:101AD00026E0384868300068C0F340000028EED0A7
:101AE00013E0FFF721FC054608E0FFF71DFC401B53
:101AF00041F28831884201D9032061E62D486830DF
:101B00000068C0F340000028EFD1012E07D129481A
:101B10003830006820F0805026493831086000BF16
:101B2000A069B8B32348006800F00C0008285ED014
:101B3000A069022846D100201F490866FFF7F4FB80
:101B4000054606E0FFF7F0FB401B022801D9032001
:101B500036E6184808380068C0F340600028F1D124
:101B6000D4E907010843616A40EA81110122A06AB1
:101B7000C2EB500041EA00412C20005D41EA0060C8
:101B80000C49091F086001200B490866FFF7CCFBD0
:101B9000054607E02DE0FFF7C7FB401B022801D9EF
:101BA00003200DE6034808380068C0F340600028B1
:101BB000F1D01EE00838024000004742800E474244
:101BC0000070004000200C490866FFF7ADFB054699
:101BD00006E0FFF7A9FB401B022801D90320EFE52F
:101BE00006480068C0F340600028F2D101E00120FF
:101BF000E6E50020E4E5000000004742003802402E
:101C0000042808D14FF0E021096941F004014FF0A8
:101C1000E022116107E04FF0E021096921F00401A1
:101C20004FF0E02211617047704770B504462546B9
:101C3000681EB0F1807F01D301200FE0681E4FF0D5
:101C4000E02148610F214FF0FF3001F08BFD0020B3
:101C50004FF0E021886107200861002070BD10B5B9
:101C6000FFF7E2FF10BD7047704710B5024600BF96
:101C700092F83C00012801D1022010BD012082F819
:101C80003C0000BF022082F83D00106843681068E5
:101C9000846823F070030868034324F080044868D4
:101CA00004431068436010688460012082F83D009E
:101CB00000BF002082F83C0000BF00BFDDE770B528
:101CC00004460D4604222946206801F05AFF206888
:101CD000406C40F40040216848642068806800F04F
:101CE0000706062E05D02068006840F00100216834
:101CF0000860002070BD10B504460CB9012010BD6D
:101D000094F83D0028B9002084F83C00204600F0FB
:101D10000DF8022084F83D00211D206801F0B4FE7A
:101D2000012084F83D000020E9E7000010B586B0EE
:101D30000446142101A8FEF77BFA2949206888424D
:101D40002FD100BF002000902648006840F0080016
:101D5000244908600846006800F00800009000BFB1
:101D600000BF00BF002000901E481038006840F0FF
:101D700001001C49103908600846006800F00100A5
:101D8000009000BF00BF012001900220029003904C
:101D9000002004900220059001A91348FFF7B4F930
:101DA0001BE012492068884217D100BF0020009034
:101DB0000C48006840F010000A49086008460068B6
:101DC00000F01000009000BF00BF00221146362036
:101DD000FFF761FB3620FFF751FB06B010BD000096
:101DE000000C00404038024000000240001000405B
:101DF00001460868C06840F001000B68D8600868B8
:101E0000806800F00702062A05D00868006840F0E4
:101E100001000B681860002070472DE9F04104466E
:101E20000D4600BF94F83C00012802D10220BDE815
:101E3000F081012084F83C0000BF022084F83D00BE
:101E40002068866826F0770626F47F46206886603C
:101E50002868502833D00CDC202850D004DC00281F
:101E60004BD0102851D149E0302849D040284CD1DE
:101E700039E060282DD0702807D0B0F5805F03D0FE
:101E8000B0F5005F41D10DE040E0D5E902136A688A
:101E9000206801F087FE2068866846F07706206893
:101EA000866033E0D5E902136A68206801F07AFEA3
:101EB0002068806840F480402168886026E0EA68F5
:101EC0006968206801F05EFF5021206801F075FE0E
:101ED0001CE0EA686968206801F067FF60212068FB
:101EE00001F06BFE12E0EA686968206801F04AFFC1
:101EF0004021206801F061FE08E000BF00BF00BF84
:101F00002968206801F059FE00E000BF00BF0120F1
:101F100084F83D0000BF002084F83C0000BF00BFF3
:101F200085E7704710B5044620680069C0F340009B
:101F3000D8B12068C068C0F34000B0B16FF00200B3
:101F400021680861012020772068806900F0030083
:101F500018B12046FFF7E5FF05E0204600F0ADF898
:101F6000204600F01BFA0020207720680069C0F3AB
:101F70008000D8B12068C068C0F38000B0B16FF0B5
:101F8000040021680861022020772068806900F43D
:101F9000407018B12046FFF7C4FF05E0204600F06E
:101FA0008CF8204600F0FAF90020207720680069BC
:101FB000C0F3C000D8B12068C068C0F3C000B0B1A1
:101FC0006FF0080021680861042020772068C0694C
:101FD00000F0030018B12046FFF7A3FF05E02046FC
:101FE00000F06BF8204600F0D9F900202077206837
:101FF0000069C0F30010D8B12068C068C0F30010B9
:10200000B0B16FF0100021680861082020772068C7
:10201000C06900F4407018B12046FFF782FF05E068
:10202000204600F04AF8204600F0B8F9002020775A
:102030002068006900F0010058B12068C06800F015
:10204000010030B16FF0010021680861204600F006
:10205000D3F920680069C0F3C01058B12068C06887
:10206000C0F3C01030B16FF08000216808612046D5
:10207000FFF7F9FD20680069C0F3801058B12068AF
:10208000C068C0F3801030B16FF040002168086173
:10209000204600F0B2F920680069C0F3401058B142
:1020A0002068C068C0F3401030B16FF02000216894
:1020B00008612046FFF7D8FD10BD704770B5044693
:1020C0000D46164600BF94F83C00012801D10220BD
:1020D00070BD012084F83C0000BF022084F83D0060
:1020E00036B1042E1BD0082E31D00C2E5ED145E027
:1020F0002946206801F06AFD2068806940F00800E8
:10210000216888612068806920F004002168886166
:1021100020688069296908432168886147E0294669
:10212000206801F08BFD2068806940F40060216820
:1021300088612068806920F4806021688861206857
:102140008069296940EA0120216888612FE02946D9
:10215000206801F0B1FD2068C06940F008002168E6
:10216000C8612068C06920F004002168C861206847
:10217000C069296908432168C86118E029462068B8
:1021800001F0D6FD2068C06940F400602168C86194
:102190002068C06920F480602168C8612068C06937
:1021A000296940EA01202168C86100E000BF00BF42
:1021B000012084F83D0000BF002084F83C0000BFEF
:1021C00000BF85E710B504460CB9012010BD94F896
:1021D0003D0028B9002084F83C00204600F00CF8AF
:1021E000022084F83D00211D206801F04DFC0120F3
:1021F00084F83D000020E9E710B586B00446624946
:102200002068884231D100BF002000905F480068FC
:1022100040F001005D4908600846006800F00100D8
:10222000009000BF00BF00BF002000905748143846
:10223000006840F0020055491439086008460068FB
:1022400000F00200009000BF00BF022002900120B9
:10225000039002200490012005904FF4404001902B
:1022600001A94B48FEF750FF8BE02068B0F1804F8A
:1022700051D100BF002000904448001F006840F08A
:1022800001004249091F08600846006800F001008B
:10229000009000BF00BF00BF002000903B481438F2
:1022A000006840F0010039491439086008460068A8
:1022B00000F00100009000BF00BF00BF00200090B0
:1022C0000846006840F0020008600846006800F018
:1022D0000200009000BF00BF112002900020039078
:1022E0000320049000224FF400412A48FFF715F81C
:1022F000002208212648FFF710F84FF40040019013
:1023000001A92448FEF700FF0820019001A92048F8
:10231000FEF7FAFE35E020492068884231D100BF3F
:10232000002000901948001F006840F00200174983
:10233000091F08600846006800F00200009000BF16
:1023400000BF00BF0020009010481438006840F023
:1023500002000E49143908600846006800F00200C7
:10236000009000BF00BF02200290012003900220D5
:10237000049005901020019001A90548FEF7C4FEC5
:1023800000BF06B010BD000000000140443802400C
:1023900000040240000002400004004070470000BA
:1023A00070B504460E4601223146206801F0D8FB84
:1023B0000F492068884203D00E492068884201D125
:1023C000012000E0002028B12068406C40F400406B
:1023D000216848642068806800F00705062D05D054
:1023E0002068006840F0010021680860002070BD8E
:1023F00000000140000401407047704770B504467A
:10240000002520684069C0F3C01594F839002128E0
:102410000ED16DB12068406920F0800021684861CC
:10242000206B10B1206BFEF7FDFB204601F080FD14
:1024300020684069C0F3801594F83A0022280ED134
:102440006DB12068406920F0400021684861606BF0
:1024500010B1606BFEF7E6FB204601F049FD00205D
:1024600070BD000008B5114A016891420CD100BF4F
:10247000002100910E490968096800910C4909681A
:102480004968009100BF10E00A4A016891420CD1EE
:1024900000BF0021009108490968096800910649B8
:1024A00009684968009100BF00BF08BD00500040A6
:1024B000D402002000140140140300202DE9F0474D
:1024C0000446206805682068C668206847694FF0A0
:1024D0000008C14605F00F08B8F1000F0AD105F059
:1024E000200038B106F0200020B1204601F02AFD7E
:1024F000BDE8F087B8F1000F6ED007F0010018B901
:1025000006F49070002867D005F0010030B106F4A1
:10251000807018B1E06B40F00100E06305F004004A
:1025200030B107F0010018B1E06B40F00200E06349
:1025300005F0020030B107F0010018B1E06B40F087
:102540000400E06305F0080030B107F0010018B1A5
:10255000E06B40F00800E063E06B70B305F0200032
:1025600028B106F0200010B1204601F0EBFC2068F5
:102570004069C0F38019E06B00F0080010B9B9F1B0
:10258000000F23D0204601F0B3FC2068406900F022
:102590004000402816D12068406920F040002168A2
:1025A0004861606B50B11748616B0865606BFEF75E
:1025B0008EFB10B1606B016D88470CE02046FFF781
:1025C00051FF08E02046FFF74DFF04E02046FFF7EB
:1025D00049FF0020E0638BE705F0800030B106F092
:1025E000800018B1204601F0B5FE81E705F04000FB
:1025F00030B106F0400018B1204601F089FC77E7C1
:1026000000BF75E7F53D000810B504460CB9012080
:1026100010BDA06900B100E000BF94F8390028B9EE
:10262000002084F83800204600F028F8242084F8A0
:1026300039002068C06820F400502168C860204636
:1026400001F0D4FC2068006920F490402168086102
:102650002068406920F02A00216848612068C0682D
:1026600040F400502168C8600020E063202084F816
:10267000390084F83A000020CAE7000010B586B09F
:102680000446142101A8FDF7D3FDFE4920688842C5
:1026900059D100BF00200090FB48006840F01000B6
:1026A000F94908600846006800F01000009000BF7B
:1026B00000BF00BF00200090F3481438006840F0CD
:1026C0000100F149143908600846006800F0010073
:1026D000009000BF00BF4FF4C06001900220029044
:1026E00001200390032004900720059001A9E748EA
:1026F000FEF70AFDE648E74908604FF000604860D1
:102700004021E44881600021C1604FF48061016193
:10271000002141618161C16101624162FEF70CFCEF
:1027200018B1BF21DCA0FEF727F900BFD94820630C
:10273000846300BF002211462520FEF7ACFE252051
:10274000FEF79CFEB6E2DC49206888427BD100BFE0
:1027500000200090CC48001F006840F40030CA49B7
:10276000091F08600846006800F40030009000BFB0
:1027700000BF00BF00200090C3481438006840F03C
:102780000100C149143908600846006800F00100E2
:10279000009000BF00BF0C20019002200290012099
:1027A0000390032004900720059001A9B748FEF785
:1027B000ABFCC248C24908604FF00060486000218D
:1027C000BF488160C1604FF48061016100214161B7
:1027D0008161C16101624162FEF7AEFB18B1E72180
:1027E000ADA0FEF7C9F800BFB5486063846300BFC1
:1027F000B2481830B34908604FF00060486040218B
:10280000B04881600021C1604FF480610161002106
:1028100041618161C16101624162FEF78DFB18B1C6
:10282000F9219DA0FEF7A8F800BFA64820638463A5
:1028300000BF002211462620FEF72DFE2620FEF7BF
:102840001DFE37E2FFE7A049206888427FD100BF24
:10285000002000908C48001F006840F480208A49C6
:10286000091F08600846006800F48020009000BF3F
:1028700000BF00BF0020009083481438006840F07B
:1028800002008149143908600846006800F002001F
:10289000009000BF00BF4FF4406001900220029002
:1028A00001200390032004900720059001A9874888
:1028B000FEF72AFC81486038854908604FF00060C7
:1028C0004860002182488160C1604FF480610161ED
:1028D000002141618161C16101624162FEF72CFB0F
:1028E00020B140F221116CA0FEF746F800BF7848F5
:1028F0006063846300BF71483038764908604FF0E8
:10290000006048604021734881600021C1604FF43D
:1029100080610161002141618161C16101624162A7
:10292000FEF70AFB20B140F233115BA0FEF724F85A
:1029300000BF68482063846300BF0022114627203F
:10294000FEF7A9FD2720FEF799FDB3E1FFE76249F5
:10295000206888425DD100BF002000904A48001FD7
:10296000006840F400204849091F086008460068D4
:1029700000F40020009000BF00BF00BF00200090C6
:1029800041481438006840F001003F49143908609C
:102990000846006800F00100009000BF00BF03205F
:1029A000019002200290012003900320049008204F
:1029B000059001A93548FEF7A7FB4048483847492C
:1029C000086040054860002144488160C1604FF4C0
:1029D000806101610021416181614FF48071C161B9
:1029E000002101624162FEF7A7FA20B140F25B11BB
:1029F00029A0FDF7C1FF00BF38486063846300BFB2
:102A0000002211463420FEF746FD3420FEF736FD45
:102A100050E13349206888427ED100BF00200090F9
:102A20001948001F006840F480101749091F08600A
:102A30000846006800F48010009000BF00BF00BF8F
:102A40000020009010481438006840F004000E493F
:102A5000143908600846006800F00400009000BFC8
:102A600000BF00BF002000900846006840F008004A
:102A700008600846006800F00800009000BF00BF32
:102A800088142FE00010014044380240000002404A
:102A9000B8640240540300202E2E5C436F64655CD2
:102AA000447269766572735C4253505C5372635C26
:102AB00075736172742E63000044004088600240A8
:102AC000B403002014040020004800400004024029
:102AD00074040020D4040020004C00403405002081
:102AE000005000400190122002900120039003202A
:102AF00004900820059001A96F48FEF705FB04200B
:102B000001901220029001200390032004900820DD
:102B1000059001A9694800E04DE0FEF7F5FA684824
:102B200068490860C0054860002166488160C1604E
:102B30004FF480610161002141618161C1610162E5
:102B40004162FEF7F9F928B140F28B11AFF2B800FB
:102B5000FDF712FF00BF5B486063846300BF584805
:102B6000A830594908604FF000604860402156483D
:102B700081600021C1604FF48061016100214161E9
:102B80008161C16101624162FEF7D6F928B14FF45B
:102B9000CE71AFF2FC00FDF7EFFE00BF4A482063A4
:102BA000846300BF002211463520FEF774FC3520F7
:102BB000FEF764FC7EE04549206888427AD100BF78
:102BC000002000904248006840F020004049086022
:102BD0000846006800F02000009000BF00BF00BF62
:102BE000002000903A481438006840F0040038494A
:102BF000143908600846006800F00400009000BF27
:102C000000BFC02001900220029001200390032009
:102C100004900820059001A92748FEF775FA2D4871
:102C20002D4908604FF02060486040212A488160AB
:102C30000021C1604FF48061016100214161816127
:102C4000C16101624162FEF777F928B140F2C31118
:102C5000AFF2BC10FDF790FE00BF1F4820638463F5
:102C600000BF1C4878381D49086080054860002175
:102C70001A488160C1604FF48061016100214161A7
:102C80008161C16101624162FEF756F928B14FF4DA
:102C9000EA71AFF2FC10FDF76FFE00BF0F486063F2
:102CA000846300BF012211464720FEF7F4FB472052
:102CB000FEF7E4FB06B010BD00080240000C024025
:102CC0001060024094050020F4050020001401402B
:102CD00044380240A064024054060020B40600209C
:102CE00077B581B00446154694F83A00202850D1B3
:102CF000029800B115B9012004B070BD00BF94F86E
:102D00003800012801D10220F6E7012084F83800BC
:102D100000BF0298A062A5850020E063222084F80D
:102D20003A001D48616BC8631C48616B08641C480D
:102D3000616BC8640020616B086502AE326823686D
:102D4000191D2B46606BFEF76DF900BF0020009047
:102D500020680068009020684068009000BF00BFB5
:102D600000BF002084F8380000BF2068C06840F42D
:102D700080702168C8602068406940F001002168C7
:102D800048612068406940F04000216848610020A7
:102D9000B2E70220B0E70000593E00089F3E00085D
:102DA000093E0008704770472DE9F84304460D4678
:102DB00016461F464FF0000994F8390020285CD1D0
:102DC00005B116B90120BDE8F88300BF94F83800BA
:102DD000012801D10220F6E7012084F8380000BF65
:102DE0000020E063212084F83900FEF79DFA814637
:102DF000A684E6842BE0E08C401EE084A068B0F559
:102E0000805F16D14B46002280212046009701F0BA
:102E1000D5FA08B10320D6E7A846B8F80000C0F3F9
:102E2000080021684860206908B9AD1C0FE06D1CDE
:102E30000DE04B46002280212046009701F0BEFAAB
:102E400008B10320BFE715F8010B21684860E08C4A
:102E50000028D0D14B46002240212046009701F0A7
:102E6000ADFA08B10320AEE7202084F8390000BF96
:102E7000002084F8380000BFA5E70220A3E7000087
:102E8000F7B50446154694F8390020283DD101983D
:102E900000B10DB90120FEBD00BF94F83800012833
:102EA00001D10220F7E7012084F8380000BF019823
:102EB0002062A584E5840020E063212084F83900A5
:102EC0001348216BC8631348216B08641248216BB7
:102ED000C8640020216B086501AE23681A1D3168A3
:102EE0002B46206BFEF79EF86FF0400021680860CB
:102EF00000BF002084F8380000BF2068406940F01F
:102F00008000216848610020C5E70220C3E7000077
:102F1000AD3E0008E33E0008093E000870477047D8
:102F200000BFFEE700B587B0142102A8FDF780F9C5
:102F300000BF002001901048006840F002000E49D8
:102F400008600846006800F00200019000BF00BF62
:102F5000012284210948FEF7E0F984200290112023
:102F60000390002004900320059002A90348FEF777
:102F7000CBF807B000BD000030380240000402402A
:102F800010B584210148FEF7BFF910BD00040240CE
:102F900008B500BF002000902248006840F40010EF
:102FA000204908600846006800F40010009000BF47
:102FB00000BF00BF002000900846006840F4800079
:102FC00008600846006800F48000009000BF00BF61
:102FD000002211460B20FEF75EFA0B20FEF74EFA98
:102FE000002211461120FEF756FA1120FEF746FA8C
:102FF000012211463920FEF74EFA3920FEF73EFA3B
:10300000022211464520FEF746FA4520FEF736FA21
:10301000002211464620FEF73EFA4620FEF72EFA21
:1030200008BD00003038024000B587B0142102A866
:10303000FDF7FEF800BF002001903048006840F026
:1030400001002E4908600846006800F00100019068
:1030500000BF00BF00BF002001900846006840F09C
:10306000020008600846006800F00200019000BFFE
:1030700000BF00BF002001900846006840F0040037
:1030800008600846006800F00400019000BF00BF1F
:1030900000BF002001900846006840F0080008606A
:1030A0000846006800F00800019000BF00BF00BFA4
:1030B000002001900846006840F080000860084643
:1030C000006800F08000019000BF00BF00222021B6
:1030D0000B48FEF722F9012210210948FEF71DF9DD
:1030E00030200290012003900020049003200590DE
:1030F00002A90348FEF708F807B000BD30380240C7
:103100000000024010B508480849086003204860E4
:10311000642106488160FEF70DF918B10E2104A064
:10312000FDF72AFC10BD0000003000409000002098
:103130002E2E5C436F64655C447269766572735CC5
:103140004253505C5372635C697764672E6300007E
:1031500000B587B000BF002000902D48006840F007
:1031600001002B4908600846006800F0010000904B
:1031700000BF00BF274828490860A72048600021F9
:103180002548816041F28731C160002101614161C0
:10319000FEF7B1FD4FF48050039003A91E48FEF7DF
:1031A0003CFE1D48FFF70EF818B127211BA0FDF7C4
:1031B000E3FB302001900020029001A91648FEF7A1
:1031C00054FD18B12E2115A0FDF7D6FB60201B4938
:1031D000086040F2DC504860002088600861486167
:1031E000886104220C48FEF769FF082213490A4847
:1031F000FEF764FF0848FEF7FFFF04210648FEF7CC
:103200005EFD08210448FEF75AFD07B000BD00002E
:1032100044380240000001409C0000202E2E5C43F8
:103220006F64655C447269766572735C4253505C8E
:103230005372635C74696D2E63000000B801002056
:1032400000B587B000BF002000902848006840F01B
:103250000100264908600846006800F0010000905F
:1032600000BF00BF08062249086000204860002116
:103270001F48816042F2CF01C160002101614161BC
:10328000FEF739FD4FF48050039003A91848FEF76C
:10329000C4FD1748FEF796FF18B1552115A0FDF79C
:1032A0006BFB302001900020029001A91048FEF72E
:1032B000DCFC18B15C210FA0FDF75EFB6020154916
:1032C00008600020486088600861486188610422C5
:1032D0000748FEF7F3FE08220E490548FEF7EEFE0A
:1032E0000348FEF789FF07B000BD000040380240E8
:1032F000DC0000202E2E5C436F64655C44726976AE
:103300006572735C4253505C5372635C74696D2EDA
:10331000630000009C01002000B587B0142102A8C2
:10332000FCF786FF00BF002001902148006840F0B4
:1033300002001F4908600846006800F00200019082
:1033400000BF00BF00BF002001901948103800687E
:1033500040F001001649103908600846006800F086
:103360000100019000BF00BF802002900220039066
:1033700000200490032005900220069002A90D4829
:10338000FDF7C2FE0C48006840F007000A490860DB
:103390000846006840F06000086007480838006888
:1033A00040F0010004490839086007B000BD000082
:1033B0004038024000000240080400401CB50020D4
:1033C0000090019011481249086053204860002184
:1033D0000F48816040F2E731C16080218161FEF7D2
:1033E0008AFC18B18D210BA0FDF7C6FA00200090D1
:1033F000019069460648FEF738FC18B1932105A0F4
:10340000FDF7BAFA0248FEF7F3FC1CBD00100040BD
:103410005C0100202E2E5C436F64655C447269760B
:103420006572735C4253505C5372635C74696D2EB9
:103430006300000010B51748174908601748486036
:10344000002115488160C16001610C2141610021AA
:103450008161C161FFF7D8F818B17B2110A0FDF799
:103460008BFA17480068006840F0010014490968A9
:10347000086009480068C06840F010000649096803
:10348000C86005480068C06820F02000024909684B
:10349000C86010BD00500040D4020020A08601008A
:1034A0002E2E5C436F64655C447269766572735C52
:1034B0004253505C5372635C75736172742E630087
:1034C0009405002010B50C480C4908604FF4E13019
:1034D0004860002109488160C16001610C2141619F
:1034E00000218161C161FFF78FF818B12F2104A07D
:1034F000FDF742FA10BD000000100140D401002089
:103500002E2E5C436F64655C447269766572735CF1
:103510004253505C5372635C75736172742E630026
:1035200010B50C480C4908604FF4E13048600021A8
:1035300009488160C16001610C2141610021816104
:10354000C161FFF761F818B1432104A0FDF714FA37
:1035500010BD000000440040140200202E2E5C43E9
:103560006F64655C447269766572735C4253505C4B
:103570005372635C75736172742E630010B51748E3
:103580001749086017484860002115488160C160EC
:1035900001610C21416100218161C161FFF734F8B3
:1035A00018B1922110A0FDF7E7F9174800680068EC
:1035B00040F0010014490968086009480068C068C3
:1035C00040F0100006490968C86005480068C068F6
:1035D00020F0200002490968C86010BD00140140B5
:1035E0001403002040420F002E2E5C436F64655C84
:1035F000447269766572735C4253505C5372635CCB
:1036000075736172742E6300B40600200C48006864
:10361000401C0B49086008464068401C486008464A
:103620008068401C88600846C068401CC860084626
:103630000069401C086108464069401C48617047A9
:103640002408002038B504462F49206888422BD131
:1036500020680068C0F30010002853D000BF00208D
:10366000009020680068009020684068009000BFCB
:1036700000BF26484069C0F1800025490860204607
:10368000FEF7BCFE802223492046FFF729FB204895
:103690000068122836D11F491F4801F0A9F91F49B7
:1036A0001D4801F06BF92DE01D492068884229D1A1
:1036B00020680068C0F3001020B300BF0020009015
:1036C00020680068009020684068009000BF00BF3C
:1036D0002046FEF793FE802212492046FFF700FBAA
:1036E000114A0B4801680F4801F07FFA50B90E48A3
:1036F0000078012806D10C4A917850780B4BD21CE7
:1037000001F056FC38BD000000500040006002404F
:103710002C000020140700201408002014000020B2
:10372000001401409407002050080020DC0800200D
:1037300000BFFEE710B5FFF70BFDFFF781FD40F27C
:10374000DC5000F0A1F840F2276000F0AFF810BDA7
:103750007047000002480068C0F302207047000074
:103760000CED00E010B5002807DA0A07140E054A30
:1037700000F00F031B1FD45403E00A07130E024A84
:10378000135410BD18ED00E000E400E000B585B072
:103790000220019000200290032003900120049059
:1037A000C003009069460248FDF7AEFC05B000BDBD
:1037B0000000024000B585B0112001900020029069
:1037C0000320039000224FF400410648FDF7A5FDB9
:1037D0004FF40040009069460248FDF795FC05B0A3
:1037E00000BD00000000024010B5044605484460DA
:1037F000002201460448FEF761FC00210248FEF762
:10380000CFFD10BD9C010020DC00002000B585B07C
:1038100002200190002002900320039001200490D8
:103820000820009069460248FDF76EFC05B000BD17
:103830000004024000B585B01120019000200290E4
:1038400003200390002208210548FDF766FD0820AB
:10385000009069460248FDF757FC05B000BD000026
:103860000004024010B504460548446004220146A5
:103870000448FEF723FC04210248FEF791FD10BD29
:103880009C010020DC00002010B50446054844607F
:10389000042201460448FEF711FC04210248FEF709
:1038A0000EFA10BDB80100209C00002010B504469F
:1038B00005484460082201460448FEF7FFFB082142
:1038C0000248FEF7FCF910BDB80100209C00002062
:1038D0007047704710B5FDF75DFDFEF7C0F910BDEC
:1038E00010B592B0302106A8FCF7A2FC142101A863
:1038F000FCF79EFC00BF002000903048006840F0BC
:1039000080502E4908600846006800F08050009002
:1039100000BF00BF00BF002000902948006840F4AD
:103920008040274908600846006800F48040009005
:1039300000BF00BF092006904FF48030079001209F
:103940000B9002200C9041050D9108210E914FF42F
:10395000A8710F91022110910421119106A8FDF781
:103960002BFF18B12F2117A0FDF706F80F200190AB
:1039700002200290002003904FF4A05004904FF4D6
:1039800080500590052101A8FDF7D8FD18B13C2114
:103990000CA0FCF7F1FFFDF791FE4FF47A71B0FB3C
:1039A000F1F42046FEF741F90420FEF729F9002240
:1039B0001146501EFDF76FFD12B010BD4038024099
:1039C000007000402E2E5C436F64655C4472697623
:1039D0006572735C4253505C5372635C636C6B2E14
:1039E000630000001448006840F470001249086049
:1039F0001248006840F001001049086000200F499B
:103A0000083108600D4800680D4908400B490860FE
:103A10000C48091D0860081F006820F48020091F59
:103A20000860002005490C3108604FF00060024931
:103A3000803908607047000088ED00E000380240DF
:103A4000FFFFF6FE1030002410B50248FEF76AFAB8
:103A500010BD0000DC00002010B50A4800680069B5
:103A600000F0010060B107480068C06800F0010084
:103A700030B16FF00100034909680861FFF7C6FD26
:103A800010BD00005C01002010B50268294B98426F
:103A90000ED0B0F1804F0BD0274B984208D0274B67
:103AA000984205D0264B984202D0264B984203D12B
:103AB00022F070024B681A431E4B984220D0B0F19E
:103AC000804F1DD01C4B98421AD01C4B984217D0E7
:103AD0001B4B984214D01B4B984211D01A4B984262
:103AE0000ED01A4B98420BD0194B984208D0194B64
:103AF000984205D0184B984202D0184B984203D1F7
:103B000022F44072CB681A4322F080034C6943EAE6
:103B1000040202608B68C3620B688362054B9842A3
:103B200002D0084B984201D10B6903630123436122
:103B300010BD0000000001400004004000080040EB
:103B4000000C0040000401400040014000440140DE
:103B50000048014000180040001C004000200040C8
:103B600030B501F01F05012404FA05F3046A9C43F3
:103B70000462046A01F01F0502FA05F52C43046291
:103B800030BD30B501F01F05042404FA05F3046AC2
:103B90009C430462046A01F01F0502FA05F52C43F8
:103BA000046230BD30B50C46816821F47F4142EAA1
:103BB000032525432943816030BD0A46816821F0F1
:103BC000700142F0070319438160704730B5056A00
:103BD00025F001050562026A4368846924F07004D7
:103BE00024F003040D682C4322F002028D682A435E
:103BF000104DA84200D103E00F4DA84206D100BFEE
:103C000022F00802CD682A4322F00402094DA8429E
:103C100002D0094DA84207D123F4807323F4007326
:103C20004D692B438D692B43436084614D68456327
:103C3000026230BD000001400004014030B5056A59
:103C400025F010050562026A4368846924F4E044A3
:103C500024F440740D6844EA052422F020028D68A3
:103C600042EA0512124DA84200D103E0114DA842CC
:103C700007D100BF22F08002CD6842EA051222F08F
:103C800040020B4DA84202D00A4DA84209D123F4AC
:103C9000806323F400634D6943EA85038D6943EA39
:103CA0008503436084614D688563026230BD000016
:103CB000000001400004014030B5056A25F480751C
:103CC0000562026A4368C46924F0700424F00304A6
:103CD0000D682C4322F400728D6842EA0522124DD1
:103CE000A84200D103E0114DA84207D100BF22F441
:103CF0000062CD6842EA052222F480620A4DA842A1
:103D000002D00A4DA84209D123F4805323F4005372
:103D10004D6943EA05138D6943EA05134360C461A5
:103D20004D68C563026230BD0000014000040140DF
:103D300030B5056A25F480550562036A4468C26996
:103D400022F4E04222F440720D6842EA052223F494
:103D500000538D6843EA0533084DA84202D0084D50
:103D6000A84204D124F480444D6944EA8514446097
:103D7000C2614D680564036230BD0000000001406F
:103D80000004014030B50B461446026A056A25F06E
:103D900001050562816921F0F00141EA041122F078
:103DA0000A021A438161026230BD30B50B461446E7
:103DB000056A25F0100505628169026A21F47041E7
:103DC00041EA043122F0A00242EA03128161026258
:103DD00030BD000010B50248FEF770FB10BD0000BA
:103DE0009402002010B50248FFF72CFC10BD000023
:103DF000D402002070B50546AC6B0020E085E0845D
:103E00002046FEF72FFB70BD70B506460025B46B4B
:103E100020684069C0F3C01594F83900212805D105
:103E200025B10020E084204600F082F82068406937
:103E3000C0F3801594F83A00222805D125B100205E
:103E4000E085204600F054F8E06B40F01000E0639D
:103E50002046FEF707FB70BD70B50546AC6B2868C1
:103E6000006800F48070B0B90020E0852068C06868
:103E700020F480702168C8602068406920F001004B
:103E8000216848612068406920F04000216848614D
:103E9000202084F83A002046FEF784FF70BD70B5FC
:103EA0000446A56B2846FEF77EFF70BD70B505463B
:103EB000AC6B2868006800F4807070B90020E08462
:103EC0002068406920F08000216848612068C0684F
:103ED00040F040002168C86002E02046FFF71EF86D
:103EE00070BD70B50446A56B2846FFF718F870BD85
:103EF0000168C96821F490710268D160016849695C
:103F000021F0010102685161202180F83A107047C8
:103F100010B504462068C06820F040002168C860E1
:103F2000202084F839002046FEF7F8FF002010BD5D
:103F30000168C96821F0C0010268D160202180F8C1
:103F40003910704770B5044694F83A0022284AD1D7
:103F5000A068B0F5805F13D1A56A206940B92068D8
:103F60004068C0F308002880A06A801CA06219E0A5
:103F700020684068C0B22880A06A401CA06211E09E
:103F8000206938B920684068C1B2A26A501CA0629A
:103F9000117007E02068406800F07F01A26A501CA1
:103FA000A0621170E08D401E80B2E085C8B9206823
:103FB000C06820F020002168C8602068C06820F434
:103FC00080702168C8602068406920F00100216885
:103FD0004861202084F83A002046FEF7E3FE0020E6
:103FE00070BD0020FCE70220FAE700002DE9F04157
:103FF00004462068006920F44050E16808432168C5
:1040000008612169A068084361690843E16940EAE1
:1040100001052068C06849F20C6188432843216883
:10402000C8602068406920F44070A1690843216895
:104030004861E069B0F5004F7ED1C44920688842EC
:1040400003D0C349206888425DD1FDF74DFB00EBEA
:10405000C00101EB001061684900B0FBF1F0642180
:10406000B0FBF1F00601FDF73FFB00EBC00101EBF7
:10407000001061684900B0FBF1F7FDF735FB00EB7C
:10408000C00101EB001061684900B0FBF1F0642150
:10409000B0FBF1F000EBC00101EB0010A7EB8000DA
:1040A000322101EBC0006421B0FBF1F000F0F80018
:1040B00006EB4006FDF718FB00EBC00101EB00101A
:1040C00061684900B0FBF1F7FDF70EFB00EBC001A2
:1040D00001EB001061684900B0FBF1F06421B0FB16
:1040E000F1F000EBC00101EB0010A7EB80003221E2
:1040F00001EBC0006421B0FBF1F000F00700304498
:104100002168886020E1FDF7DFFA00EBC00101EBD8
:10411000001061684900B0FBF1F06421B0FBF1F0E0
:104120000601FDF7D1FA00EBC00101EB0010616858
:104130004900B0FBF1F700E045E0FDF7C5FA00EB00
:10414000C00101EB001061684900B0FBF1F064218F
:10415000B0FBF1F000EBC00101EB0010A7EB800019
:10416000322101EBC0006421B0FBF1F000F0F80057
:1041700006EB4006FDF7A8FA00EBC00101EB0010CA
:1041800061684900B0FBF1F7FDF79EFA00EBC00152
:1041900001EB001061684900B0FBF1F06421B0FB55
:1041A000F1F000EBC00101EB0010A7EB8000322121
:1041B00001EBC0006421B0FBF1F000F007003044D7
:1041C00021688860C0E061492068884203D0604966
:1041D000206888425CD1FDF787FA00EBC00101EB53
:1041E000001061688900B0FBF1F6FDF77DFA00EB85
:1041F000C00101EB001061688900B0FBF1F064219F
:10420000B0FBF1F000EBC00101EB0010A6EB800069
:10421000322101EB00106421B0FBF1F000F0F00658
:10422000FDF762FA00EBC00101EB00106168890044
:10423000B0FBF1F06421B0FBF1F006EB0016FDF7E6
:1042400053FA00EBC00101EB001061688900B0FB7C
:10425000F1F7FDF749FA00EBC00101EB00106168CE
:104260008900B0FBF1F06421B0FBF1F000EBC0017C
:1042700001EB0010A7EB8000322101EB001064215C
:10428000B0FBF1F000F00F003044216888605BE083
:10429000FDF71AFA00EBC00101EB0010616889001C
:1042A000B0FBF1F6FDF710FA00EBC00101EB0010D6
:1042B00061688900B0FBF1F06421B0FBF1F000EB24
:1042C000C00101EB0010A6EB8000322101EB0010D1
:1042D0006421B0FBF1F000F0F006FDF7F5F900EB1A
:1042E000C00101EB001061688900B0FBF1F06421AE
:1042F000B0FBF1F006EB0016FDF7E6F900EBC001AC
:1043000001EB001061688900B0FBF1F7FDF7DCF903
:1043100000EBC00101EB001061688900B0FBF1F017
:104320006421B0FBF1F000EBC00101EB0010A7EB42
:104330008000322101EB00106421B0FBF1F000F0AD
:104340000F00304421688860BDE8F0810010014012
:1043500000140140014691F8390021282CD18868C9
:10436000B0F5805F0FD10A6A1088C0F308000B68AF
:104370005860086918B9086A801C086209E0086A70
:10438000401C086205E00B6A581C086218780B682C
:104390005860C88C401E80B2C88458B90868C0688C
:1043A00020F080000B68D8600868C06840F04000CA
:1043B0000B68D860002070470220FCE72DE9F0412F
:1043C00004460D4617469846069E21E0701CF8B13B
:1043D0002EB1FCF7A9FFA0EB0800B04218D9206865
:1043E000C06820F4D0702168C8602068406920F05F
:1043F000010021684861202084F8390084F83A00DF
:1044000000BF002084F8380000BF0320BDE8F08121
:10441000206800682840A84201D1012000E0002067
:10442000B842D3D00020F1E710B50248FEF746F8B5
:1044300010BD0000D401002010B50248FEF73EF880
:1044400010BD00001402002010B50248FEF736F837
:1044500010BD00005402002010B50248FFF7F2F82A
:1044600010BD00001403002000BFFEE70FB4054B91
:1044700010B503A9044A029800F022F810BC5DF8B8
:1044800014FB0000754A00083C0000202DED020BD3
:10449000019820F0004001909DED000B02B07047A4
:1044A00002E008C8121F08C1002AFAD170477047FD
:1044B000002001E001C1121F002AFBD1704700005B
:1044C0002DE9FF4F8BB09A460F460546002606E0C1
:1044D00025280BD052460D9990476D1C761C2878E4
:1044E0000028F5D10FB03046BDE8F08F0024A0467B
:1044F0000122604900E0044315F8013F203B02FA25
:1045000003F00842F7D128782E2817D115F8010FAB
:1045100044F004042A280ED06FF02F022878A0F16E
:10452000300109290AD808EB880102EB410100EBB0
:1045300001086D1CF2E757F8048B6D1C2878692878
:104540003ED006DC0028CDD063280BD0642804D1EF
:1045500036E0732810D075284BD052460D999047FD
:10456000761C85E017F8040B8DF8000000208DF80C
:104570000100E946012003E057F8049B4FF0FF30AB
:1045800061074FF0000401D40AE0641C44450DDAD1
:104590008442FADB19F804100029F6D106E0641C05
:1045A0008442FCDB19F804100029F8D1264404E009
:1045B00019F8010B52460D999047641EF8D257E046
:1045C00001CF4FF00A0B002802DA40422D2102E011
:1045D000210504D52B218DF82410012103E0E107EA
:1045E00005D02021F7E70DF1200908910CE000210A
:1045F000F9E701CF4FF00A0BF9E75946FBF760FFE7
:1046000001F1300209F8012D0028F6D1ADEB0900C7
:1046100000F1200B600701D44FF00108D84502DDFE
:10462000A8EB0B0000E000208046002406E009A86B
:104630005246005D0D999047641C761C0898844290
:10464000F5DB04E0302052460D999047761CB8F116
:104650000001A8F10108F5DC05E019F8010B52464C
:104660000D999047761CBBF10001ABF1010BF4DC16
:104670006D1C34E70928010010B5FEF781FC10BD60
:1046800008B50C48008800B20B4908800B48008828
:1046900048800A484088888009480A4B03220090D5
:1046A0000120FBF7B1FF0648028806490648FEF7DD
:1046B000E7FB08BD1C0000201C0A0020240000208D
:1046C000340000209C0900201402002070470000E4
:1046D00010B50748C06807490968884206D90448E8
:1046E000C068044908600448FCF74CFE10BD000097
:1046F00014080020380000209000002000B52DEDA7
:10470000068B81B08B48FCF7C5F88A48008800B258
:10471000894948808748406848608848884B062215
:1047200002210090844800F029FA8448008882B26F
:1047300041F2883382498348FEF736FB824800788D
:1047400006287BD2DFE800F00308418A7B82002044
:104750007E4948808880DDE07B49B1F90200FBF7A3
:1047600053FE41EC1A0B9FED7A0B53EC102BFBF729
:10477000DCFD41EC190B9FED780B53EC102BFBF794
:1047800062FD41EC180BFBF750FE00B26F49488008
:104790006D49B1F90400FBF737FE41EC1A0B9FEDB0
:1047A0006C0B53EC102BFBF7C0FD41EC190B9FED8C
:1047B0006C0B53EC102BFBF746FD41EC180BFBF791
:1047C00034FE00B261498880A4E05F49B1F902007B
:1047D000FBF71AFE41EC1A0B9FED5D0B53EC102B0F
:1047E000FBF7A3FD41EC190B9FED5F0B53EC102B76
:1047F000FBF729FD41EC180BFBF717FE00B25349FC
:1048000048805149B1F90400FBF7FEFD41EC1A0B59
:104810009FED4F0B53EC102BFBF787FD41EC190B71
:104820009FED4F0B53EC102BFBF70DFD41EC180BDC
:10483000FBF7FBFD00B2454988806BE069E0002092
:10484000424948803C48C089888063E03A48808A71
:104850003E4908803848C08988803FE03A48B0F92E
:10486000020000EE100AB8EEC00A10EE101A084658
:10487000FBF7FAFD41EC1A0B9FED350B53EC102BB7
:10488000FBF753FD41EC190B9FED390B53EC102B4B
:10489000FBF7D9FC41EC180BFBF7C7FD00B22B4925
:1048A00008802949B1F90400FBF7AEFD41EC1A0B71
:1048B0009FED270B53EC102BFBF737FD41EC190B49
:1048C0009FED270B53EC102BFBF7BDFC41EC180BB5
:1048D000FBF7ABFD00B21D49888000BF154890ED85
:1048E000001AB8EEC11AF0EE410A1848B0F90000FB
:1048F00001EE100AB8EEC11AB0EE410A1E4800F0EF
:104900007DFABDEEC00A10EE100A00B20F494880D1
:1049100000E000BF00BF0D49B1F9020000F0E0F96E
:104920000A49B1F9040000F051FA01B0BDEC068B60
:1049300000BD00001C000020DC080020300000202A
:104940001C09002014030020140000202400002073
:104950000000000000A08440000000000040BF40B4
:104960000000000000407F40000000000040AF4019
:104970000000000000408F40F4080020027A012A65
:1049800004D0022A2AD0032A2BD113E0427A012A2A
:1049900004D0022A08D0032A09D102E001220A70B9
:1049A00006E002220A7003E003220A7000E000BF62
:1049B00000BF17E0427A012A04D0022A08D0032A55
:1049C00009D102E004220A7006E005220A7003E021
:1049D00005220A7000E000BF00BF03E000220A7059
:1049E00000E000BF00BF42884A8082888A8070470A
:1049F0000A784B7842EA0322C2F30A0202804A781C
:104A0000D2108B7842EA4312C2F30A0242808A78BB
:104A10009211CB7842EA83020B7942EA8322C2F3F5
:104A20000A0282800A7952104B7942EAC312C2F319
:104A30000A02C2804A791211920802724A79C2F3BC
:104A4000011242720288A2F5806212B2028042888C
:104A5000A2F5806212B242808288A2F5806212B210
:104A60008280C288A2F5806212B2C280C268521CE3
:104A7000C260704713B50C464FF6FF7301226946BA
:104A80000248FEF791F900981CBD000014020020B6
:104A9000FCF78CFCFEF724FF324800F04FFAFEF7DB
:104AA00041FAFEF7C1FAFEF773FAFEF72BFBFEF7A9
:104AB00009FDFEF735FDFEF7BDFCFEF75FFDFEF7D5
:104AC0007DFCFEF737FEFBF7D0FE80222649274803
:104AD000FEF706F9802226492648FEF701F940E054
:104AE00025484068022808D300202349486008462A
:104AF0008069401C8861FFF7E9FD1F488068052830
:104B000008D300201C4988600846C069401CC86161
:104B1000FFF7F4FD1848C0680A2808D3002016499A
:104B2000C8600846006A401C0862FFF7A9FD1248E9
:104B30000069322808D300200F4908610846406AFE
:104B4000401C4862FFF7C4FD0B484069642808D345
:104B50000020094948610846806A401C8862FFF7C6
:104B60008BFDBDE7F408002014070020D4020020CC
:104B7000940700201403002024080020F0B5044608
:104B8000059D2646012A2FDB8F18162F2CDC02F1FB
:104B900008072F60AA271F705F709F70DF700327C0
:104BA0001F7159719A71002006E00F1816F807C09E
:104BB000C71D03F807C0401C571E8742F5DA4FF0A7
:104BC000000CD71D03F807C000200AE0D71DDF5DE9
:104BD00013F800C087EA0C0702F1070C03F80C7009
:104BE000401C971D8742F1DAF0BD70B503460C46B4
:104BF00000251878AA2808D15878AA2805D19878CD
:104C0000AA2802D1D878AA2807D0D2F88800401C58
:104C1000C2F888004FF0FF3070BD187901280DD020
:104C2000187902280AD01879032807D0D2F888000A
:104C3000401CC2F888006FF00100EDE758799E79BA
:104C40003044162807DDD2F88800401CC2F88800DE
:104C50006FF00200E0E798790830A04207D0D2F860
:104C60008800401CC2F888006FF00300D4E70025DC
:104C7000002102E0585C4540491CA01E8842F9D240
:104C8000601E185CA84207D0D2F88800401CC2F809
:104C900088006FF00400BFE71879107058795070E1
:104CA00098799070002104E0C81D1E5CD01C465409
:104CB000491C9078401E8842F6DAD2F88400401CE5
:104CC000C2F884000020A7E708B5002000900090FB
:104CD00002E00098401C009000983228F9DD08BDE1
:104CE00010B50446604204B2B4F5FA5F02DD4FF439
:104CF000FA5403E014F5FA5F00DA324C54B900209C
:104D0000FEF772FD0020FEF7ADFDFEF753FDFEF746
:104D100091FD54E0002C28DD2B48008850B900207C
:104D2000FEF7A0FDFEF786FDFEF730FD2046FEF7FC
:104D30005BFD44E02448B0F90000002803DD204674
:104D4000FEF752FD3BE02048B0F90000002836DABB
:104D50000020FEF787FDFEF76DFDFFF7B5FFFEF7BC
:104D600015FD2046FEF740FD29E0002C27DA164805
:104D7000008850B90020FEF737FDFEF71BFDFEF757
:104D800045FD6042FEF76EFD19E00F48B0F90000E6
:104D900000280CDD0020FEF727FDFEF70BFDFFF7D6
:104DA00093FFFEF733FD6042FEF75CFD07E0064827
:104DB000B0F90000002802DA6042FEF753FD024815
:104DC000048010BDC0E0FFFF1000002010B50446B5
:104DD000B4F5FA7F02DD4FF4FA7403E014F5FA7FBC
:104DE00000DA054CA4F14B0004B240F2DC51081B80
:104DF000FEF75CFD10BD00000CFEFFFF10B52DEDB1
:104E00000A8B0446B0EE409AF0EE609A9FED440A99
:104E1000B0EE408A39EE690AF0EE408A94ED070A56
:104E200030EE280A84ED070A2078C0F3400068B30A
:104E300094ED040A10EE101A0846FBF715FB41EC3E
:104E40001A0B94ED070A10EE101A0846FBF70CFB3C
:104E500041EC1C0BB0EE4C0AF0EE6C0AFFF716FBAF
:104E6000B0EE40BAF0EE60BA53EC1A2B51EC1B0BCB
:104E7000FBF70EFB11D294ED070AB5EEC00AF1EE76
:104E800010FA04DD94ED040A84ED070A05E094EDC0
:104E9000040AB1EE400A84ED070A94ED020AD4ED4B
:104EA000070A20EE200AD4ED010A00EEA80AD4ED8C
:104EB000030A94ED081A38EEC11A00EE810AB0EE2A
:104EC000408A2078C0F3800050B194ED050AB4EE1A
:104ED000C80AF1EE10FA03D294ED050AB0EE408A4A
:104EE0002078C0F3C00050B194ED060AB4EEC80AB1
:104EF000F1EE10FA03DD94ED060AB0EE408AC4ED3F
:104F0000088A207800F0010030B184ED098AB0EE03
:104F1000480ABDEC0A8B10BD9FED010AF9E70000BD
:104F2000000000009FED040A80ED070A9FED020AD1
:104F300080ED080A704700000000000010B504462C
:104F40002046FFF7EFFF206820F00100401C2060A2
:104F5000206820F00200801C2060206820F00400FF
:104F6000001D2060206820F0080008302060B3EEAB
:104F70000E0A84ED010AB1EE000A84ED020A9FEDEB
:104F8000080A84ED030A9FED070A84ED040A9FEDE9
:104F9000060A84ED050A9FED050A84ED060A10BD98
:104FA0000000000000007A440000FA450000FAC545
:104FB000F0B504461D4601290BDB6618162E08DCE9
:104FC000002003E0165C2718EE55401C4E1E86425A
:104FD000F8DAF0BD000610160006101600000000FA
:104FE0000000000001020304060708090000000099
:104FF00001020304145000080000002040000000DB
:10500000A04400085450000840000020F00D0000AB
:10501000B044000800000000100000000100000083
:105020000024F40000000000000000000000000068
:105030000000000000000000000000000000000070
:105040000000000000000000000000000000000060
:04505000000000005C
:040000050800018965
:00000001FF
