:020000040800F2
:10000000A041002049020008A52F00081D2D00086E
:10001000A12F00085B140008093B00080000000045
:100020000000000000000000000000005B0200086B
:100030005F140008000000005F020008A72F0008FE
:1000400063020008630200086302000863020008FC
:1000500063020008630200086302000863020008EC
:1000600063020008630200086302000863020008DC
:1000700063020008630200086302000863020008CC
:1000800063020008630200086302000863020008BC
:1000900063020008630200086302000863020008AC
:1000A000630200086302000863020008630200089C
:1000B000630200086302000863020008630200088C
:1000C000630200086302000863020008630200087C
:1000D00063020008F93A000863020008630200089E
:1000E000630200086302000863020008630200085C
:1000F0006302000863020008C930000863020008B8
:10010000630200086302000863020008630200083B
:10011000630200086302000863020008630200082B
:10012000630200086302000863020008630200081B
:10013000630200086302000863020008630200080B
:1001400063020008630200086302000863020008FB
:1001500063020008630200086302000863020008EB
:1001600063020008630200086302000863020008DB
:100170006302000863020008630200080000000038
:10018000630200086302000800F002F800F04CF877
:100190000AA090E8000C82448344AAF10107DA45E2
:1001A00001D100F041F8AFF2090EBAE80F0013F0E8
:1001B000010F18BFFB1A43F0010318478C400000E1
:1001C000AC400000103A24BF78C878C1FAD8520772
:1001D00024BF30C830C144BF04680C6070470000C1
:1001E0000023002400250026103A28BF78C1FBD840
:1001F000520728BF30C148BF0B607047662903F023
:10020000CB87642900F00081002070471FB503F000
:10021000BEFF00F0E5FB04000020002103F05EFEBD
:10022000E0601FBD10B510BD00F0DAFC1146FFF70D
:10023000EDFF03F09FFC00F0F8FC03B4FFF7F2FFC2
:1002400003BC00F03BFD0000094880470948004717
:10025000FEE7FEE7FEE7FEE7FEE7FEE7FEE7FEE776
:10026000FEE7FEE704480549054A064B70470000D3
:100270006530000889010008A0010020A04100208D
:10028000A0210020A021002053EA020C00F0698088
:100290002DE9F04B4FF00006002B1FBFB3FA83F59A
:1002A00003FA05F424FA05F65E4012BF1643B2FACB
:1002B00082F502FA05F4C5F120051EBF22FA05FCFD
:1002C00044EA0C04203556EA044C4FEA144418BFA3
:1002D000641C4FF000084FF00009904271EB030CD2
:1002E00039D3002919BFB1FA81F701FA07F6B0FA3C
:1002F00080F700FA07F6C7F120071EBF20FA07FCB7
:1003000046EA0C062037B6FBF4FCA7EB0507103FC6
:1003100007F01F0BCBF120060CFA0BFB2CFA06F6AC
:1003200044BFB3460026202FA4BF5E464FF0000B0B
:100330005BEA060C08BF4FF0010B19EB0B09ABFB96
:10034000027C48EB0608C01B06FB02CC0BFB03CC6F
:1003500071EB0C01C1E70B46024641464846BDE839
:10036000F08B13B54FF000004FF00001AFF30080A9
:10037000BDE81C40704700000FB41CB5074B06AA2F
:100380007B4469460090059800F011FB0020694607
:1003900000F020FB1CBC5DF814FB000051060000BF
:1003A0002DE9F0410E460446002020622046E16817
:1003B000884730B3252805D0D4E901219047206A29
:1003C000401CF2E7E168204600278847050018D066
:1003D000A5F14100192802D820354FF400673246B4
:1003E000294620462760FFF709FF40B1012804D0C5
:1003F000F61D26F007060836D8E7361DD6E728464C
:10040000DAE7206ABDE8F0812DE9F04106460024D4
:1004100010687529314616A510D0AFF3008000286A
:1004200002DA404213A507E031688A0701D512A518
:1004300002E0490704D511A5012401E0AFF30080D3
:1004400000210A2206F1240709E0B0FBF2FCB0FB10
:10045000F2F302FB1C00303078541846491C002887
:10046000F3D123462A463046BDE8F04100F032B8C9
:10047000000000002D0000002B0000002000000004
:100480004FF0000200B5134694469646203922BF2D
:10049000A0E80C50A0E80C50B1F12001BFF4F7AF78
:1004A000090728BFA0E80C5048BF0CC05DF804EB5A
:1004B000890028BF40F8042B08BF704748BF20F8C8
:1004C000022B11F0804F18BF00F8012B70477047C6
:1004D000704770472DE9F0470D469946924604460D
:1004E00000F124080168880604D5E06921F01001B4
:1004F000216000E00120A84201DD471B00E0002749
:10050000A1697A1902EB0900081AA0612078C006D7
:1005100002D42046AFF30080002608E0D4E9012190
:100520001AF806009047206A401C761C20624E454F
:10053000F4DB2078C0060AD52046AFF3008006E041
:10054000D4E9012130209047206A401C2062381EE7
:10055000A7F10107F4DC07E0D4E9012118F8050050
:100560009047206A401C2062281EA5F10105F3DC9B
:100570002046AFF300802078000602D50220BDE8B7
:10058000F0870120FBE770472DE9FF4F0C461E4620
:100590004FF0FF378BB0D2E90001DDF860800A90A0
:1005A0008A46C1F30A5505B93D46002108464FF079
:1005B0000000BAF1000F00F4400005DA00EB800003
:1005C0004FF4400101EA50004FEA9059B9F1010F90
:1005D00000DDB9460A9850EA4A000ED044F61050A1
:1005E000A5F2FF3545432F14B8F1000F1ED0754218
:1005F000291E1EDDC9F100021CE0B8F1010F4FF009
:10060000000001D0302103E0F24305E02154401CFA
:10061000B042FBDB30460022002121540B99C1F887
:100620000880C1E900200FB0BDE8F08FBD1B6D1C34
:10063000DEE74A4600DA694206A800F05BFA06AB3C
:1006400093E8070003AB83E8070050460A9900F0DF
:100650003CFB8DE80700A0F500501F380090039880
:10066000002D0ADD42F21F014A460844002303A977
:100670000390684600F0A5FD09E0A0F500504A4649
:100680001F38002303A90390684600F0AFFD8DE8F2
:1006900007000004000C03D04FF0FF30410800E0D9
:1006A0001046B8F1000F03D00022009215461EE05C
:1006B000751E05D400F098F9303262556D1EF9D5DB
:1006C000B3460122084302D000227F1C04E02078B8
:1006D000302801D100227F1E002A099784D01DE016
:1006E000112D07DA00F080F9303262556D1C50EAA6
:1006F0000102F5D1084302D00098C8B10EE00021F4
:10070000681E05E0235C625C63542254401E491C51
:100710008142F7DBAB46A81B401E0990002004F87D
:100720000B000B98099AC0F80880C0E9002B7AE703
:1007300011264FF0000857E72DE9F04F8846044690
:10074000D21D22F0070191B0D1E90001CDE90A01E3
:1007500003F0DCF902460B98C00F01D02D2007E012
:100760002068810701D52B2002E0202101EAC0008A
:10077000032A099001D0072A05DB0346414620469B
:1007800000F078F90BE12078800601D5E06900E0FF
:100790000620B8F1650F814606D0B8F1660F18D073
:1007A000B8F1670F70D131E00020B9F1110F00905E
:1007B00001DB112301E009F101030AAA01A90CA838
:1007C000FFF7E2FEDDE90C70002609F10105834622
:1007D00047E001204B4600904FF000470AAA01A9CC
:1007E0000CA8FFF7D1FEDDE90DB00C995D4600269F
:1007F00010B909F101000D18B9EB050003D4C0F1DF
:10080000FF3609F10105A5EB09002BE0B9F1010F55
:1008100001DA4FF001090020B9F1110F00904846AC
:1008200001DD112300E003460AAA01A90CA8FFF785
:10083000ABFEDDE90C704D460026834620780007AC
:100840000AD4AB4500DA5D4601A8012D04DD41194B
:1008500011F8011C302907D04F4502DA17F1040FB7
:1008600004DA012082460FE06D1EEEE7002F02DC65
:10087000ED1B3E4403E0781CA84200DD7D1CB81B44
:1008800000F1010A4FF000472078000703D4AA4581
:1008900001DB4FF0FF3A0021B7F1004F0DF14308A3
:1008A0008DF8431024D002202B23002F01DA7F4241
:1008B0002D230A21021EA0F1010000DC5FB197FB8D
:1008C000F1FC97FBF1F201FB1C7C17460CF1300C9C
:1008D00008F801CDEEE7A8F10100037021880905B1
:1008E00001D5452100E06521A0F1010800F8011CB7
:1008F00009980FA9A1EB0807FF1D00B101204119BC
:1009000001EBEA70A1693844081A401EA061207802
:10091000C00602D42046AFF30080099828B1D4E97C
:1009200001219047206A401C20622078C00622D511
:100930002046AFF300801EE0002E04DBB34502DD4D
:1009400001A8805D00E03020D4E901219047206AB1
:10095000401C2062761CAAF101005FEA000A0AD15D
:1009600000F03EF8C0680168405CD4E9012190477E
:10097000206A401C2062281EA5F10105DCDC07E08E
:10098000D4E9012118F8010B9047206A401C20622D
:10099000381EA7F10107F3DC2046AFF300800320E7
:1009A00011B041E601694A1C02610878704700B540
:1009B0008FB0CDE901310021059105497944CDE998
:1009C000031011466846FFF7EBFC0FB000BD0000B6
:1009D000E5FFFFFF0A6802F8010B0A60704700009C
:1009E000004870475C01002030B5B0F10A024FEAC0
:1009F000900E71F100034EEA817EB0EB0E0061EBC8
:100A000091014FEA101E4EEA017E10EB0E0041EB01
:100A100011114FEA102E4EEA016E10EB0E0041EB61
:100A200011214FEA104E4EEA014E10EB0E0041EB41
:100A30001141401841F100014FEAD00040EA4170F5
:100A40004FEAD10110EB80054FEA810444EA90742B
:100A500044EB01046D1944EB0404521BA3414FF015
:100A6000000348BF0A3200D530BD401C41F10001EF
:100A700030BD00002DE9F0411F4604460326016801
:100A8000072A01F4006004DB08B116A505E016A5ED
:100A900003E008B115A500E015A521F010002060C5
:100AA000A069C01EA0610FB1401EA0612046AFF337
:100AB00000804FB1D4E9012138469047206A401C9C
:100AC0002062C01C206206E0206AFAE7D4E9012116
:100AD00015F8010B9047761EF8D22046AFF3008040
:100AE000BDE8F0814E414E006E616E00494E4600F9
:100AF000696E66002DE9F047814616468AB0354892
:100B000078440DC88DE80D0032487844801C03AC51
:100B10000DC884E80D0041F69B300844372190FB56
:100B2000F1F290FBF1F5A5F1800501FB12041B3CED
:100B300002D56442012000E00020DFF898A0804642
:100B40000027FA44AAF1BE0A0EE0E0070AD03246B6
:100B5000684607EB470101230AEB810100F046FBE1
:100B60008DE8070064107F1C002CEED1194F7F44E4
:100B7000AE3F19E0E80715D007EB04100DF1180A95
:100B800090E80E008AE80E00C068F04201D1981982
:100B900008903246012306A903A800F027FB03AB07
:100BA00083E807006D10641C002DE3D14FF00103B2
:100BB00032466946B8F1000F03A802D000F001FBED
:100BC00001E000F013FBC9E90001C9F808200AB0F0
:100BD000BDE8F0872C370000004870473C0100203A
:100BE0007546FFF7F9FFAE4605006946534620F00B
:100BF0000700854618B020B5FFF734FBBDE820405C
:100C00004FF000064FF000074FF000084FF0000BC8
:100C100021F00701AC46ACE8C009ACE8C009ACE87B
:100C2000C009ACE8C0098D46704710B50446AFF363
:100C300000802046BDE81040FFF7FFBA4FF0013CAE
:100C400050F8042B51F8043B9A4221D1A2EB0C033B
:100C5000934313EACC1317D150F8042B51F8043BFB
:100C60009A4215D1A2EB0C03934313EACC130BD198
:100C700050F8042B51F8043B9A4209D1A2EB0C0323
:100C8000934313EACC13DBD04FF00000704700BF52
:100C9000D01A01BAB1FA81F101F0180122FA01F07B
:100CA000CB40C1F12001DBB2C0B2C01A2CFA01F373
:100CB000D11A914311EAC311E6D1704701491820B6
:100CC000ABBEFEE72600020070475FEA400C08BF9B
:100CD00091F0000F4FEA8C234FEAC12243EA5151B1
:100CE0004FEA1C5018BF00F5F0404FEA300018BF23
:100CF00041F000415FEA6C5C00F02980BCF1FF3FED
:100D000008BF40F080407047130C06BF12044FF03C
:100D1000100C4FF0000C130E04BF12020CF1080C63
:100D2000130F04BF12010CF1040C930F04BF9200C7
:100D30000CF1020CD30F04BF52000CF1010C114650
:100D40004FF00002A0F11F00A0EB0C00704711F063
:100D5000004F08BF704731F000413FF4D5AF0B0C96
:100D600006BF09044FF0100C4FF0000C0B0E04BF2F
:100D700009020CF1080C0B0F04BF09010CF1040C63
:100D80008B0F04BF89000CF1020CCB0F04BF49008C
:100D90000CF1010CCCF12003A0EB0C0022FA03F3C0
:100DA00002FA0CF241EA030100F10100704720F061
:100DB0007F4C80EA030023F07F47ACEB070303F589
:100DC0007C5300F0004003F1FF032DE980494FEA16
:100DD000154B09B44FEA144325EA0B4E24EA0348A5
:100DE0000FF2042606EB132749083E785FEA320229
:100DF00003FB0667C7F5000707FB06F64FEA543703
:100E00004FEAD64606F1020607FB066CCCF1005C01
:100E10004FEA1C472CEA074C07FB06F40CFB06F5CF
:100E200004EB15464FEA961634BF00204FF0004001
:100E30004FEAD13706FB07FC4FEA1C4C0CFB0BF7C3
:100E4000D21B03FB0CF761EB07010CFB0EF7B0EBB9
:100E5000074072EB17420CFB08F734BFA2EB0742C6
:100E6000B2EB074261EB17414FEA0C444FEA91079E
:100E700006FB07FC4FEA1C4C0CFB0BF7B0EBC74022
:100E800072EB573203FB0CF734BFA2EBC742B2EB55
:100E9000C74261EB57310CFB0EF7B0EBC70072EBAA
:100EA00057720CFB08F734BFA2EBC702B2EBC702C4
:100EB00061EB5771039F4FEA816141EA921104EBA4
:100EC000CC044FEAD1374FEA826206FB07FC42EAC4
:100ED00090124FEA80604FEA1C4C0CFB0BF7D21BC0
:100EE00003FB0CF761EB07010CFB0EF7B0EB0740BF
:100EF00072EB17420CFB08F734BFA2EB0742B2EBD0
:100F0000074261EB17414FEA8C554FEA910704EB1A
:100F10009C2406FB07FC4FEA1C4C0CFB0BF7B0EBC8
:100F2000C74072EB573203FB0CF734BFA2EBC7424A
:100F3000B2EBC74261EB57310CFB0EF7B0EBC700C9
:100F400072EB57720CFB08F734BFA2EBC702B2EB8F
:100F5000C70261EB577115EB4C254FEA816141EAFD
:100F600092114FEA82624FEAD13742EA901206FBB1
:100F700007FC44F100044FEA80604FEA1C4C0CFB74
:100F80000BF7D21B03FB0CF761EB07010CFB0EF711
:100F9000B0EB074072EB17420CFB08F734BFA2EB33
:100FA0000742B2EB074261EB174115EB1C154FEA04
:100FB000813141EA92414FEA823242EA90424FEA5D
:100FC00080304FEA0C7644F1000448EA03434EEACD
:100FD0000B484FF0000EB2EB080C71EB030724BF77
:100FE000624639464EEB0E0E4FF0000B0018524190
:100FF00049414BEB0B0BB2EB080C71EB03077BF198
:10100000000B24BF624639464EEB0E0E4FF0000B2C
:101010000018524149414BEB0B0BB2EB080C71EB42
:1010200003077BF1000B24BF624639464EEB0E0EE0
:1010300051EA020718BF46F0010616EB0E7655F18D
:10104000000254F1000103D5BDE88901BDE8008824
:10105000BDE88901BDE80048B619524141EB0101E4
:10106000A3F10103704780807F7E7D7C7B7A797855
:10107000777676757473727171706F6E6E6D6C6C5D
:101080006B6A6A69686867666665646463636261FF
:101090006160605F5F5E5E5D5D5C5C5B5B5A5A5980
:1010A00059585857575656555555545453535252EC
:1010B0005251515050504F4F4F4E4E4D4D4D4C4C44
:1010C0004C4B4B4B4A4A4A4949494848484747478D
:1010D00047464646454545444444444343434342CA
:1010E000424242414141002B9C4630D477002BD0F4
:1010F0001CB54FEA370703B44FF010004FF0100152
:10110000BAF1000F06D0BCF1000FDCBF40F00800C0
:1011100040F008014FF000000FBCBDE810400BF19B
:10112000010BBBF1010F08BF5FEA170722BF12F1E5
:10113000010211F101014FF0004143F1000300F001
:10114000004043EA00007047F9D35708D0E746EA69
:10115000064613F1400F4FEA16461FDD13F1200F2C
:10116000DFBF16430A46002120335B42BED0C3F1E5
:10117000200746EA064602FA07F74FEA164646EA0D
:101180000706C3F1200722FA03F201FA07F721FA52
:1011900003F14FF0000342EA0702A7E746EA02061E
:1011A00046EA06464FEA164646EA0106BCBF46EA4C
:1011B0000646360C4FF000034FF000024FF00001DE
:1011C00094E72DE9804C9A46934670B491E8380034
:1011D00007C831EA400C48BF34EA430C03D5FFF797
:1011E000E6FDFFF780FFF0BCBDE8008C2DE9804CE8
:1011F0009A46934670B491E8380007C810F0804FC3
:1012000008BF13F0804F03D100F005F8FFF76BFF24
:10121000F0BCBDE8008C20F07F4780EA030023F09B
:101220007F4C07EB0C03A3F57C5300F00040A3F1C7
:10123000FE0392F0000F00F0B38095F0000F00F075
:1012400077802DE901494FEA11404FEA144621EA1F
:10125000004800FB06FC24EA064708FB06F607FBED
:1012600008F800FB07F718EB06484CEB164C4FEA62
:10127000124B18EB07484FEA15464CEB174022EA91
:101280000B4E0BFB06FC25EA06470EFB06F607FB9A
:101290000EFE0BFB07F71EEB064E4CEB164C4FF009
:1012A00000061EEB074E4CEB174B18EB0B0840F1FA
:1012B000000018EB0E0B58EB000840F100008F1AED
:1012C0004FF000013CBFC943661B14BFB5EB040CD3
:1012D00000213CBFC943F61B4FEA17444EEA8E0E6D
:1012E00027EA04454FEA1C4704FB07622CEA074C37
:1012F00005FB07F70CFB05F604FB0CFC16EB074699
:1013000042EB174216EB0C4642EB1C421BEB060667
:1013100058EB0202414146EA9E0601D5BDE801892B
:10132000B619524141EB0101A3F10103BDE8018966
:101330004FEA14454FEA114724EA054621EA074CD3
:1013400005FB07F406FB07F70CFB06F105FB0CFC9D
:1013500011EB074144EB17444FEA124711EB0C41E4
:1013600044EB1C4422EA074C05FB07F206FB07F797
:101370000CFB06F605FB0CFC16EB074642EB17428E
:1013800016EB0C4642EB1C456A1854F1000148BFAD
:101390007047B619524141EB0101A3F101037047B7
:1013A00095F0000F37D04FEA11424FEA144721EA77
:1013B000024624EA074C02FB07F106FB07F70CFB89
:1013C00006F402FB0CFC14EB074441EB17414FEA17
:1013D000154714EB0C4441EB1C4125EA074C02FB7A
:1013E00007F506FB07F70CFB06F602FB0CFC16EBF9
:1013F000074645EB174516EB0C4645EB1C42121908
:1014000051F1000148BF7047B619524141EB01014B
:10141000A3F1010370474FEA14454FEA114724EA4C
:10142000054621EA074C05FB07F106FB07F70CFB15
:1014300006F24FF0000605FB0CFC12EB074241EBF5
:10144000174112EB0C4251EB1C4148BF70479218F8
:1014500041EB0101A3F10103704700BFFEE77047B4
:101460007047014691F83500022803D08020486576
:1014700001207047052081F835000868006820F0D9
:1014800001000A6810600020F3E7000070B5044610
:1014900000F010F906462546681C10B10448007893
:1014A000054400BF00F006F9801BA842FAD370BDC6
:1014B00060000020F8B502460B46002500240020FD
:1014C0000021DCE0012606FA01F51E6806EA0504A3
:1014D000AC4273D15E68012E08D05E68022E05D042
:1014E0005E68112E02D05E68122E13D190684F00F4
:1014F0000326BE40B0434F00DE68BE4030439060DC
:10150000506801268E40B0431E79C6F300168E4007
:1015100030435060D0684F000326BE40B0434F00B8
:101520009E68BE403043D0605E68022E02D05E6886
:10153000122E13D1CF0802F1200656F827004E07CD
:10154000F70E0F26BE40B0434F07FF0E1E69BE4088
:101550003043CF0802F1200646F8270010684F00FC
:101560000326BE40B0431E7906F003064F00BE407E
:10157000304310605E6806F08056B6F1805F7DD122
:1015800000BF00260096404E366846F480463E4F27
:101590003E603E46366806F48046009600BF00BFB7
:1015A0003A4E8F0856F827008E07370F0F26BE4099
:1015B000B043374EB24202D1002624E05EE0354E01
:1015C000B24201D101261EE0334EB24201D10226C1
:1015D00019E0324EB24201D1032614E0304EB2423D
:1015E00001D104260FE02F4EB24201D105260AE0B8
:1015F0002D4EB24201D1062605E02C4EB24201D159
:10160000072600E008268F073F0FBE4030431F4EDD
:101610008F0846F82700264E3068A0435E6806F41F
:101620008036B6F5803F00D12043214E3060361D14
:101630003068A0435E6806F40036B6F5003F00D17E
:1016400020431B4E361D3060361D3068A0435E6857
:1016500006F48016B6F5801F00D12043144E0836DC
:101660003060361D3068A0435E6806F40016B6F59B
:10167000001F00D120430E4E0C363060491C10294B
:10168000FFF420AFF8BD00004438024008380140A4
:10169000000002400004024000080240000C02402A
:1016A000001002400014024000180240001C0240DA
:1016B000003C0140014800687047000058000020CD
:1016C00003480068034909780844014908607047E5
:1016D000580000206000002010B50D48006840F45C
:1016E00000700B4908600846006840F4806008609C
:1016F0000846006840F480700860032000F0A2F8FB
:10170000002000F007F800F02BF8002010BD0000CA
:10171000003C024070B504460E4800784FF47A71E0
:10172000B1FBF0F00C490968B1FBF0F5284600F078
:1017300021FC08B1012070BD102C07D200222146E7
:10174000501E00F041F80548046001E00120F2E776
:101750000020F0E760000020540000205C00002022
:1017600008B500BF002000900E48006840F480409B
:101770000C4908600846006800F48040009000BFF3
:1017800000BF00BF00200090081F006840F080509C
:10179000091F08600846006800F08050009000BFF4
:1017A00000BF08BD4438024001460846002809DB56
:1017B00000F01F0301229A4043099B0003F1E0233C
:1017C000C3F8002100BF70472DE9F05F80460D4649
:1017D0001646002702F0B2F9074639462A46334634
:1017E00001F00700C0F1070ABAF1040F02D94FF067
:1017F000040A01E0C0F1070AD14600F1040ABAF177
:10180000070F02D24FF0000A01E0A0F1030AD4460C
:101810004FF0010A0AFA09FAAAF1010A0AEA020AD1
:101820000AFA0CFA4FF0010B0BFA0CFBABF1010BAF
:101830000BEA030B4AEA0B042146404602F086F904
:10184000BDE8F09F00BF00F00702064B19684FF695
:10185000FF031940044B0B4343EA0221014B19607B
:1018600000BF70470CED00E00000FA0570B50446BB
:101870000D460CB9012070BD5848006800F00F00FB
:10188000A84209D255490D700846006800F00F00C3
:10189000A84201D00120EEE7207800F002000228E3
:1018A0001DD1207800F00400042805D14C480068C0
:1018B00040F4E0504A490860207800F00800082809
:1018C00005D14748006840F46040454908604448F5
:1018D000006820F0F000A1680843414908602078C2
:1018E00000F00100A8B36068012807D13C4808381F
:1018F0000068C0F34040B8B90120BCE76068022826
:1019000002D06068032807D1354808380068C0F362
:10191000406048B90120AEE7314808380068C0F39C
:10192000400008B90120A6E72D48006820F0030018
:10193000616808432A490860FFF7BCFE064609E0D3
:10194000FFF7B8FE801B41F28831884202D903209C
:1019500091E707E02248006800F00C006168B0EBF6
:10196000810FEDD11D48006800F00F00A84209D991
:101970001A490D700846006800F00F00A84201D017
:10198000012078E7207800F00400042807D11448EB
:10199000006820F4E050E1680843114908602078AD
:1019A00000F00800082808D10D48006820F46040C5
:1019B000216940EAC1000A49086000F03FF808497F
:1019C0000968C1F30311074A515CC8400649086021
:1019D00006480068FFF79EFE00204CE7003C0240EE
:1019E000083802409C410008540000205C000020A0
:1019F00001480068704700005400002000B5FFF760
:101A0000F7FF04490968C1F38221034A515CC840C9
:101A100000BD000008380240AC41000800B5FFF7E7
:101A2000E7FF04490968C1F34231034A515CC840E9
:101A300000BD000008380240AC4100082DE9F04725
:101A4000002400250026A1462548006800F00C006F
:101A500020B1042805D008283AD105E0DFF88490A9
:101A600039E0DFF8849036E01D48001F006800F080
:101A70003F041B48001F006800F4800078B11A483A
:101A80001749091F0968C1F38811A0FB01700146BD
:101A9000224600233846FEF7F7FB05460EE01148C4
:101AA0000F49091F0968C1F38811A0FB01700146A5
:101AB000224600233846FEF7E7FB05460848001F8C
:101AC0000068C0F30140401C4600B5FBF6F902E097
:101AD000DFF8109000BF00BF4846BDE8F087000067
:101AE000083802400024F400001BB700F8B5044693
:101AF0000CB90120F8BD207800F00100002874D056
:101B0000F948006800F00C0004280DD0F648006881
:101B100000F00C00082813D1F348001F006800F4FF
:101B20008000B0F5800F0BD1EF4808380068C0F393
:101B30004040002859D06068002856D10120D9E7DC
:101B400000BF6068B0F5803F08D1E74808380068FA
:101B500040F48030E449083908601EE06068B0F560
:101B6000A02F0DD1E0480838006840F48020DE49FD
:101B7000083908600846006840F4803008600CE0CE
:101B8000D9480838006820F48030D74908390860FF
:101B90000846006820F48020086000BF606890B1AB
:101BA000FFF788FD054606E0FFF784FD401B64282B
:101BB00001D903209EE7CC4808380068C0F34040B4
:101BC0000028F1D011E0FFF775FD054606E0FFF7AC
:101BD00071FD401B642801D903208BE7C2480838F7
:101BE0000068C0F340400028F1D1207800F00200E6
:101BF00002285FD1BC48006800F00C0058B1BA4818
:101C0000006800F00C0008281CD1B748001F0068CD
:101C100000F48000B0B9B44808380068C0F3400050
:101C200020B1E068012801D0012063E7AE48083800
:101C3000006820F0F800216940EAC100AA4908398B
:101C4000086037E0E06800B30120A8490860FFF7AA
:101C500031FD054606E0FFF72DFD401B022801D9A6
:101C6000032047E7A04808380068C0F34000002878
:101C7000F1D09D480838006820F0F800216940EA5A
:101C8000C10099490839086014E0002097490860AC
:101C9000FFF710FD054606E0FFF70CFD401B02288C
:101CA00001D9032026E7904808380068C0F34000B7
:101CB0000028F1D1207800F0080008282CD16069B4
:101CC000A8B101208A490860FFF7F4FC054606E048
:101CD000FFF7F0FC401B022801D903200AE78248E5
:101CE0006C300068C0F340000028F1D014E0002000
:101CF0007F490860FFF7DEFC054606E0FFF7DAFCE7
:101D0000401B022801D90320F4E677486C300068B4
:101D1000C0F340000028F1D1207800F0040004282E
:101D200070D1002770483830006800F0805090B9BA
:101D300000BF002000906C483830006840F08050B0
:101D40006949383108600846006800F0805000900A
:101D500000BF00BF01276748006800F48070B0B979
:101D60006448006840F4807062490860FFF7A2FC94
:101D7000054606E0FFF79EFC401B022801D9032020
:101D8000B8E65C48006800F480700028F2D000BF1C
:101D9000A068012808D154486830006840F001006C
:101DA0005149683108601DE0A06805280DD14E48F2
:101DB0006830006840F004004B496831086008460C
:101DC000006840F0010008600CE047486830006897
:101DD00020F001004449683108600846006820F09E
:101DE0000400086000BFA068A8B1FFF763FC0546C7
:101DF00009E0FFF75FFC401B41F28831884202D9BD
:101E0000032077E626E0384868300068C0F34000D9
:101E10000028EED013E0FFF74DFC054608E0FFF781
:101E200049FC401B41F28831884201D9032061E618
:101E30002D4868300068C0F340000028EFD1012F22
:101E400007D129483830006820F0805026493831C1
:101E5000086000BFA069002845D02348006800F052
:101E60000C0008285DD0A069022845D100201F4938
:101E70000866FFF71FFC054606E0FFF71BFC401B4A
:101E8000022801D9032035E6174808380068C0F356
:101E900040600028F1D1D4E907010843616A40EAB3
:101EA00081110122A06AC2EB500041EA00412C20BE
:101EB000005D41EA00600C49091F086001200B49E0
:101EC0000866FFF7F7FB054606E0FFF7F3FB401B4C
:101ED000022801D903200DE6034808380068C0F342
:101EE00040600028F1D03FE008380240000047423F
:101EF000800E47420070004000201C490866FFF732
:101F0000D9FB054606E0FFF7D5FB401B022801D9A7
:101F10000320EFE516480068C0F340600028F2D1C6
:101F200022E0A069012800D1E4E51148001D0668FF
:101F300006F48001E069814214D106F03F01206A75
:101F400081420FD147F6C0703040616A884209D1A2
:101F500006F44031A06A814204D106F07061E06A63
:101F6000814201D00120C5E50020C3E500004742C1
:101F70000038024070B504462546681EB0F1807FE7
:101F800001D301200FE0681E4FF0E02148610F21CE
:101F90004FF0FF3001F0DAFD00204FF0E0218861C2
:101FA00007200861002070BD7047704710B50346D8
:101FB000002200BF93F83C00012801D1022010BD8F
:101FC000012083F83C0000BF22F0FF00CC6840EA0B
:101FD000040222F440708C6840EA040222F480601B
:101FE0004C6840EA040222F400600C6840EA0402F3
:101FF00022F480500C6940EA040222F400504C693B
:1020000040EA040222F48040CC6940EA04021868E5
:10201000426400BF002083F83C0000BF00BFCEE751
:1020200030B502460B4600BF92F83C00012801D1B2
:10203000022030BD012082F83C0000BF022082F85F
:102040003D00106844681068816824F070041868C6
:10205000044310684460184D1068A8421BD01068F3
:10206000B0F1804F17D0154D1068A84213D0144D11
:102070001068A8420FD0134D1068A8420BD0124D23
:102080001068A84207D0114D1068A84203D0104D27
:102090001068A84205D121F08001586801431068FA
:1020A0008160012082F83D0000BF002082F83C00E2
:1020B00000BF00BFBDE70000000001400004004079
:1020C00000080040000C00400004014000400140B6
:1020D0000018004010B504460CB9012010BD94F85A
:1020E0003D0028B9002084F83C00204600F00CF8A0
:1020F000022084F83D00211D206800F0EDFF012042
:1021000084F83D000020E9E708B50A4A01689142D9
:102110000FD100BF002100910749096841F001017A
:10212000054A11601146096801F00101009100BFE4
:1021300000BF08BD000001404438024001460220B3
:1021400081F83D000868806800F00702062A05D083
:102150000868006840F001000B681860012081F8F1
:102160003D00002070472DE9F04104460D4600BFB8
:1021700094F83C00012802D10220BDE8F081012042
:1021800084F83C0000BF022084F83D002068866887
:1021900026F0770626F47F46206886602868502857
:1021A00033D00CDC202850D004DC00284BD0102881
:1021B00051D149E0302849D040284CD139E060283D
:1021C0002DD0702807D0B0F5805F03D0B0F5005F48
:1021D00041D10DE040E0D5E902136A68206800F0C3
:1021E000F8FF2068866846F077062068866033E04E
:1021F000D5E902136A68206800F0EBFF2068806868
:1022000040F480402168886026E0EA6869682068B8
:1022100001F0D0F85021206800F0E6FF1CE0EA68E9
:102220006968206801F022F96021206800F0DCFF75
:1022300012E0EA686968206801F0BCF84021206873
:1022400000F0D2FF08E000BF00BF00BF296820688F
:1022500000F0CAFF00E000BF00BF012084F83D008D
:1022600000BF002084F83C0000BF00BF85E70000ED
:1022700010B50446207F01286AD13648007870B92D
:102280000021204600F071FB00EE100AB8EE400A73
:10229000314880ED000A01202E49087058E02D4891
:1022A0000078E0B30021204600F05FFB00EE100A4A
:1022B000B8EE400A294880ED000A90ED000A264851
:1022C000D0ED000AB4EEE00AF1EE10FA0BDD23487F
:1022D00090ED000A2048D0ED000A30EE600A204858
:1022E00080ED000A26E01D4890ED000A1A48D0ED66
:1022F000000AB4EEE00AF1EE10FA19D2194800888B
:1023000000EE100AB8EE400A1348D0ED000A30EE95
:10231000600A1248D0ED000A30EE200A00E017E013
:10232000F7EE000A30EE200A0D4880ED000A01E0C9
:10233000FFF796F80C4890ED000A0948D0ED000A26
:1023400080EE201A094880ED001A0020014908702B
:1023500010BD000028000020180000201C000020F4
:102360002000002012000020140000202400002083
:102370002DE9F04104460D46164600BF94F83C0096
:10238000012802D10220BDE8F081012084F83C0040
:1023900000BF022084F83D0096B9EB68D5E9001231
:1023A000206801F01BF82068806920F00C0021688B
:1023B000886120688069A9680843216888613DE0D8
:1023C000042E13D1EB68D5E90012206801F062F801
:1023D0002068806920F440602168886120688069F5
:1023E000A96840EA01202168886127E0082E12D1FF
:1023F000EB68D5E90012206801F069F82068C0692F
:1024000020F00C002168C8612068C069A9680843F1
:102410002168C86112E0EB68D5E90012206801F07C
:1024200072F82068C06920F440602168C8612068A3
:10243000C069A96840EA01202168C861012084F8C8
:102440003D0000BF002084F83C0000BF00BF9AE7B9
:1024500010B504460CB9012010BD94F83D0028B910
:10246000002084F83C00204600F00CF8022084F89C
:102470003D00211D206800F02FFE012084F83D0062
:102480000020E9E710B586B00446142101A8FDF745
:10249000F7FF2D492068884254D100BF00200090EA
:1024A0002A48006840F00200284908600846006891
:1024B00000F00200009000BF00BF00BF00200090AD
:1024C00022481438006840F48070204914390860AC
:1024D0000846006800F48070009000BF00BF00BF95
:1024E000002000900846006840F00400086008469C
:1024F000006800F00400009000BF00BF8020019041
:1025000002200290012003900220049003200590F5
:1025100001A90F48FEF7CEFF402001900220029053
:1025200001200390022004900320059001A909488E
:10253000FEF7C0FF002211462E20FFF745F92E209E
:10254000FFF732F906B010BD0004014044380240E4
:10255000002002400008024070B504460D4635B127
:10256000042D0BD0082D10D00C2D1CD114E02068A8
:10257000C06840F002002168C86015E02068C068AB
:1025800040F004002168C8600EE02068C06840F098
:1025900008002168C86007E02068C06840F01000AB
:1025A0002168C86000E000BF00BF01222946206802
:1025B00000F0FEFD2068806800F00706062E05D0BA
:1025C0002068006840F0010021680860002070BDAC
:1025D00010B5044620680069C0F34000D8B12068F7
:1025E000C068C0F34000B0B16FF00200216808611C
:1025F000012020772068806900F0030018B1204690
:10260000FFF736FE05E0204600F0E0F8204600F037
:102610007DF90020207720680069C0F38000D8B1E0
:102620002068C068C0F38000B0B16FF0040021687A
:102630000861022020772068806900F4407018B19A
:102640002046FFF715FE05E0204600F0BFF82046C3
:1026500000F05CF90020207720680069C0F3C0001A
:10266000D8B12068C068C0F3C000B0B16FF00800F6
:1026700021680861042020772068C06900F0030009
:1026800018B12046FFF7F4FD05E0204600F09EF863
:10269000204600F03BF90020207720680069C0F355
:1026A0000010D8B12068C068C0F30010B0B16FF05E
:1026B000100021680861082020772068C06900F4B4
:1026C000407018B12046FFF7D3FD05E0204600F02A
:1026D0007DF8204600F01AF9002020772068006974
:1026E00000F0010058B12068C06800F0010030B16E
:1026F0006FF0010021680861204600F035F920687C
:102700000069C0F3C01058B12068C068C0F3C010A1
:1027100030B16FF08000216808612046FFF744FC6B
:1027200020680069C0F3801058B12068C068C0F309
:10273000801030B16FF0400021680861204600F041
:102740002DF920680069C0F3401058B12068C068B6
:10275000C0F3401030B16FF02000216808612046BE
:10276000FFF723FC10BD000010B586B0044614210D
:1027700001A8FDF785FE1249206888421ED100BFDE
:10278000002000900F48006840F010000D490860DC
:102790000846006800F01000009000BF00BF4FF432
:1027A000D440019002200290012003900220049066
:1027B0000120059001A90448FEF77CFE06B010BD7B
:1027C000000001403038024000100240704770B5F0
:1027D00004460D46164600BF94F83C00012801D17E
:1027E000022070BD012084F83C0000BF022084F864
:1027F0003D0036B1042E1BD0082E31D00C2E5ED1F8
:1028000045E02946206800F0F9FC2068806940F026
:102810000800216888612068806920F00400216830
:10282000886120688069296908432168886147E0D8
:102830002946206800F01AFD2068806940F4006095
:10284000216888612068806920F48060216888613F
:1028500020688069296940EA0120216888612FE0A9
:102860002946206800F040FD2068C06940F008005B
:102870002168C8612068C06920F004002168C8612F
:102880002068C069296908432168C86118E02946A1
:10289000206800F065FD2068C06940F40060216890
:1028A000C8612068C06920F480602168C861206820
:1028B000C069296940EA01202168C86100E000BFC1
:1028C00000BF012084F83D0000BF002084F83C00D8
:1028D00000BF00BF85E710B504460CB9012010BD4C
:1028E00094F83D0028B9002084F83C00204600F010
:1028F0000CF8022084F83D00211D206800F0ECFB5C
:10290000012084F83D000020E9E77047704700008F
:1029100070B504460E4601223146206800F048FC9E
:102920000F492068884203D00E492068884201D1AF
:10293000012000E0002028B12068406C40F40040F5
:10294000216848642068806800F00705062D05D0DE
:102950002068006840F0010021680860002070BD18
:10296000000001400004014070470246002031B1E0
:10297000042907D0082908D00C290CD108E01368D5
:10298000586B09E01368986B06E01368D86B03E096
:102990001368186C00E000BF00BF704770477047B5
:1029A0002DE9F0470446206805682068C66820685D
:1029B00047694FF00008C14605F00F08B8F1000F55
:1029C0000AD105F0200038B106F0200020B12046E1
:1029D00000F0E1FDBDE8F087B8F1000F72D007F01C
:1029E000010018B906F4907000286BD005F00100C2
:1029F00030B106F4807018B1E06B40F00100E06384
:102A000005F0040030B107F0010018B1E06B40F0B0
:102A10000200E06305F0020030B107F0010018B1D8
:102A2000E06B40F00400E06305F0080048B106F0F8
:102A3000200010B907F0010018B1E06B40F0080069
:102A4000E063E06B70B305F0200028B106F02000D1
:102A500010B1204600F09FFD20684069C0F3801946
:102A6000E06B00F0080010B9B9F1000F23D0204648
:102A700000F071FD2068406900F04000402816D148
:102A80002068406920F0400021684861606B50B1C7
:102A90001748616B0865606BFEF7E3FC10B1606B73
:102AA000016D88470CE02046FFF779FF08E02046DB
:102AB000FFF775FF04E02046FFF771FF0020E06399
:102AC00088E7FFE705F0800030B106F0800018B11C
:102AD000204600F0A7FF7DE705F0400030B106F08A
:102AE000400018B1204600F046FD73E700BF71E7D3
:102AF0004335000810B504460CB9012010BDA0698B
:102B000000B100E000BF94F8390028B9002084F833
:102B10003800204600F028F8242084F83900206886
:102B2000C06820F400502168C860204600F086FD8F
:102B30002068006920F4904021680861206840699D
:102B400020F02A00216848612068C06840F40050E5
:102B50002168C8600020E063202084F8390084F8F0
:102B60003A000020CAE7000010B586B004461421E0
:102B700001A8FDF785FC2E492068884255D100BF89
:102B8000002000902B48006840F0100029490860A0
:102B90000846006800F01000009000BF00BF00BFB2
:102BA0000020009023481438006840F002002149BA
:102BB000143908600846006800F00200009000BF69
:102BC00000BF00BF002000900846006840F00100F0
:102BD00008600846006800F00100009000BF00BFD8
:102BE0008020019002200290002003900320049096
:102BF0000720059001A91048FEF75CFC4FF4007017
:102C000001900220029000200390032004900720EE
:102C1000059001A90948FEF74DFC00221146252028
:102C2000FEF7D2FD2520FEF7BFFD06B010BD000067
:102C300000100140443802400004024000000240FD
:102C400070472DE9F84304460D4616461F464FF0DF
:102C5000000994F8390020285DD105B116B901208A
:102C6000BDE8F88300BF94F83800012801D10220A4
:102C7000F6E7012084F8380000BF0020E06321203F
:102C800084F83900FEF716FD8146A684E68400BF6D
:102C9000002084F8380000BF2BE0E08C401EE08468
:102CA000A068B0F5805F16D14B46002280212046F7
:102CB000009700F0EBFE08B10320D1E7A846B8F872
:102CC0000000C0F3080021684860206908B9AD1C05
:102CD0000FE06D1C0DE04B4600228021204600973E
:102CE00000F0D4FE08B10320BAE715F8010B216803
:102CF0004860E08C0028D0D14B460022402120467D
:102D0000009700F0C3FE08B10320A9E7202084F853
:102D100039000020A4E70220A2E7704700BFFEE7C9
:102D200008B500BF002000902C48006840F001006A
:102D30002A4908600846006800F00100009000BFC2
:102D400000BF00BF002000900846006840F002006D
:102D500008600846006800F00200009000BF00BF55
:102D600000BF002000900846006840F480700860B2
:102D70000846006800F48070009000BF00BF00BFEC
:102D8000002000900846006840F080000860084677
:102D9000006800F08000009000BF00BF00BF00206E
:102DA00000900846006840F004000860084600688B
:102DB00000F00400009000BF00BF00BF00200090A2
:102DC0000846006840F0100008600846006800F0FF
:102DD0001000009000BF00BF08BD00003038024066
:102DE00000B595B0002011901290139014900F90A0
:102DF00010901C2108A8FDF743FB20216846FDF731
:102E00003FFB384838490860A72048600021364811
:102E1000816044F61F61C1600021016141618161EF
:102E2000FFF758F908B1FEF71BFB4FF480501190E3
:102E300011A92D48FFF797F908B1FEF711FB2A48B1
:102E4000FFF749FD08B1FEF70BFB00200F90109033
:102E50000FA92548FFF7E4F808B1FEF701FB602051
:102E600008904FF4FA60099000200A900B900C90A3
:102E70000D900E90002208A91B48FFF7A8FC08B18E
:102E8000FEF7EEFA042208A91748FFF7A0FC08B1E4
:102E9000FEF7E6FA082208A91348FFF798FC08B1E4
:102EA000FEF7DEFA0C2208A90F48FFF790FC08B1E4
:102EB000FEF7D6FA00200090019002900390049053
:102EC0004FF4005005900020079069460648FFF730
:102ED0006DF808B1FEF7C4FA0348FFF745FC15B0DA
:102EE00000BD0000000001407C00002000B587B05C
:102EF00000200590069001900290039004901848DD
:102F00001849086040F60420486000211548816097
:102F10004FF6FF71C1600021016141618161FFF7DE
:102F200097FA08B1FEF79CFA00200590069005A9D3
:102F30000C48FFF775F808B1FEF792FA00200190EF
:102F400001200290002003900490002201A905486E
:102F5000FFF70EFA08B1FEF783FA07B000BD0000D4
:102F600000040140BC00002010B50B480B4908606C
:102F70004FF4E1304860002108488160C160016180
:102F80000C21416100218161C161FFF7B3FD08B1EE
:102F9000FEF766FA10BD000000100140FC000020A2
:102FA00000BFFEE7704710B5FEF78AFB10BD0000BA
:102FB00000B593B0302107A8FDF762FA142102A8EA
:102FC000FDF75EFA00BF002001902448006840F041
:102FD0008050224908600846006800F08050019047
:102FE00000BF00BF00BF002001901D48006840F4F2
:102FF00080401B4908600846006800F4804001904A
:1030000000BF00BF012007900004089002200D902F
:1030100041050E9106210F91A821109102211191D5
:103020000721129107A8FEF761FD08B1FEF718FA13
:103030000F20029002200390002004904FF4A05033
:1030400005904FF480500690052102A8FEF70EFC73
:1030500008B1FEF705FA13B000BD00004038024089
:10306000007000401448006840F470001249086085
:103070001248006840F001001049086000200F4924
:10308000083108600D4800680D4908400B49086088
:103090000C48091D0860081F006820F48020091FE3
:1030A0000860002005490C3108604FF000600249BB
:1030B000803908607047000088ED00E00038024069
:1030C000FFFFF6FE1030002410B50248FFF780FA2B
:1030D00010BD0000BC00002010B50268294B9842CA
:1030E0000ED0B0F1804F0BD0274B984208D0274B21
:1030F000984205D0264B984202D0264B984203D1E5
:1031000022F070024B681A431E4B984220D0B0F157
:10311000804F1DD01C4B98421AD01C4B984217D0A0
:103120001B4B984214D01B4B984211D01A4B98421B
:103130000ED01A4B98420BD0194B984208D0194B1D
:10314000984205D0184B984202D0184B984203D1B0
:1031500022F44072CB681A4322F080034C6943EAA0
:10316000040202608B68C3620B688362054B98425D
:1031700002D0084B984201D10B69036301234361DC
:1031800010BD0000000001400004004000080040A5
:10319000000C004000040140004001400044014098
:1031A0000048014000180040001C00400020004082
:1031B00030B501F01F05012404FA05F3046A9C43AD
:1031C0000462046A01F01F0502FA05F52C4304624B
:1031D00030BD30B50C46816821F47F4142EA0325B9
:1031E00025432943816030BD0A46816821F0700182
:1031F00042F00703194381607047000030B5056A4B
:1032000025F001050562026A4368846924F07004B0
:1032100024F003040D682C4322F002028D682A4337
:10322000104DA84200D103E00F4DA84206D100BFC7
:1032300022F00802CD682A4322F00402094DA84278
:1032400002D0094DA84207D123F4807323F4007300
:103250004D692B438D692B43436084614D68456301
:10326000026230BD000001400004014030B5056A33
:1032700025F010050562026A4368846924F4E0447D
:1032800024F440740D6844EA052422F020028D687D
:1032900042EA0512124DA84200D103E0114DA842A6
:1032A00007D100BF22F08002CD6842EA051222F069
:1032B00040020B4DA84202D00A4DA84209D123F486
:1032C000806323F400634D6943EA85038D6943EA13
:1032D0008503436084614D688563026230BD0000F0
:1032E000000001400004014030B5056A25F48075F6
:1032F0000562026A4368C46924F0700424F0030480
:103300000D682C4322F400728D6842EA0522124DAA
:10331000A84200D103E0114DA84207D100BF22F41A
:103320000062CD6842EA052222F480620A4DA8427A
:1033300002D00A4DA84209D123F4805323F400534C
:103340004D6943EA05138D6943EA05134360C4617F
:103350004D68C563026230BD0000014000040140B9
:1033600030B5056A25F480550562036A4468C26970
:1033700022F4E04222F440720D6842EA052223F46E
:1033800000538D6843EA0533084DA84202D0084D2A
:10339000A84204D124F480444D6944EA8514446071
:1033A000C2614D680564036230BD00000000014049
:1033B0000004014030B50B461446026A056A25F048
:1033C00001050562816921F0F00141EA041122F052
:1033D0000A021A438161026230BD000070B50C46DA
:1033E0001546066A26F0010606628169026A184ED1
:1033F000B04214D0B0F1804F11D0164EB0420ED072
:10340000154EB0420BD0154EB04208D0144EB0420B
:1034100005D0144EB04202D0134EB04201D1012665
:1034200000E000261EB121F00301294301E041F034
:10343000010121F0F001F02606EA0316314322F0E3
:103440000A0204F00A0632438161026270BD000084
:10345000000001400004004000080040000C004053
:1034600000040140004001400018004030B50B4608
:103470001446056A25F0100505628169026A21F487
:10348000704141EA043122F0A00242EA0312816154
:10349000026230BD70B50C461546066A26F010066D
:1034A00006628169026A21F4407141EA052121F432
:1034B00070414FF4704606EA0336314322F0A00211
:1034C000A02606EA041632438161026270BD70B51F
:1034D0000C461546066A26F480760662C169026AC1
:1034E00021F00301294321F0F001F02606EA03163A
:1034F000314322F420624FF4206606EA0426324368
:10350000C161026270BD70B50C461546066A26F4AC
:1035100080560662C169026A21F4407141EA0521C0
:1035200021F470414FF4704606EA0336314322F429
:1035300020424FF4204606EA04363243C16102625B
:1035400070BD70B50546AC6B0020E085E084204678
:10355000FFF725FA70BD0168C96821F4907102680F
:10356000D1600168496921F001010268516120219F
:1035700080F83A10704710B504462068C06820F003
:1035800040002168C860202084F839002046FFF7F9
:10359000C4FB002010BD70B5044694F83A00222800
:1035A0004AD1A068B0F5805F13D1A56A206940B9FF
:1035B00020684068C0F308002880A06A801CA062D0
:1035C00019E020684068C0B22880A06A401CA06250
:1035D00011E0206938B920684068C1B2A26A501C65
:1035E000A062117007E02068406800F07F01A26AC5
:1035F000501CA0621170E08D401E80B2E085C8B9F9
:103600002068C06820F020002168C8602068C06879
:1036100020F480702168C8602068406920F00100B3
:1036200021684861202084F83A002046FFF708FB13
:10363000002070BD0020FCE70220FAE72DE9F84FDA
:1036400004462068006920F44050E168084321687E
:1036500008612169A068084361690843E16908437A
:1036600000902068C06849F20C61884300990843C3
:103670002168C8602068406920F44070A16908434F
:1036800021684861E069B0F5004F75D1E3492068D1
:10369000884203D0E249206888426FD1FEF7BEF924
:1036A000814602206168A0FB01510B461920A9FB4D
:1036B00000712A463846FCF7E7FD6421B0FBF1F0C3
:1036C0004FEA001A02206168A0FB01510B46192045
:1036D000A9FB00712A463846FCF7D6FD07460220B2
:1036E0006168A0FB01510B461920A9FB00B12A46D5
:1036F0005846FCF7C9FD6421B0FBF1F000EBC001B6
:1037000001EB0010A7EB8000322101EBC000642127
:10371000B0FBF1F000F0F8000AEB400A022061680B
:10372000A0FB01510B461920A9FB00712A4638461F
:10373000FCF7AAFD074602206168A0FB01510B4679
:103740001920A9FB00B12A465846FCF79DFD6421CB
:10375000B0FBF1F000EBC00101EB0010A7EB800023
:10376000322101EBC0006421B0FBF1F000F0070052
:103770005044216888604FE16EE0FFE7FEF73EF9B4
:10378000814602206168A0FB01510B461920A9FB6C
:1037900000712A463846FCF777FD6421B0FBF1F052
:1037A0004FEA001A02206168A0FB01510B46192064
:1037B000A9FB00712A463846FCF766FD0746022041
:1037C0006168A0FB01510B461920A9FB00B12A46F4
:1037D0005846FCF759FD6421B0FBF1F000EBC00145
:1037E00001EB0010A7EB8000322101EBC000642147
:1037F000B0FBF1F000F0F8000AEB400A022061682B
:10380000A0FB01510B461920A9FB00712A4638463E
:10381000FCF73AFD074602206168A0FB0150034611
:103820001920A9FB00B12A465846FCF72DFD64215A
:10383000B0FBF1F000EBC00101EB0010A7EB800042
:10384000322101EBC0006421B0FBF1F000F0070071
:10385000504421688860DFE070492068884203D0C6
:103860006F49206888426BD1FEF7D8F88146042062
:103870006168A0FB01510B461920A9FB00712A4683
:103880003846FCF701FD824604206168A0FB015127
:103890000B461920A9FB00712A463846FCF7F4FCB8
:1038A0006421B0FBF1F000EBC00101EB0010AAEBCA
:1038B0008000322101EB00106421B0FBF1F000F038
:1038C000F00A04206168A0FB015003461920A9FBFF
:1038D00000712A463846FCF7D7FC6421B0FBF1F0B2
:1038E0000AEB001A04206168A0FB01510B46192065
:1038F000A9FB00712A463846FCF7C6FC074604209F
:103900006168A0FB015003461920A9FB00B12A46BB
:103910005846FCF7B9FC6421B0FBF1F000EBC001A4
:1039200001EB0010A7EB8000322101EB00106421B5
:10393000B0FBF1F000F00F005044216888606BE0AC
:10394000FEF75CF8814604206168A0FB0150034645
:103950001920A9FB00712A463846FCF795FC8246DF
:1039600004206168A0FB015003461920A9FB0071E7
:103970002A463846FCF788FC6421B0FBF1F000EBE6
:10398000C00101EB0010AAEB8000322101EB001016
:103990006421B0FBF1F000F0F00A04206168A0FBA4
:1039A000015003461920A9FB00712A463846FCF74E
:1039B0006BFC6421B0FBF1F00AEB001A0420616893
:1039C000A0FB017003461920A9FB005001463A46AE
:1039D0002846FCF759FC074604206168A0FB01500B
:1039E00003461920A9FB00B12A465846FCF74CFCB7
:1039F0006421B0FBF1F000EBC00101EB0010A7EB7C
:103A00008000322101EB00106421B0FBF1F000F0E6
:103A10000F00504421688860BDE8F88F0010014015
:103A200000140140014691F8390021282CD1886802
:103A3000B0F5805F0FD10A6A1088C0F308000B68E8
:103A40005860086918B9086A801C086209E0086AA9
:103A5000401C086205E00B6A581C086218780B6865
:103A60005860C88C401E80B2C88458B90868C068C5
:103A700020F080000B68D8600868C06840F0400003
:103A80000B68D860002070470220FCE72DE9F04168
:103A900004460D4617469846069E21E0701CF8B174
:103AA0002EB1FDF707FEA0EB0800B04218D9206840
:103AB000C06820F4D0702168C8602068406920F098
:103AC000010021684861202084F8390084F83A0018
:103AD00000BF002084F8380000BF0320BDE8F0815B
:103AE000206800682840A84201D1012000E00020A1
:103AF000B842D3D00020F1E710B50248FEF750FFDE
:103B000010BD0000FC00002000BFFEE703B40198D8
:103B10004100009850EAC12018BF04204A0D18BF88
:103B200040F0010040F2FF72B2EB515F08BF40F07D
:103B30000200012808BF052002B070470248006853
:103B4000C0F30220704700000CED00E010B5002823
:103B500004DB0A07130E054A135406E00A07140E85
:103B6000034A00F00F031B1FD45410BD00E400E013
:103B700018ED00E02DED028BFDF7AEFDFFF718FA12
:103B8000FFF7CEF8FFF7B2F9FFF72AF9FFF7ECF9E4
:103B9000B148FEF7D3FA0021AF48FEF7B9FE042181
:103BA000AD48FEF7B5FE0821AB48FEF7B1FE40F286
:103BB000DC50A949096848630021A848FEF7CCFCFD
:103BC000A748D0ED000AA748008800EE100AB8EE1A
:103BD000400A80EE801AA44880ED001A41F2883035
:103BE000FDF754FC4FF4C8609B490968486340F6F0
:103BF000B830FDF74BFC2DE19C4802889CA19D4804
:103C0000FCF7BAFB9C48006800F050FA41EC180B36
:103C100053EC182B99A19A48FCF7AEFB64230C22B5
:103C200097499848FFF70DF864230C2296A1954810
:103C3000FFF707F864230C228E499248FFF701F83A
:103C400064230C2290A18F48FEF7FBFF9048007878
:103C500070BB90480088401C8E4908800846008848
:103C600040F2DC51884223DD8048008832307F49B1
:103C7000088008460088B0F52F7F03DA08460088E0
:103C8000088003E04FF42F7078490880824800785C
:103C9000401C8149087008460078032805DD012092
:103CA0007B49087000207C49087000207949088011
:103CB00077480078012830D176480088401C754943
:103CC00008800846008840F2DC51884225DD6748BC
:103CD000008832386549088008460088B0F52F7F93
:103CE00007DC08460088C82803DD084600880880ED
:103CF00002E0C8205D49088067480078401C66499A
:103D0000087008460078032804DD00206049087028
:103D10006149087000205F490880604890ED000A02
:103D20005F4880ED000A5148008800EE100AB8EEA6
:103D3000400A5148D0ED000A30EE600A574880ED45
:103D4000000A584890ED000A5448D0ED000A30EEC1
:103D5000200A544880ED000A504890ED000A50486F
:103D6000D0ED000A30EE600A4F48D0ED000A80EE38
:103D7000201A4E4880ED001A4D4890ED000A474841
:103D8000D0ED000A20EE200A4A48D0ED000A45484E
:103D900090ED001A00EE810A4748D0ED000A434832
:103DA00090ED001A00EE810A444880ED000A006898
:103DB00000F07CF941EC180B9FED410B53EC102BFC
:103DC00000F03EF904D2B7EE000A3C4880ED000A4C
:103DD0003A48006800F06AF941EC180B9FED3A0B85
:103DE00053EC102B00F09CF804D2BFEE000A3348CD
:103DF00080ED000A3148D0ED000A9FED351A9FEDA5
:103E0000350A00EE810A80ED000A90ED000ADFED30
:103E1000310AB4EEE00AF1EE10FA03D29FED2D0A5A
:103E200080ED000A254890ED000ADFED2B0AB4EE84
:103E3000E00AF1EE10FA03DD9FED270A80ED000A9B
:103E40001E4890ED000ABCEEC00A10EE100A0249AE
:103E500009684863D0E600007C000020BC00002018
:103E60000C0000201000002014000020080000209A
:103E7000256400007000002024000020256600005A
:103E800064000020FC000020202020200D0A0000FB
:103E90000200002000000020030000203800002065
:103EA0003400002044000020400000203C0000209E
:103EB000480000204C00002050000020040000209A
:103EC000000000000000F03F000000000000F0BF14
:103ED0000000FA430080BB440000FA4410B50029FA
:103EE0000AD00878002807D005487844FCF7A6FED9
:103EF000002801D0002010BD0248784410BD000009
:103F00007E03000076030000491058BFC1F1404114
:103F10005B1058BFC3F140438B42EFF30080704702
:103F200051EA030C17D41CF5801F58BFBCF5801F45
:103F300000F10680994218BF704708BF9042704751
:103F400007D711F5801F58BF13F5801F19D4994268
:103F50007047894270471CF5801F08D5BCF5801F4B
:103F6000F7D58B4218BF704708BF824270474FF4A5
:103F7000001C1CEB410F38BF1CEB430F01D28B42DE
:103F8000704770B500F008F8922449004FF00051D6
:103F90004FF08053FFF7B8BF0EF1020E2EF0030E64
:103FA0005EF8046B364205D4012A43EB030515F590
:103FB000001F12D8012841EB010C1CF5001F0CD882
:103FC0000ED14FEAD17C15F5001F0CEB4C0C0CF117
:103FD000020C08BF4CEBD37C04E04FF0080C01E06E
:103FE0004FEAD37C0CEB4C0526FA05F606F00706E3
:103FF000B6F1040C06D20EEB860CBDE870404CF016
:10400000010C6047DFE80CF0090B02024FF00041A1
:104010004FF00000A1F5002170BD1946104601289F
:1040200051EB010418BFD4F5001484BF002001F047
:10403000004170BD0808A0F500114FEA310170473A
:1040400053EA010C17D41CF5801F58BFBCF5801F24
:1040500000F106808B4218BF704708BF824270474C
:1040600007D713F5801F58BF11F5801F19D48B4255
:1040700070479B4270471CF5801F08D5BCF5801F18
:10408000F7D5994218BF704708BF904270474FF468
:10409000001C1CEB430F38BF1CEB410F01D29942AF
:1040A00070470FB40CBC03BCFFF76BBF43004FEA73
:1040B000D30C4FEA3C0C43401FBF40070CF160514A
:1040C00013F0FE4F70471CF0006F03D100200CF07E
:1040D000004170470CF0004343EA507010B540EACD
:1040E000CC0000F00EF800BF000000924FEA000183
:1040F000FFF7A0BF4FF000414FF00000A1F50021F5
:1041000070470EF1020E2EF0030E5EF8044B2442AF
:1041100004D44FEA4102B2F17F4F11D84FEA400375
:10412000B3F17F4F0CD80ED14FEAD07CB2F17F4F64
:104130000CEB4C0C0CF1020C08BF4CEBD17C04E0F6
:104140004FF0080C01E04FEAD17C0CEB4C0324FA51
:1041500003F404F00704B4F1040C06D20EEB840C53
:10416000BDE810404CF0010C6047DFE80CF0070898
:1041700002024FF00040A0F5800010BD084642004A
:1041800018BFD2F1807288BF00F0004010BD4FF020
:104190004070E1EE100A7047FCF7CEBA0000000054
:1041A00000000000010203040607080900000000E7
:1041B0000102030402400000000000A00000000013
:1041C00005400000000000C8000000000C40000096
:1041D0000000409C00000000194000000020BCBE10
:1041E0000000000034400000BFC91B8E0000000426
:1041F000B5400000504BCFD06607E2CF0100000071
:104200006C4100003E8251AADFEEA734010000009D
:10421000D9420000DCB5A0E23A301F97FFFFFFFF54
:10422000B4450000FD25A0C8E9A3C14FFFFFFFFF73
:10423000FF3F00000000008000000000FF3F000082
:104240000000008000000000844200080000002000
:1042500064000000C4010008E84200086400002077
:104260003C410000E00100081C0000004300000089
:10427000F8FFFFFF0C0000000E0000000F00000020
:104280002E000000000000000000C8442C010000C7
:10429000A037204D040AFFFF0000000000000000CE
:1042A000000000000000000000000000000000000E
:1042B00000000000000000000000000000000000FE
:1042C000000000000000803F000000006F12833AF1
:1042D00017B75138ACC527370024F40000000000A0
:0842E0001000000001000000C5
:040000050800018965
:00000001FF
