:020000040800F2
:1000000000040020CF010008DD010008DF01000826
:10001000E1010008E3010008E5010008000000001C
:10002000000000000000000000000000E7010008E0
:10003000E901000800000000EB010008ED010008E4
:10004000EF010008EF010008EF010008EF010008D0
:10005000EF010008EF010008EF010008EF010008C0
:10006000EF010008EF010008EF010008EF010008B0
:10007000EF010008EF010008EF010008EF010008A0
:10008000EF010008EF010008EF010008EF01000890
:10009000EF010008EF010008EF010008EF01000880
:1000A000EF010008EF010008EF010008EF01000870
:1000B000EF010008EF010008EF010008EF01000860
:1000C000EF010008EF010008EF010008EF01000850
:1000D000EF010008EF010008EF010008EF01000840
:1000E000EF010008EF010008EF010008EF01000830
:1000F000EF010008EF010008EF010008EF01000820
:10010000EF010008EF010008EF010008EF0100080F
:10011000EF010008EF010008EF010008EF010008FF
:10012000EF010008EF010008EF010008EF010008EF
:1001300000F002F800F03AF80AA090E8000C8244BF
:100140008344AAF10107DA4501D100F02FF8AFF29C
:10015000090EBAE80F0013F0010F18BFFB1A43F0A5
:1001600001031847200A0000400A0000103A24BF8B
:1001700078C878C1FAD8520724BF30C830C144BF0C
:1001800004680C607047000000230024002500264E
:10019000103A28BF78C1FBD8520728BF30C148BFEA
:1001A0000B6070471FB51FBD10B510BD00F035F8CE
:1001B0001146FFF7F7FF00F0BBFC00F053F803B463
:1001C000FFF7F2FF03BC00F05BF8000070470B483C
:1001D00080470B4981F308880A480047FEE7FEE79D
:1001E000FEE7FEE7FEE7FEE7FEE7FEE7FEE7FEE7E7
:1001F00005480649044A064B704700006906000896
:1002000078020020310100087800002078020020E8
:1002100078000020704770477047754600F02CF852
:10022000AE4605006946534620F00700854618B0E3
:1002300020B5FFF7DDFFBDE820404FF000064FF08E
:1002400000074FF000084FF0000B21F00701AC460B
:10025000ACE8C009ACE8C009ACE8C009ACE8C0092A
:100260008D46704710B50446AFF300802046BDE8C8
:100270001040FFF7A4BF000000487047180000209E
:1002800001491820ABBEFEE72600020070470000BF
:100290001CB5002400200090019006210C4800F0BD
:1002A0002FFC684600F00AFC00BF08E01DF80400BF
:1002B0000849095D884200D003E0601CC4B2042CE8
:1002C000F4DB00BF042C01D100201CBD0120FCE7A1
:1002D0006C0B0008720B00082DE9F84304460D462C
:1002E00017461E46DDF82080002000908DF8004063
:1002F0008DF801508DF802700321684600F000FC73
:100300004146304600F0FCFBBDE8F8832DE9F041A2
:10031000024600250026002000230024002791F833
:1003200003C00CF00F0591F803C00CF0100CBCF1E9
:10033000000F03D091F802C04CEA050591F800C007
:10034000BCF1000F31D0146800202BE04FF0010CFD
:100350000CFA00F3B1F800C00CEA03069E4220D16B
:1003600083004FF00F0C0CFA03F7BC4305FA03FCB3
:100370004CEA040491F803C0BCF1280F06D14FF0F9
:10038000010C0CFA00FCC2F814C00AE091F803C09A
:10039000BCF1480F05D14FF0010C0CFA00FCC2F87B
:1003A00010C0401C0828D1D31460B1F800C0BCF1C3
:1003B000FF0F34DD546800202EE000F1080C4FF0F0
:1003C000010808FA0CF3B1F800C00CEA03069E42DB
:1003D00021D183004FF00F0C0CFA03F7BC4305FA50
:1003E00003FC4CEA040491F803C0BCF1280F05D1CA
:1003F00000F1080C08FA0CF8C2F8148091F803C058
:10040000BCF1480F07D100F1080C4FF0010808FAC1
:100410000CF8C2F81080401C0828CED35460BDE808
:10042000F08101617047000029B1064AD269024398
:10043000044BDA6104E0034AD2698243014BDA617A
:10044000704700000010024029B1064A12690243B9
:10045000044B1A6104E0034A12698243014B1A619A
:10046000704700000010024029B1064A9269024319
:10047000044B9A6104E0034A92698243014B9A61FA
:10048000704700000010024029B1064AD2680243BA
:10049000044BDA6004E0034AD2688243014BDA601D
:1004A000704700000010024030B5002100220024F7
:1004B00000232D4D6D6805F00C0121B1042905D0F4
:1004C000082923D105E0294D056022E0274D05606C
:1004D0001FE0254D6D6805F47012022505EB924270
:1004E000214D6D6805F480341CB9214D55430560DC
:1004F0000BE01D4D6D6805F400351DB11C4D5543D5
:10050000056002E0194D5543056002E0174D056096
:1005100000BF00BF144D6D6805F0F0010909154DCD
:100520006B5C0568DD4045600F4D6D6805F4E0616A
:10053000090A104D6B5C4568DD4085600A4D6D68A9
:1005400005F46051C90A0B4D6B5C4568DD40C56020
:10055000054D6D6805F44041890B074D6B5CC5681E
:10056000B5FBF3F5056130BD0010024000127A00C2
:1005700000093D00040000201400002010B500F028
:1005800001F810BD0CB500200190009034480068BF
:1005900040F480303249086000BF3148006800F400
:1005A000003000900198401C0190009818B9019803
:1005B000B0F5A06FF1D12A48006800F4003010B106
:1005C0000120009001E0002000900098012844D113
:1005D0002448006840F0100022490860084600687E
:1005E00020F0030008600846006840F00200086040
:1005F0001B4840681A4948600846406848600846F9
:10060000406840F4806048600846406820F47C10F0
:1006100048600846406840F4E810486008460068B2
:1006200040F08070086000BF0D48006800F0007066
:100630000028F9D00A48406820F0030008494860C3
:100640000846406840F00200486000BF0448406827
:1006500000F00C000828F9D101E000BFFEE70CBD56
:10066000001002400020024010B51048006840F021
:1006700001000E490860084640680D4908400B49D2
:100680004860084600680B49084008490860084669
:10069000006820F4802008600846406820F4FE00CE
:1006A000486000208860FFF769FF10BD001002401D
:1006B0000000FFF8FFFFF6FECA430282704721B137
:1006C000028842F00102028004E0028840F2FE3318
:1006D0001A400280704702460020138A0B400BB17B
:1006E000012000E00020704781847047028802F0FA
:1006F0008F020280CA884B881A4303881A430280FB
:100700008A8882850A880285054A904202D0054A75
:10071000904201D10A7A028601228282704700004B
:10072000002C01400034014021B1828942F4005282
:10073000828104E082894DF6FF731A4082817047FE
:1007400010B504462349601A8C422BD006DC22489F
:10075000204498B1B0F5806F38D119E0B0F5806FC2
:100760002AD0B0F56C4F31D101218803FFF78CFE00
:1007700000214FF48040FFF787FE28E00121480464
:10078000FFF762FE00214FF40030FFF75DFE1EE030
:1007900001218804FFF758FE00214FF48020FFF765
:1007A00053FE14E00121C804FFF74EFE00214FF470
:1007B0000020FFF749FE0AE001210805FFF744FE8B
:1007C00000214FF48010FFF73FFE00E000BF00BFA4
:1007D00010BD0000004C004000BCFFBF02460020DE
:1007E00013880B400BB1012000E00020704700008F
:1007F0002DE9F04786B005460E460024A24600BF0C
:1008000000BF00272F462C8A4CF6FF700440F0886A
:1008100004432C82AC894EF6F3100440B088318931
:100820000843718908430443AC81AC8A4FF6FF400A
:100830000440B0890443AC8201A8FFF735FE12489A
:10084000874202D1DDF810A001E0DDF80CA00AEB30
:10085000CA0000EB0A1031688900B0FBF1F864208F
:10086000B8FBF0F004012009642101FB108932205B
:1008700000EB0910B0FBF1F000F00F0004432C81F5
:1008800006B0BDE8F08700000038014000B503461F
:100890001DE0322000F06AF8322000F067F83220C4
:1008A00000F064F8322000F061F8322000F05EF8C9
:1008B000322000F05BF8322000F058F8322000F0CF
:1008C00055F8322000F052F8322000F04FF8181E90
:1008D000A3F10101CBB2DCD100BD000000B589B0AD
:1008E00001A8FFF7E1FD01210846FFF79DFD00206B
:1008F000ADF81E00ADF81A00FF20ADF81C00002076
:100900008DF8200018490398B0FBF1F0401E80B22A
:10091000ADF8180006A94FF08040FFF7E7FE01216F
:100920008807FFF7C9FE00214FF08040FFF7DCFE8B
:1009300001218807FFF7C3FE00BF01218807FFF7E9
:10094000CAFE0028F9D000214FF08040FFF7B7FE23
:1009500000214FF08040FFF7C7FE01218807FFF715
:10096000ABFE09B000BD000040420F0000EB4001AB
:10097000C1EBC0114FF6FF7202EAC1014FF0804295
:100980009185002191841146098841F0010111806F
:1009900000BF4FF08041098A01F001010029F8D021
:1009A0004FF08041098A21F001014FF0804211820D
:1009B0001146098821F001011180704730B90749BB
:1009C000096881F02001054A116005E004490968C1
:1009D00081F02001024A1160704700000C0C0140B8
:1009E0000C18014008B501214820FFF73DFD1020FB
:1009F0008DF8030002208DF802002020ADF80000E1
:100A000069460948FFF782FC20210748FFF709FDE6
:100A10002020ADF8000069460448FFF777FC20214C
:100A20000248FFF7FEFC08BD000C01400018014021
:100A300010B586B0044601210420FFF715FD1820EB
:100A40008DF8170002208DF816000002ADF8140092
:100A500005A91848FFF75AFC04208DF8170000027A
:100A6000ADF8140005A91348FFF750FC1248FFF732
:100A700067FE01218803FFF7F7FC01940020ADF821
:100A800010000C20ADF80E000020ADF80C00ADF801
:100A90000A00ADF8080000210748FFF745FE01A94C
:100AA0000548FFF7A5FE01210348FFF73DFE06B00C
:100AB00010BD0000000801400038014070B5044638
:100AC000002547F6FF7610E020210C48FFF786FE50
:100AD00040B10A48001D00882070641C681CC5B223
:100AE00047F6FF76642D00D104E0301EA6F1010127
:100AF0008EB2E9D100BF284670BD00000038014029
:100B000070B504460D460BE000BF80210748FFF793
:100B100065FE0028F9D020780449091D0880641C6E
:100B2000281EA5F10101CDB2EED170BD0038014003
:100B300008B54FF41650FFF77BFFFFF7A9FBFFF74F
:100B4000CDFEFFF74FFF0EE0082000900648172269
:100B5000352103681220FFF7BFFB0020FFF72EFFAF
:100B60000320FFF793FEEFE700000020C012341AC5
:100B700017C44F4B0D0A0000617368696E696E6798
:100B800000000000A40B0008000000201800000076
:100B90006C010008BC0B0008180000206002000077
:100BA00088010008780B000800000000010203041F
:0C0BB000010203040607080902040608FD
:0400000508000131BD
:00000001FF
