:020000040800F2
:10000000E8440020290200080D2C0008DB27000826
:10001000092C000879070008493A00080000000090
:100020000000000000000000000000003B0200088B
:100030005B080008000000000F2C0008252D0008B8
:10004000430200084302000843020008430200087C
:10005000430200084302000843020008430200086C
:1000600043020008430200085D080008430200083C
:10007000430200084302000843020008430200084C
:10008000430200084302000843020008430200083C
:100090004302000843020008430200086708000802
:1000A000430200084302000843020008430200081C
:1000B000430200084302000843020008430200080C
:1000C00043020008430200084302000843020008FC
:1000D00043020008093A00084302000843020008EE
:1000E00043020008430200084302000843020008DC
:1000F0004302000843020008452E0008430200089E
:1001000043020008430200084302000843020008BB
:1001100043020008430200084302000843020008AB
:10012000430200084302000843020008430200089B
:10013000430200084302000843020008430200088B
:10014000430200084302000843020008430200087B
:10015000430200084302000843020008430200086B
:10016000430200084302000843020008430200085B
:100170004302000843020008430200080000000098
:10018000430200084302000800F002F800F03CF8C7
:100190000AA090E8000C82448344AAF10107DA45E2
:1001A00001D100F031F8AFF2090EBAE80F0013F0F8
:1001B000010F18BFFB1A43F001031847CC3D0000A4
:1001C000EC3D0000103A24BF78C878C1FAD8520735
:1001D00024BF30C830C144BF04680C6070470000C1
:1001E0000023002400250026103A28BF78C1FBD840
:1001F000520728BF30C148BF0B6070471FB503F0DE
:10020000ADFE1FBD10B510BD00F00CF91146FFF793
:10021000F5FF03F05FFD00F03EF903B4FFF7F2FFD6
:1002200003BC03F02FFC0000094880470948004741
:10023000FEE7FEE7FEE7FEE7FEE7FEE7FEE7FEE796
:10024000FEE7FEE704480549054A064B70470000F3
:10025000E12D000889010008E8040020E84400209E
:10026000E8240020E8240020704753EA020C00F044
:1002700069802DE9F04B4FF00006002B1FBFB3FA49
:1002800083F503FA05F424FA05F65E4012BF16431F
:10029000B2FA82F502FA05F4C5F120051EBF22FA72
:1002A00005FC44EA0C04203556EA044C4FEA144499
:1002B00018BF641C4FF000084FF00009904271EB2A
:1002C000030C39D3002919BFB1FA81F701FA07F6F7
:1002D000B0FA80F700FA07F6C7F120071EBF20FA30
:1002E00007FC46EA0C062037B6FBF4FCA7EB050733
:1002F000103F07F01F0BCBF120060CFA0BFB2CFA7A
:1003000006F644BFB3460026202FA4BF5E464FF03A
:10031000000B5BEA060C08BF4FF0010B19EB0B0951
:10032000ABFB027C48EB0608C01B06FB02CC0BFBB8
:1003300003CC71EB0C01C1E70B460246414648462F
:10034000BDE8F08B13B54FF000004FF00001AFF3A4
:100350000080BDE81C4070470FB4044910B503AAE3
:10036000029800F031F810BC5DF814FB6800002022
:100370004FF0000200B5134694469646203922BF3E
:10038000A0E80C50A0E80C50B1F12001BFF4F7AF89
:10039000090728BFA0E80C5048BF0CC05DF804EB6B
:1003A000890028BF40F8042B08BF704748BF20F8D9
:1003B000022B11F0804F18BF00F8012B70477047D7
:1003C0007047704770470000074B70B50D467B447F
:1003D00000F011F80446284600F020F810B14FF064
:1003E000FF3070BD204670BDD338000001694A1C43
:1003F00002610878704700B58FB0CDE90131002166
:10040000059105497944CDE903101146684600F08D
:100410002EF80FB000BD0000E5FFFFFF007B00F0ED
:1004200080007047754600F03FF8AE46050069460B
:10043000534620F00700854618B020B5FFF702FFAD
:10044000BDE820404FF000064FF000074FF00008D5
:100450004FF0000B21F00701AC46ACE8C009ACE856
:10046000C009ACE8C009ACE8C0098D4670472DE969
:10047000F04106460024D6E90170F5688046304612
:1004800003E04146B847641C3046A8470028F8D12D
:100490002046BDE8F08110B50446AFF30080204649
:1004A000BDE81040FFF7B9BE00487047880400203F
:1004B00010B501221021024800F08AFB10BD000097
:1004C0000000024010B500221021024800F080FB1D
:1004D00010BD0000000002407047000010B501226E
:1004E0001146024800F074FB10BD000000040240F9
:1004F00010B500220121024800F06AFB10BD000087
:1005000000040240704710B5044603E04FF47A70CF
:1005100000F006F8201EA4F101018CB2F6D110BD46
:1005200070B5034600BF00BF0020002200BF4FF09F
:10053000E0267569A82603FB06F44FF0E026B169B2
:1005400010E04FF0E026B06988420BD0884202D21A
:100550000E1A324402E02E1A0E4432440146A242E0
:1005600000D300E0EDE700BF70BD10B50024FFF739
:10057000B3FFFFF7C7FF03F087FA044303F018FB4C
:100580000443204610BD00002DE9FC4105460E46FF
:100590001746002000900190FFF794FF922000F092
:1005A000D1F806226946122000F0ACF8FFF780FF70
:1005B0009DF80100000200B29DF8001040EA01041D
:1005C00000EE104AB8EEC00A4C48D0ED000A20EE0A
:1005D000200A86ED000A9DF80300000200B29DF893
:1005E000021040EA010400EE104AB8EEC00A434887
:1005F000D0ED000A20EE200A86ED010A9DF80500E4
:10060000000200B29DF8041040EA010400EE104A16
:10061000B8EEC00A3948D0ED000A20EE200A86ED77
:10062000020AFFF765FF08226946002000F06AF819
:10063000FFF754FF9DF800000F2838D19DF8030004
:10064000000200B29DF8021040EA010400EE104AD8
:10065000B8EEC00A2A48D0ED000A20EE200A85ED47
:10066000000A9DF80500000200B29DF8041040EA5F
:10067000010400EE104AB8EEC00A2148D0ED000A8D
:1006800020EE200A85ED010A9DF80700000200B265
:100690009DF8061040EA010400EE104AB8EEC00AC8
:1006A0001748D0ED000A20EE200A85ED020AFFF778
:1006B00009FFA22000F046F802226946222000F03D
:1006C00021F8FFF7F5FE9DF80000C0009DF801102D
:1006D00040EA6114B4F5806F02DBA4F5006004B257
:1006E00000EE104AF8EEC00AB4EE001AB3EE070AA4
:1006F00000EE810A87ED000ABDE8FC818000002041
:100700008400002070B506460C46154646F0800071
:1007100000F018F806E0552000F014F82070641C72
:10072000681EC5B2002DF6D170BD70B504460D46E9
:1007300044F0800000F006F8552000F003F828701F
:1007400070BD000001B582B04FF47A70012301AA98
:1007500002A90090024800F093FF9DF804000EBD2E
:10076000A801002070B505460C462846FFF7EAFFB1
:100770002046FFF7E7FF70BD00BFFEE7014608789F
:1007800010381823B0FBF3F20848805CC865032AD0
:1007900005D908686FF30900001D886503E0086843
:1007A0006FF309008865886D704700007E3F000880
:1007B000014600208A6A8B69CBB932B1012A0DD07B
:1007C000022A03D0032A10D10EE000BFCB6A03F047
:1007D0008073B3F1807F00D1012007E0CB6AB3F1D1
:1007E000C07F00D1012001E000E000BF34E08B6950
:1007F000B3F5005F1AD132B1012A07D0022A03D023
:10080000032A11D10AE000BF01200EE0CB6A03F0F9
:100810008073B3F1807F00D1012006E0CB6AB3F191
:10082000C07F00D1012000E000BF15E032B1012AF5
:1008300005D0022A04D0032A0CD103E000BF00BF78
:10084000012008E0CB6A03F08073B3F1807F00D110
:10085000012000E000BF00BF7047704710B51020B6
:1008600000F0A8F810BD10B5202000F0A3F810BDCE
:100870007047014691F83500022803D08020486572
:1008800001207047052081F835000868006820F0D5
:1008900001000A6810600020F3E700002DE9F04134
:1008A0000446002500F09AF9074614B90120BDE876
:1008B000F081606A00B100BF00BF002084F83400FE
:1008C00000BF022084F835002068006820F0010095
:1008D000216808600AE000F081F9C01B052805D9ED
:1008E00020206065032084F83500E0E72068006878
:1008F00000F001000028EED120680568214805407D
:10090000D4E901010843E1680843216908436169AA
:100910000843A1690843E1690843216A0843054384
:10092000606A042803D1D4E90B0108430543206819
:1009300005602068456925F00705606A0543606A1F
:1009400004280DD1A06A0543E06A48B12046FFF7AC
:100950002FFF28B140206065012084F83500A6E70C
:10096000206845612046FFF709FF064694F85C10B1
:100970003F208840B06000206065012084F8350089
:10098000002094E73F8010F070B5044600F026F98F
:1009900006462546681C10B104480078054400BF8F
:1009A00000F01CF9801BA842FAD370BD7C00002027
:1009B0007047000010B5044604480068204020B18C
:1009C000024804602046FFF7F3FF10BD143C0140CD
:1009D000F8B502460B460025002400200021DCE08B
:1009E000012606FA01F51E6806EA0504AC4273D139
:1009F0005E68012E08D05E68022E05D05E68112E5A
:100A000002D05E68122E13D190684F000326BE40BC
:100A1000B0434F00DE68BE4030439060506801260E
:100A20008E40B0431E79C6F300168E4030435060AE
:100A3000D0684F000326BE40B0434F009E68BE40C2
:100A40003043D0605E68022E02D05E68122E13D151
:100A5000CF0802F1200656F827004E07F70E0F26A2
:100A6000BE40B0434F07FF0E1E69BE403043CF0863
:100A700002F1200646F8270010684F000326BE400A
:100A8000B0431E7906F003064F00BE4030431060AD
:100A90005E6806F08056B6F1805F7DD100BF00260B
:100AA0000096404E366846F480463E4F3E603E46D5
:100AB000366806F48046009600BF00BF3A4E8F08A5
:100AC00056F827008E07370F0F26BE40B043374E2B
:100AD000B24202D1002624E05EE0354EB24201D19E
:100AE00001261EE0334EB24201D1022619E0324EF9
:100AF000B24201D1032614E0304EB24201D10426A5
:100B00000FE02F4EB24201D105260AE02D4EB2422F
:100B100001D1062605E02C4EB24201D1072600E0A5
:100B200008268F073F0FBE4030431F4E8F0846F800
:100B30002700264E3068A0435E6806F48036B6F57E
:100B4000803F00D12043214E3060361D3068A043E5
:100B50005E6806F40036B6F5003F00D120431B4E18
:100B6000361D3060361D3068A0435E6806F480167E
:100B7000B6F5801F00D12043144E08363060361D74
:100B80003068A0435E6806F40016B6F5001F00D179
:100B900020430E4E0C363060491C1029FFF420AF64
:100BA000F8BD00004438024008380140000002400F
:100BB0000004024000080240000C02400010024005
:100BC0000014024000180240001C0240003C01409A
:100BD0000AB1816101E00B0483617047014800683C
:100BE000704700007400002003480068034909783A
:100BF0000844014908607047740000207C00002010
:100C000010B50D48006840F400700B4908600846B4
:100C1000006840F4806008600846006840F4807016
:100C20000860032000F0A2F8002000F007F800F0B0
:100C30002BF8002010BD0000003C024070B50446B7
:100C40000E4800784FF47A71B1FBF0F00C49096856
:100C5000B1FBF0F5284600F028FE08B1012070BD78
:100C6000102C07D200222146501E00F041F8054802
:100C7000046001E00120F2E70020F0E77C000020A2
:100C8000700000207800002008B500BF0020009010
:100C90000E48006840F480400C490860084600682F
:100CA00000F48040009000BF00BF00BF0020009013
:100CB000081F006840F08050091F0860084600685F
:100CC00000F08050009000BF00BF08BD44380240D3
:100CD00001460846002809DB00F01F0301229A4064
:100CE00043099B0003F1E023C3F8002100BF7047D4
:100CF0002DE9F05F80460D461646002702F0A6FE5D
:100D0000074639462A46334601F00700C0F1070A74
:100D1000BAF1040F02D94FF0040A01E0C0F1070A4A
:100D2000D14600F1040ABAF1070F02D24FF0000ACF
:100D300001E0A0F1030AD4464FF0010A0AFA09FAC9
:100D4000AAF1010A0AEA020A0AFA0CFA4FF0010BA8
:100D50000BFA0CFBABF1010B0BEA030B4AEA0B0499
:100D60002146404602F07AFEBDE8F09F00BF00F049
:100D70000702064B19684FF6FF031940044B0B435B
:100D800043EA0221014B196000BF70470CED00E0FF
:100D90000000FA0570B504460D460CB9012070BD7F
:100DA0005848006800F00F00A84209D255490D705C
:100DB0000846006800F00F00A84201D00120EEE7CD
:100DC000207800F0020002281DD1207800F00400F5
:100DD000042805D14C48006840F4E0504A490860B6
:100DE000207800F00800082805D14748006840F442
:100DF0006040454908604448006820F0F000A16860
:100E0000084341490860207800F00100A8B36068F9
:100E1000012807D13C4808380068C0F34040B8B901
:100E20000120BCE76068022802D06068032807D16F
:100E3000354808380068C0F3406048B90120AEE783
:100E4000314808380068C0F3400008B90120A6E71F
:100E50002D48006820F00300616808432A490860B3
:100E6000FFF7BCFE064609E0FFF7B8FE801B41F223
:100E70008831884202D9032091E707E022480068C0
:100E800000F00C006168B0EB810FEDD11D480068E7
:100E900000F00F00A84209D91A490D7008460068F1
:100EA00000F00F00A84201D0012078E7207800F080
:100EB0000400042807D11448006820F4E050E168D9
:100EC000084311490860207800F00800082808D17C
:100ED0000D48006820F46040216940EAC1000A49D9
:100EE000086000F03FF808490968C1F30311074A98
:100EF000515CC8400649086006480068FFF79EFE3E
:100F000000204CE7003C024008380240663F0008E1
:100F10007000002078000020014800687047000041
:100F20007000002000B5FFF7F7FF04490968C1F31E
:100F30008221034A515CC84000BD000008380240CD
:100F4000763F000800B5FFF7E7FF04490968C1F3E1
:100F50004231034A515CC84000BD000008380240DD
:100F6000763F00082DE9F047002400250026A14621
:100F70002548006800F00C0020B1042805D008289E
:100F80003AD105E0DFF8849039E0DFF8849036E06C
:100F90001D48001F006800F03F041B48001F006848
:100FA00000F4800078B11A481749091F0968C1F395
:100FB0008811A0FB01700146224600233846FFF746
:100FC00054F905460EE011480F49091F0968C1F39D
:100FD0008811A0FB01700146224600233846FFF726
:100FE00044F905460848001F0068C0F30140401C52
:100FF0004600B5FBF6F902E0DFF8109000BF00BF35
:101000004846BDE8F0870000083802400024F4009C
:10101000001BB700F8B504460CB90120F8BD2078D4
:1010200000F00100002874D0F948006800F00C00BE
:1010300004280DD0F648006800F00C00082813D1F1
:10104000F348001F006800F48000B0F5800F0BD15A
:10105000EF4808380068C0F34040002859D0606865
:10106000002856D10120D9E700BF6068B0F5803F65
:1010700008D1E7480838006840F48030E44908396E
:1010800008601EE06068B0F5A02F0DD1E048083878
:10109000006840F48020DE4908390860084600688E
:1010A00040F4803008600CE0D9480838006820F42B
:1010B0008030D749083908600846006820F480204D
:1010C000086000BF606890B1FFF788FD054606E044
:1010D000FFF784FD401B642801D903209EE7CC481C
:1010E00008380068C0F340400028F1D011E0FFF755
:1010F00075FD054606E0FFF771FD401B642801D928
:1011000003208BE7C24808380068C0F3404000283D
:10111000F1D1207800F0020002285FD1BC480068BD
:1011200000F00C0058B1BA48006800F00C00082824
:101130001CD1B748001F006800F48000B0B9B44863
:1011400008380068C0F3400020B1E068012801D0F1
:10115000012063E7AE480838006820F0F8002169F4
:1011600040EAC100AA490839086037E0E06800B3E6
:101170000120A8490860FFF731FD054606E0FFF7AA
:101180002DFD401B022801D9032047E7A04808385D
:101190000068C0F340000028F1D09D48083800687E
:1011A00020F0F800216940EAC10099490839086037
:1011B00014E0002097490860FFF710FD054606E09F
:1011C000FFF70CFD401B022801D9032026E79048B9
:1011D00008380068C0F340000028F1D1207800F002
:1011E000080008282CD16069A8B101208A4908604C
:1011F000FFF7F4FC054606E0FFF7F0FC401B022871
:1012000001D903200AE782486C300068C0F340002F
:101210000028F1D014E000207F490860FFF7DEFCD1
:10122000054606E0FFF7DAFC401B022801D903203F
:10123000F4E677486C300068C0F340000028F1D134
:10124000207800F00400042870D10027704838305E
:10125000006800F0805090B900BF002000906C48FA
:101260003830006840F080506949383108600846DD
:10127000006800F08050009000BF00BF0127674861
:10128000006800F48070B0B96448006840F4807071
:1012900062490860FFF7A2FC054606E0FFF79EFCE6
:1012A000401B022801D90320B8E65C48006800F41E
:1012B00080700028F2D000BFA068012808D15448EF
:1012C0006830006840F001005149683108601DE055
:1012D000A06805280DD14E486830006840F0040031
:1012E0004B49683108600846006840F0010008601A
:1012F0000CE047486830006820F00100444968313C
:1013000008600846006820F00400086000BFA0687C
:10131000A8B1FFF763FC054609E0FFF75FFC401B3F
:1013200041F28831884202D9032077E626E0384826
:1013300068300068C0F340000028EED013E0FFF7EB
:101340004DFC054608E0FFF749FC401B41F288319F
:10135000884201D9032061E62D4868300068C0F357
:1013600040000028EFD1012F07D12948383000680C
:1013700020F0805026493831086000BFA06900285D
:1013800045D02348006800F00C0008285DD0A06913
:10139000022845D100201F490866FFF71FFC0546BB
:1013A00006E0FFF71BFC401B022801D9032035E6AD
:1013B000174808380068C0F340600028F1D1D4E92C
:1013C00007010843616A40EA81110122A06AC2EB69
:1013D000500041EA00412C20005D41EA00600C49C8
:1013E000091F086001200B490866FFF7F7FB054657
:1013F00006E0FFF7F3FB401B022801D903200DE6AE
:10140000034808380068C0F340600028F1D03FE08E
:101410000838024000004742800E474200700040FA
:1014200000201C490866FFF7D9FB054606E0FFF7D8
:10143000D5FB401B022801D90320EFE516480068C0
:10144000C0F340600028F2D122E0A069012800D159
:10145000E4E51148001D066806F48001E069814258
:1014600014D106F03F01206A81420FD147F6C070C7
:101470003040616A884209D106F44031A06A814255
:1014800004D106F07061E06A814201D00120C5E517
:101490000020C3E5000047420038024010B5044672
:1014A0000CB9012010BD606A00B900BF0021A16223
:1014B00094F8510028B9002084F85000204600F02C
:1014C00033F8022084F851002068006820F04000C2
:1014D00021680860D4E901010843E16808432169F3
:1014E000084361690843218B01F400710843E169F5
:1014F0000843216A0843A16A08432168086004215F
:10150000A06901EA1040616A0843216848602068C8
:10151000C06920F400602168C86100206065012076
:1015200084F851000020BDE710B586B004461421B0
:1015300001A8FEF71DFF4B49206888427ED100BFFD
:10154000002000904848006840F4805046490860F8
:101550000846006800F48050009000BF00BF00BF44
:101560000020009040481438006840F002003E49D6
:10157000143908600846006800F00200009000BFBF
:1015800000BF00BF002000900846006840F0010046
:1015900008600846006800F00100009000BF00BF2E
:1015A0001820019002200290002003900320049054
:1015B0000520059001A92D48FFF70AFA8020019027
:1015C0000220029000200390032004900520059043
:1015D00001A92748FFF7FCF92648274908604FF082
:1015E000C0604860002124488160C1604FF4806180
:1015F0000161002141618161C1614FF440310162AB
:1016000000214162FFF74AF908B1FFF731F900BF45
:101610001948E064846300BF164818301749086011
:101620004FF0C06048604021144881600021C160D3
:101630004FF4806101610021416100E010E08161AF
:10164000C1614FF40031016200214162FFF726F9C8
:1016500008B1FFF70DF900BF0848A064846300BF1C
:1016600006B010BD00300140443802400004024082
:10167000000002404064024000020020600200209E
:101680002DE9FF5F0446884691461D460E9E0120C7
:1016900002900020019000BF94F85000012803D16F
:1016A000022004B0BDE8F09F012084F8500000BF84
:1016B000FFF794FA074694F851B060680390AA4681
:1016C000BBF1010F0BD00398B0F5827F04D1A06865
:1016D00010B9BBF1040F02D002200190DBE0B8F199
:1016E000000F03D0B9F1000F00D015B9012001900F
:1016F000D1E094F85100042802D0052084F851006C
:1017000000206065C4F83890E587A587C4F830806C
:10171000E586A586206460642068006800F04000CB
:10172000402805D02068006840F04000216808602B
:10173000E068B0F5006F4AD1606810B1BAF1010FEE
:1017400009D1206B00882168C860206B801C206351
:10175000E08E401EE08633E02068806800F00200E2
:10176000022810D1E08E70B1029801280BD1206BB5
:1017700000882168C860206B801C2063E08E401EBA
:10178000E086002002902068806800F0010068B1C7
:10179000E08F58B12068C068A16B0880A06B801CE6
:1017A000A063E08F401EE08701200290FFF716FA49
:1017B000C01BB04204D3701C10B1032001906AE03A
:1017C000E08E0028C8D1E08F0028C5D14AE06068CB
:1017D00010B1BAF1010F09D1206B007821680873AC
:1017E000206B401C2063E08E401EE08634E02068C1
:1017F000806800F00200022810D1E08E70B10298DB
:1018000001280BD1206B007821680873206B401CE5
:101810002063E08E401EE0860020029020688068F1
:1018200000F0010068B1E08F58B12068C068A16B7A
:101830000870A06B401CA063E08F401EE087012071
:101840000290FFF7CBF9C01BB04201D3701C00B966
:1018500016B9032001901EE0E08E0028C7D1E08F6A
:101860000028C4D13A463146204601F0D1F920B1D2
:1018700001200190202060650DE0A06850B900BFF4
:10188000002000902068C068009020688068009068
:1018900000BF00BF00BF012084F8510000BF00203E
:1018A00084F8500000BF0198FBE670B50446254659
:1018B000681EB0F1807F01D301200FE0681E4FF059
:1018C000E02148610F214FF0FF3002F0C7F80020FF
:1018D0004FF0E021886107200861002070BD70474B
:1018E000704710B50346002200BF93F83C00012862
:1018F00001D1022010BD012083F83C0000BF22F07E
:10190000FF00CC6840EA040222F440708C6840EA90
:10191000040222F480604C6840EA040222F4006071
:101920000C6840EA040222F480500C6940EA040288
:1019300022F400504C6940EA040222F48040CC6951
:1019400040EA04021868426400BF002083F83C00AB
:1019500000BF00BFCEE7000030B502460B4600BF17
:1019600092F83C00012801D1022030BD012082F80C
:101970003C0000BF022082F83D00106844681068F7
:10198000816824F070041868044310684460184D9E
:101990001068A8421BD01068B0F1804F17D0154DC9
:1019A0001068A84213D0144D1068A8420FD0134DF0
:1019B0001068A8420BD0124D1068A84207D0114DF4
:1019C0001068A84203D0104D1068A84205D121F03C
:1019D00080015868014310688160012082F83D0051
:1019E00000BF002082F83C0000BF00BFBDE7000040
:1019F000000001400004004000080040000C0040CE
:101A000000040140004001400018004010B50446A9
:101A10000CB9012010BD94F83D0028B9002084F8CD
:101A20003C00204600F00CF8022084F83D00211D07
:101A3000206801F00FFA012084F83D000020E9E75A
:101A400008B5144A016891420FD100BF00210091EE
:101A50001149096841F001010F4A116011460968F6
:101A600001F00101009100BF13E00C4A01689142AE
:101A70000FD100BF002100910749096841F40031EE
:101A8000054A11601146096801F40031009100BF58
:101A900000BF08BD0000014044380240004401403E
:101AA0000146022081F83D000868806800F00702C6
:101AB000062A05D00868006840F001000B6818602D
:101AC000012081F83D00002070472DE9F0410446D7
:101AD0000D4600BF94F83C00012802D10220BDE869
:101AE000F081012084F83C0000BF022084F83D0012
:101AF0002068866826F0770626F47F462068866090
:101B00002868502833D00CDC202850D004DC002872
:101B10004BD0102851D149E0302849D040284CD131
:101B200039E060282DD0702807D0B0F5805F03D051
:101B3000B0F5005F41D10DE040E0D5E902136A68DD
:101B4000206801F004FA2068866846F0770620686D
:101B5000866033E0D5E902136A68206801F0F7F97E
:101B60002068806840F480402168886026E0EA6848
:101B70006968206801F0DCFA5021206801F0F2F970
:101B80001CE0EA686968206801F02EFB602120688B
:101B900001F0E8F912E0EA686968206801F0C8FA23
:101BA0004021206801F0DEF908E000BF00BF00BF5F
:101BB0002968206801F0D6F900E000BF00BF0120CD
:101BC00084F83D0000BF002084F83C0000BF00BF47
:101BD00085E7000010B50446207F01286AD1364809
:101BE000007870B90021204600F099FB00EE100A41
:101BF000B8EE400A314880ED000A01202E490870F5
:101C000058E02D480078E0B30021204600F087FB23
:101C100000EE100AB8EE400A294880ED000A90ED67
:101C2000000A2648D0ED000AB4EEE00AF1EE10FA00
:101C30000BDD234890ED000A2048D0ED000A30EE7D
:101C4000600A204880ED000A26E01D4890ED000A59
:101C50001A48D0ED000AB4EEE00AF1EE10FA19D2FB
:101C60001948008800EE100AB8EE400A1348D0ED7B
:101C7000000A30EE600A1248D0ED000A30EE200A69
:101C800000E017E0F7EE000A30EE200A0D4880ED84
:101C9000000A01E0FEF7ECFD0C4890ED000A09484F
:101CA000D0ED000A80EE201A094880ED001A0020CD
:101CB0000149087010BD00003800002028000020F5
:101CC0002C000020300000202200002024000020F2
:101CD000340000202DE9F04104460D46164600BFB1
:101CE00094F83C00012802D10220BDE8F0810120D7
:101CF00084F83C0000BF022084F83D0096B9EB68F0
:101D0000D5E90012206801F027FA2068806920F0E8
:101D10000C002168886120688069A96808432168EF
:101D200088613DE0042E13D1EB68D5E900122068EC
:101D300001F06EFA2068806920F4406021688861B3
:101D400020688069A96840EA01202168886127E04D
:101D5000082E12D1EB68D5E90012206801F075FA5F
:101D60002068C06920F00C002168C8612068C06943
:101D7000A96808432168C86112E0EB68D5E9001240
:101D8000206801F07EFA2068C06920F44060216874
:101D9000C8612068C069A96840EA01202168C8615B
:101DA000012084F83D0000BF002084F83C0000BF03
:101DB00000BF9AE710B504460CB9012010BD94F895
:101DC0003D0028B9002084F83C00204600F00CF8C3
:101DD000022084F83D00211D206801F03BF801201D
:101DE00084F83D000020E9E710B586B004461421D0
:101DF00001A8FEF7BDFA2D492068884254D100BFE2
:101E0000002000902A48006840F00200284908603D
:101E10000846006800F00200009000BF00BF00BF4D
:101E20000020009022481438006840F48070204957
:101E3000143908600846006800F48070009000BF04
:101E400000BF00BF002000900846006840F004007A
:101E500008600846006800F00400009000BF00BF62
:101E60008020019002200290012003900220049023
:101E70000320059001A90F48FEF7AAFD402001901C
:101E8000022002900120039002200490032005907C
:101E900001A90948FEF79CFD002211462E20FEF7FD
:101EA00027FF2E20FEF714FF06B010BD00040140EE
:101EB00044380240002002400008024070B5044649
:101EC0000D4635B1042D0BD0082D10D00C2D1CD192
:101ED00014E02068C06840F002002168C86015E086
:101EE0002068C06840F004002168C8600EE02068E7
:101EF000C06840F008002168C86007E02068C0683A
:101F000040F010002168C86000E000BF00BF01225F
:101F10002946206801F00AF82068806800F007066A
:101F2000062E05D02068006840F001002168086096
:101F3000002070BD10B5044620680069C0F3400061
:101F4000D8B12068C068C0F34000B0B16FF00200A3
:101F500021680861012020772068806900F0030073
:101F600018B12046FFF736FE05E0204600F008F9DC
:101F7000204600F0A5F90020207720680069C0F312
:101F80008000D8B12068C068C0F38000B0B16FF0A5
:101F9000040021680861022020772068806900F42D
:101FA000407018B12046FFF715FE05E0204600F00E
:101FB000E7F8204600F084F90020207720680069C7
:101FC000C0F3C000D8B12068C068C0F3C000B0B191
:101FD0006FF0080021680861042020772068C0693C
:101FE00000F0030018B12046FFF7F4FD05E020469D
:101FF00000F0C6F8204600F063F900202077206842
:102000000069C0F30010D8B12068C068C0F30010A8
:10201000B0B16FF0100021680861082020772068B7
:10202000C06900F4407018B12046FFF7D3FD05E009
:10203000204600F0A5F8204600F042F90020207765
:102040002068006900F0010058B12068C06800F005
:10205000010030B16FF0010021680861204600F0F6
:102060005DF920680069C0F3C01058B12068C068ED
:10207000C0F3C01030B16FF08000216808612046C5
:10208000FFF72DFC20680069C0F3801058B120686C
:10209000C068C0F3801030B16FF040002168086163
:1020A000204600F055F920680069C0F3401058B18F
:1020B0002068C068C0F3401030B16FF02000216884
:1020C00008612046FFF70CFC10BD000010B586B07B
:1020D0000446142101A8FEF74BF9244920688842E0
:1020E0001FD100BF002000902148006840F0100080
:1020F0001F4908600846006800F01000009000BF0B
:1021000000BF4FF4D44001900220029001200390C0
:10211000022004900120059001A91648FEF758FC02
:1021200021E01549206888421DD100BF00200090A1
:102130000F48006840F020000D490860084600681C
:1021400000F02000009000BF00BF4020019002205E
:10215000029001200390022004900320059001A921
:102160000648FEF735FC06B010BD00000000014037
:102170003038024000100240004401400014024088
:10218000704770B504460D46164600BF94F83C00F3
:10219000012801D1022070BD012084F83C0000BF5D
:1021A000022084F83D0036B1042E1BD0082E31D019
:1021B0000C2E5ED145E02946206800F0DDFE206847
:1021C000806940F00800216888612068806920F0FB
:1021D00004002168886120688069296908432168B2
:1021E000886147E02946206800F0FEFE206880698B
:1021F00040F40060216888612068806920F4806074
:102200002168886120688069296940EA0120216885
:1022100088612FE02946206800F024FF2068C0690B
:1022200040F008002168C8612068C06920F00400FF
:102230002168C8612068C069296908432168C861AC
:1022400018E02946206800F049FF2068C06940F482
:1022500000602168C8612068C06920F4806021683E
:10226000C8612068C069296940EA01202168C86105
:1022700000E000BF00BF012084F83D0000BF002047
:1022800084F83C0000BF00BF85E710B504460CB9D8
:10229000012010BD94F83D0028B9002084F83C00CE
:1022A000204600F00CF8022084F83D00211D206833
:1022B00000F0D0FD012084F83D000020E9E77047E0
:1022C0007047000070B504460E4601223146206872
:1022D00000F02CFE0F492068884203D00E49206888
:1022E000884201D1012000E0002028B12068406C24
:1022F00040F40040216848642068806800F00705C9
:10230000062D05D02068006840F0010021680860B3
:10231000002070BD000001400004014070470246EB
:10232000002031B1042907D0082908D00C290CD18C
:1023300008E01368586B09E01368986B06E01368AF
:10234000D86B03E01368186C00E000BF00BF704753
:102350007047704701460022002391F8392091F818
:102360003A3042EA030070472DE9F04704462068FE
:1023700005682068C668206847694FF00008C146B4
:1023800005F00F08B8F1000F0AD105F0200038B1B0
:1023900006F0200020B1204601F084F8BDE8F08767
:1023A000B8F1000F72D007F0010018B906F4907070
:1023B00000286BD005F0010030B106F4807018B130
:1023C000E06B40F00100E06305F0040030B107F07D
:1023D000010018B1E06B40F00200E06305F002007C
:1023E00030B107F0010018B1E06B40F00400E06389
:1023F00005F0080048B106F0200010B907F0010010
:1024000018B1E06B40F00800E063E06B70B305F0DA
:10241000200028B106F0200010B1204601F042F85B
:1024200020684069C0F38019E06B00F0080010B923
:10243000B9F1000F23D0204601F014F8206840695C
:1024400000F04000402816D12068406920F040008C
:1024500021684861606B50B11748616B0865606B1B
:10246000FEF707FA10B1606B016D88470CE020465B
:10247000FFF76FFF08E02046FFF76BFF04E0204600
:10248000FFF767FF0020E06388E7FFE705F08000C3
:1024900030B106F0800018B1204601F04BFA7DE71C
:1024A00005F0400030B106F0400018B1204600F0C1
:1024B000E9FF73E700BF71E75134000810B5044627
:1024C0000CB9012010BDA06900B100E000BF94F874
:1024D000390028B9002084F83800204600F028F898
:1024E000242084F839002068C06820F40050216856
:1024F000C860204601F02AF82068006920F4904066
:10250000216808612068406920F02A00216848613C
:102510002068C06840F400502168C8600020E06373
:10252000202084F8390084F83A000020CAE700002F
:1025300010B586B00446142101A8FDF719FF2E49F5
:102540002068884255D100BF002000902B480068C9
:1025500040F01000294908600846006800F01000AB
:10256000009000BF00BF00BF002000902348143837
:10257000006840F0020021491439086008460068EC
:1025800000F00200009000BF00BF00BF00200090DC
:102590000846006840F0010008600846006800F046
:1025A0000100009000BF00BF802001900220029037
:1025B00000200390032004900720059001A91048F3
:1025C000FEF706FA4FF400700190022002900020FE
:1025D0000390032004900720059001A90948FEF705
:1025E000F7F9002211462520FEF782FB2520FEF791
:1025F0006FFB06B010BD00000010014044380240DF
:10260000000402400000024010B5034693F83A006F
:1026100020282FD101B10AB9012010BD00BF93F8C5
:102620003800012801D10220F7E7012083F83800A3
:1026300000BF99629A85DA850020D863222083F84A
:102640003A0000BF002083F8380000BF1868C06857
:1026500040F480701C68E0601868406940F0010038
:102660001C6860611868C06840F020001C68E06069
:102670000020D2E70220D0E71D4A0168914236D1FE
:102680001C49098801F4004189BB1A49098801F4F1
:10269000804171B1184909780A2903D00021154AEF
:1026A000118024E01349098841F40041114A118046
:1026B0001DE0114909780D2906D10E49098841F418
:1026C00080410C4A118012E00B490978094A1288AE
:1026D000C2F30D02094B995406490988491C054A61
:1026E000118011460988C72901DD0021118070473A
:1026F000001001406C0000206E00002080030020CC
:102700002DE9F84304460D4616461F464FF00009D2
:1027100094F8390020285DD105B116B90120BDE833
:10272000F88300BF94F83800012801D10220F6E7B1
:10273000012084F8380000BF0020E063212084F8E5
:102740003900FEF74BFA8146A684E68400BF0020DC
:1027500084F8380000BF2BE0E08C401EE084A068C5
:10276000B0F5805F16D14B460022802120460097AD
:1027700001F014F908B10320D1E7A846B8F8000029
:10278000C0F3080021684860206908B9AD1C0FE05B
:102790006D1C0DE04B46002280212046009701F081
:1027A000FDF808B10320BAE715F8010B216848606D
:1027B000E08C0028D0D14B460022402120460097D3
:1027C00001F0ECF808B10320A9E7202084F83900D3
:1027D0000020A4E70220A2E7704700BFFEE7000048
:1027E00008B500BF002000900E48006840F480004B
:1027F0000C4908600846006800F48000009000BFA3
:1028000000BF002205213A20FEF772FA3A20FEF7B7
:102810005FFA002211463B20FEF76AFA3B20FEF7E2
:1028200057FA08BD3038024000B587B0142102A81D
:10283000FDF79EFD00BF002001905148006840F068
:1028400002004F4908600846006800F0020001904D
:1028500000BF00BF00BF002001900846006840F0A4
:10286000010008600846006800F00100019000BF08
:1028700000BF00BF002001900846006840F480704F
:1028800008600846006800F48070019000BF00BF37
:1028900000BF002001900846006840F080000860FA
:1028A0000846006800F08000019000BF00BF00BF34
:1028B000002001900846006840F0040008600846C7
:1028C000006800F00400019000BF00BF00BF0020BE
:1028D00001900846006840F0200008600846006843
:1028E00000F02000019000BF00BF00BF0020019059
:1028F0000846006840F0100008600846006800F0D4
:102900001000019000BF00BF012210211D48FEF7FA
:102910005FF9012211461C48FEF75AF91020029077
:102920000120039004900220059002A91548FEF7AB
:102930004FF830200290154803900120049002A91E
:102940001348FEF745F801200290039004900220FE
:10295000059002A90C48FEF73BF8002211460A2018
:10296000FEF7C6F90A20FEF7B3F900221146172038
:10297000FEF7BEF91720FEF7ABF907B000BD000067
:1029800030380240000002400004024000002110E4
:102990000008024010B50F480F4908604FF48270DC
:1029A000486000210C488160C16002210161012161
:1029B0004161490281613821C161002101624162A6
:1029C00081620A21C162FEF769FD08B1FDF750FF7F
:1029D00010BD000000300140A801002000B587B004
:1029E0001C216846FDF7C4FC154816490860002004
:1029F000486000211348816041F28731C1600021A5
:102A000001618161FFF702F808B1FDF731FF0D4860
:102A1000FFF73BFC08B1FDF72BFF60200090002082
:102A2000019002900490002269460648FFF7A9FB36
:102A300008B1FDF71DFF0348FFF748FB07B000BDD5
:102A4000004401404003002000B595B000201190E3
:102A50001290139014900F9010901C2108A8FDF76D
:102A600087FC20216846FDF783FC38483849086018
:102A7000A720486000213648816044F61F61C1608C
:102A80000021016141618161FEF7C0FF08B1FDF7DE
:102A9000EFFE4FF48050119011A92D48FFF715F863
:102AA00008B1FDF7E5FE2A48FFF7EFFB08B1FDF797
:102AB000DFFE00200F9010900FA92548FEF74CFF75
:102AC00008B1FDF7D5FE602008904FF4FA60099038
:102AD00000200A900B900C900D900E90002208A9F7
:102AE0001B48FFF74EFB08B1FDF7C2FE042208A900
:102AF0001748FFF746FB08B1FDF7BAFE082208A900
:102B00001348FFF73EFB08B1FDF7B2FE0C2208A9FF
:102B10000F48FFF736FB08B1FDF7AAFE0020009032
:102B200001900290039004904FF400500590002013
:102B3000079069460648FEF7D4FE08B1FDF798FEF7
:102B40000348FFF7C3FA15B000BD000000000140C4
:102B5000C002002000B587B00020059006900190CB
:102B600002900390049018481849086040F6042029
:102B700048600021154881604FF6FF71C160002157
:102B8000016141618161FFF715F908B1FDF770FE40
:102B900000200590069005A90C48FEF7DDFE08B15F
:102BA000FDF766FE002001900120029000200390B6
:102BB0000490002201A90548FFF78CF808B1FDF741
:102BC00057FE07B000BD00000004014000030020D4
:102BD00010B50B480B4908604FF4165048600021AF
:102BE00008488160C16001610C214161002181615F
:102BF000C161FFF763FC08B1FDF73AFE10BD0000AC
:102C0000001001404804002000BFFEE770477047F5
:102C10007CB504460D461646164800681821B0FBE0
:102C2000F1F01549B0FBF1F04FF47A71484301908F
:102C30006068B0F5827F0DD12B46002280212046AE
:102C4000009600F01BF898B1606D40F020006065C0
:102C500003207CBD00BF019800B908E00198401E28
:102C6000019020688068C0F3C0100028F3D100BF35
:102C70000020EEE77000002040420F002DE9F041F7
:102C800004460E4617461D46DDF818803EE0681CD7
:102C9000D8B3FDF7A3FFA0EB0800A84200D2A5BB64
:102CA0002068406820F0E000216848606068B0F566
:102CB000827F0DD1A068B0F5004F03D0A068B0F5B9
:102CC000806F05D12068006820F04000216808600E
:102CD000A06AB0F5005F0DD100BF2068006820F445
:102CE0000050216808602068006840F400502168A6
:102CF000086000BF012084F8510000BF002084F864
:102D0000500000BF0320BDE8F081FFE72068806825
:102D10003040B04201D1012000E00020B842B6D1DD
:102D20000020F0E710B5FDF75FFF10BD00B593B0D0
:102D3000302107A8FDF71CFB142102A8FDF718FBA2
:102D400000BF002001902448006840F080502249D4
:102D500008600846006800F08050019000BF00BF86
:102D600000BF002001901D48006840F480401B49CE
:102D700008600846006800F48040019000BF00BF72
:102D8000012007900004089002200D9041050E914B
:102D900006210F91A8211091022111910721129172
:102DA00007A8FEF737F908B1FDF762FD0F20029082
:102DB00002200390002004904FF4A05005904FF49F
:102DC00080500690052102A8FDF7E4FF08B1FDF749
:102DD0004FFD13B000BD00004038024000700040BD
:102DE0001448006840F470001249086012480068F6
:102DF00040F001001049086000200F4908310860C8
:102E00000D4800680D4908400B4908600C48091D31
:102E10000860081F006820F48020091F0860002057
:102E200005490C3108604FF00060024980390860A4
:102E30007047000088ED00E000380240FFFFF6FE1A
:102E40001030002410B50248FFF774F810BD0000E0
:102E50000003002010B50268294B98420ED0B0F153
:102E6000804F0BD0274B984208D0274B984205D073
:102E7000264B984202D0264B984203D122F0700292
:102E80004B681A431E4B984220D0B0F1804F1DD0A2
:102E90001C4B98421AD01C4B984217D01B4B98429F
:102EA00014D01B4B984211D01A4B98420ED01A4B9B
:102EB00098420BD0194B984208D0194B984205D034
:102EC000184B984202D0184B984203D122F440721A
:102ED000CB681A4322F080034C6943EA0402026083
:102EE0008B68C3620B688362054B984202D0084B23
:102EF000984201D10B6903630123436110BD0000B7
:102F0000000001400004004000080040000C0040A8
:102F100000040140004001400044014000480140DD
:102F200000180040001C00400020004030B501F0B7
:102F30001F05012404FA05F3046A9C430462046A31
:102F400001F01F0502FA05F52C43046230BD30B5CF
:102F50000C46816821F47F4142EA03252543294339
:102F6000816030BD0A46816821F0700142F007039C
:102F7000194381607047000030B5056A25F00105EE
:102F80000562026A4368846924F0700424F0030433
:102F90000D682C4322F002028D682A43104DA8428E
:102FA00000D103E00F4DA84206D100BF22F0080275
:102FB000CD682A4322F00402094DA84202D0094DEF
:102FC000A84207D123F4807323F400734D692B4387
:102FD0008D692B43436084614D684563026230BD57
:102FE000000001400004014030B5056A25F01005DD
:102FF0000562026A4368846924F4E04424F440745E
:103000000D6844EA052422F020028D6842EA051288
:10301000124DA84200D103E0114DA84207D100BFD4
:1030200022F08002CD6842EA051222F040020B4DE8
:10303000A84202D00A4DA84209D123F4806323F4A8
:1030400000634D6943EA85038D6943EA8503436064
:1030500084614D688563026230BD0000000001405C
:103060000004014030B5056A25F480750562026AE6
:103070004368C46924F0700424F003040D682C43F1
:1030800022F400728D6842EA0522124DA84200D156
:1030900003E0114DA84207D100BF22F40062CD68C1
:1030A00042EA052222F480620A4DA84202D00A4D6B
:1030B000A84209D123F4805323F400534D6943EA15
:1030C00005138D6943EA05134360C4614D68C56308
:1030D000026230BD000001400004014030B5056AC5
:1030E00025F480550562036A4468C26922F4E0420F
:1030F00022F440720D6842EA052223F400538D68E1
:1031000043EA0533084DA84202D0084DA84204D135
:1031100024F480444D6944EA85144460C2614D68DA
:103120000564036230BD000000000140000401405E
:1031300030B50B461446026A056A25F001050562A2
:10314000816921F0F00141EA041122F00A021A43D8
:103150008161026230BD000070B50C461546066AFA
:1031600026F0010606628169026A184EB04214D048
:10317000B0F1804F11D0164EB0420ED0154EB04275
:103180000BD0154EB04208D0144EB04205D0144EAC
:10319000B04202D0134EB04201D1012600E0002619
:1031A0001EB121F00301294301E041F0010121F0AA
:1031B000F001F02606EA0316314322F00A0204F079
:1031C0000A0632438161026270BD000000000140C6
:1031D0000004004000080040000C004000040140D2
:1031E000004001400018004030B50B461446056A07
:1031F00025F0100505628169026A21F4704141EAF7
:10320000043122F0A00242EA03128161026230BD61
:1032100070B50C461546066A26F0100606628169EE
:10322000026A21F4407141EA052121F470414FF412
:10323000704606EA0336314322F0A002A02606EAD1
:10324000041632438161026270BD70B50C461546AA
:10325000066A26F480760662C169026A21F00301DB
:10326000294321F0F001F02606EA0316314322F447
:1032700020624FF4206606EA04263243C1610262EE
:1032800070BD70B50C461546066A26F48056066277
:10329000C169026A21F4407141EA052121F47041BB
:1032A0004FF4704606EA0336314322F420424FF4CD
:1032B000204606EA04363243C161026270BD000056
:1032C00070B505460C464FF6FF7322460249034887
:1032D000FFF716FA70BD0000C4000020480400206B
:1032E0007FB50024AA222146641C58484254052276
:1032F0002146641C4254AF222146641C4254F122F0
:103300002146641C425400222146641C42549DF80C
:1033100001202146641C42549DF800202146641C73
:1033200042549DF805202046611CCCB247490A54FE
:103330009DF804202046611CCCB244490A549DF8F3
:1033400009202046611CCCB240490A549DF808204F
:103350002046611CCCB23D490A549DF80D20204600
:10336000611CCCB239490A549DF80C202046611CDE
:10337000CCB236490A549DF821202046611CCCB2BB
:1033800032490A549DF820202046611CCCB22F49B6
:103390000A549DF825202046611CCCB22B490A54C2
:1033A0009DF824202046611CCCB228490A549DF87F
:1033B00029202046611CCCB224490A549DF82820BB
:1033C0002046611CCCB221490A549DF82D2020468C
:1033D000611CCCB21D490A549DF82C202046611C6A
:1033E000CCB21A490A549DF831202046611CCCB257
:1033F00016490A549DF830202046611CCCB213496E
:103400000A549DF835202046611CCCB20F490A545D
:103410009DF834202046611CCCB20C490A54601F30
:1034200008710025002005E00849095C2944CDB257
:10343000411CC8B2A042F7DB2046611CCCB2034954
:103440000D5421460148FFF73BFF7FBDC40000201B
:1034500070B50546AC6B0020E085E0842046FEF7A1
:1034600078FF70BD0168C96821F490710268D1606D
:103470000168496921F0010102685161202180F849
:103480003A10704710B504462068C06820F040002C
:103490002168C860202084F839002046FFF79CF995
:1034A000002010BD70B5044694F83A0022284AD195
:1034B000A068B0F5805F13D1A56A206940B9206883
:1034C0004068C0F308002880A06A801CA06219E050
:1034D00020684068C0B22880A06A401CA06211E049
:1034E000206938B920684068C1B2A26A501CA06245
:1034F000117007E02068406800F07F01A26A501C4C
:10350000A0621170E08D401E80B2E085C8B92068CD
:10351000C06820F020002168C8602068C06820F4DE
:1035200080702168C8602068406920F0010021682F
:103530004861202084F83A002046FFF79DF80020DB
:1035400070BD0020FCE70220FAE700002DE9F84FEB
:1035500004462068006920F44050E168084321686F
:1035600008612169A068084361690843E16908436B
:1035700000902068C06849F20C61884300990843B4
:103580002168C8602068406920F44070A169084340
:1035900021684861E069B0F5004F75D1E3492068C2
:1035A000884203D0E249206888426FD1FDF7CAFC07
:1035B000814602206168A0FB01510B461920A9FB3E
:1035C00000712A463846FCF750FE6421B0FBF1F04A
:1035D0004FEA001A02206168A0FB01510B46192036
:1035E000A9FB00712A463846FCF73FFE0746022039
:1035F0006168A0FB01510B461920A9FB00B12A46C6
:103600005846FCF732FE6421B0FBF1F000EBC0013C
:1036100001EB0010A7EB8000322101EBC000642118
:10362000B0FBF1F000F0F8000AEB400A02206168FC
:10363000A0FB01510B461920A9FB00712A46384610
:10364000FCF713FE074602206168A0FB01510B4600
:103650001920A9FB00B12A465846FCF706FE642152
:10366000B0FBF1F000EBC00101EB0010A7EB800014
:10367000322101EBC0006421B0FBF1F000F0070043
:103680005044216888604FE16EE0FFE7FDF74AFC97
:10369000814602206168A0FB01510B461920A9FB5D
:1036A00000712A463846FCF7E0FD6421B0FBF1F0DA
:1036B0004FEA001A02206168A0FB01510B46192055
:1036C000A9FB00712A463846FCF7CFFD07460220C9
:1036D0006168A0FB01510B461920A9FB00B12A46E5
:1036E0005846FCF7C2FD6421B0FBF1F000EBC001CD
:1036F00001EB0010A7EB8000322101EBC000642138
:10370000B0FBF1F000F0F8000AEB400A022061681B
:10371000A0FB01510B461920A9FB00712A4638462F
:10372000FCF7A3FD074602206168A0FB0150034699
:103730001920A9FB00B12A465846FCF796FD6421E2
:10374000B0FBF1F000EBC00101EB0010A7EB800033
:10375000322101EBC0006421B0FBF1F000F0070062
:10376000504421688860DFE070492068884203D0B7
:103770006F49206888426BD1FDF7E4FB8146042045
:103780006168A0FB01510B461920A9FB00712A4674
:103790003846FCF76AFD824604206168A0FB0151AF
:1037A0000B461920A9FB00712A463846FCF75DFD3F
:1037B0006421B0FBF1F000EBC00101EB0010AAEBBB
:1037C0008000322101EB00106421B0FBF1F000F029
:1037D000F00A04206168A0FB015003461920A9FBF0
:1037E00000712A463846FCF740FD6421B0FBF1F039
:1037F0000AEB001A04206168A0FB01510B46192056
:10380000A9FB00712A463846FCF72FFD0746042025
:103810006168A0FB015003461920A9FB00B12A46AC
:103820005846FCF722FD6421B0FBF1F000EBC0012B
:1038300001EB0010A7EB8000322101EB00106421A6
:10384000B0FBF1F000F00F005044216888606BE09D
:10385000FDF768FB814604206168A0FB0150034628
:103860001920A9FB00712A463846FCF7FEFC824667
:1038700004206168A0FB015003461920A9FB0071D8
:103880002A463846FCF7F1FC6421B0FBF1F000EB6E
:10389000C00101EB0010AAEB8000322101EB001007
:1038A0006421B0FBF1F000F0F00A04206168A0FB95
:1038B000015003461920A9FB00712A463846FCF73F
:1038C000D4FC6421B0FBF1F00AEB001A042061681B
:1038D000A0FB017003461920A9FB005001463A469F
:1038E0002846FCF7C2FC074604206168A0FB015093
:1038F00003461920A9FB00B12A465846FCF7B5FC3F
:103900006421B0FBF1F000EBC00101EB0010A7EB6C
:103910008000322101EB00106421B0FBF1F000F0D7
:103920000F00504421688860BDE8F88F0010014006
:1039300000140140014691F8390021282CD18868F3
:10394000B0F5805F0FD10A6A1088C0F308000B68D9
:103950005860086918B9086A801C086209E0086A9A
:10396000401C086205E00B6A581C086218780B6856
:103970005860C88C401E80B2C88458B90868C068B6
:1039800020F080000B68D8600868C06840F04000F4
:103990000B68D860002070470220FCE72DE9F04159
:1039A00004460D4617469846069E21E0701CF8B165
:1039B0002EB1FDF713F9A0EB0800B04218D920682A
:1039C000C06820F4D0702168C8602068406920F089
:1039D000010021684861202084F8390084F83A0009
:1039E00000BF002084F8380000BF0320BDE8F0814C
:1039F000206800682840A84201D1012000E0002092
:103A0000B842D3D00020F1E710B50D48FEF7ACFC6A
:103A1000002400BF01E0641C00BF0948FEF79AFCC7
:103A20002028F8D100BF002401E0641C00BF01225F
:103A300004490348FEF7E8FD0028F6D100BF10BD99
:103A4000480400206E00002000BFFEE70248006826
:103A5000C0F30220704700000CED00E010B5002814
:103A600004DB0A07130E054A135406E00A07140E76
:103A7000034A00F00F031B1FD45410BD00E400E004
:103A800018ED00E000BF704770B500250024FCF77A
:103A900019FD8020FCF756FE5520FCF753FE5520FB
:103AA000FCF750FE0546FCF703FD9620FCF738FDB9
:103AB000FCF708FD8020FCF745FE5520FCF742FE90
:103AC0005520FCF73FFE0546FCF7F2FC9620FCF77C
:103AD00027FDFCF7F7FCB6217E20FCF743FEFCF740
:103AE000E7FC5020FCF70FFDFCF7ECFC8020FCF716
:103AF00029FE5520FCF726FE5520FCF723FE05463F
:103B0000FCF7D6FC9620FCF70BFDFCF7DBFC8020D5
:103B1000FCF718FE5520FCF715FE5520FCF712FEA9
:103B20000546FCF7C5FC9620FCF7FAFC1E2D01D0DB
:103B3000FF2070BD002434E0FCF7C4FC04EB440219
:103B40001A4B1A44517804EB4402985CFCF70AFEC5
:103B5000FCF7AEFC9620FCF7E3FCFCF7B3FC04EBAF
:103B60004401124A515C41F08000FCF7EBFD552006
:103B7000FCF7E8FD5520FCF7E5FD0546FCF798FC51
:103B80009620FCF7CDFC04EB44000849084440783B
:103B9000A84204D004EB440008448078C9E7601CC4
:103BA000C4B2062CC8DB0020C3E700008800002058
:103BB00038B5002400200090FCF79AFC69460020EC
:103BC000FCF7B3FDFCF78AFC9620FCF7A9FCFCF798
:103BD0008FFC69460020FCF7A8FDFCF77FFC9620CF
:103BE000FCF79EFCFCF784FCB6211420FCF7BAFD20
:103BF000FCF774FC5020FCF786FCFCF779FC694666
:103C00000020FCF792FDFCF769FC9620FCF788FC8D
:103C1000FCF76EFC69460020FCF787FDFCF75EFCB4
:103C20009620FCF77DFC9DF800000F2801D0FF20B6
:103C300038BD00242FE0FCF75BFC04EB4402184B7A
:103C40001A44517804EB4402985CFCF78BFDFCF7B6
:103C500045FC9620FCF764FCFCF74AFC04EB4401AD
:103C60000F4A505C6946FCF760FDFCF737FC962074
:103C7000FCF756FC04EB44000949084440789DF8E1
:103C80000010884205D004EB4400054908448078C0
:103C9000CEE7601CC4B2062CCDDB0020C8E70000D4
:103CA0009A00002000BF054A126802F04002002A74
:103CB000F9D0C2B2014B5A607047000000100140B9
:103CC0000248007802490880704700008003002005
:103CD0001800002086B0FCF793FFFFF727F8FEF7E7
:103CE000A3FDFEF77DFDFEF735FFFEF7ADFEFEF707
:103CF0006FFFFEF74FFEFEF771FE00BFFCF735FCCD
:103D00000028FBD17B48FDF7CBFE00217948FEF768
:103D1000D9FA04217748FEF7D5FA08217548FEF74D
:103D2000D1FA40F2DC5073490968486300217248B7
:103D3000FEF7C4F871480068C06840F040006F4961
:103D40000968C8606E48D0ED000A6E48008800EE31
:103D5000100AB8EE400A80EE801A6B4880ED001A17
:103D600040F6B830FCF710FEC2E0684A684969487E
:103D7000FCF70AFC6848008800F40040F0B166488F
:103D800000786649087066A0FCF7E6FA4FF47A738B
:103D9000624802786A495948FEF7B2FCFFF790FF83
:103DA00000BF564800680068C0F380100028F8D0B3
:103DB00064A0FCF7D1FA0020574908805548D0ED9F
:103DC000000A624890ED000AB8EEC00A20EE800AB0
:103DD000504880ED000AD0ED010A5C4890ED000AE1
:103DE000B8EEC00A20EE800A4A4880ED010AD0ED04
:103DF000020A564890ED000AB8EEC00A20EE800A8A
:103E0000444880ED020A4248D0ED000A504890ED47
:103E1000000AB8EEC00A20EE800A3D4880ED000A94
:103E2000D0ED010A4A4890ED000AB8EEC00A20EE33
:103E3000800A374880ED010AD0ED020A444890ED2F
:103E4000000AB8EEC00A20EE800A314880ED020A6E
:103E50000A232E4890ED000ABDEEC00A10EE100AAB
:103E600000B22B4991ED020ABDEEC00A10EE101A05
:103E700009B2274A92ED010ABDEEC00A10EE102ADF
:103E800012B2CDE90403CDE90221214890ED000AE8
:103E9000BDEEC00A10EE100A00B21E4991ED020AF2
:103EA000BDEEC00A10EE101A09B2CDE90010194893
:103EB00090ED010ABDEEC00A10EE100A03B21548DB
:103EC00090ED000ABDEEC00A10EE100A02B22148C1
:103ED00090ED000ABDEEC00A10EE100A01B21E48B5
:103EE000008800B2FFF7FCF94FF4FA70FCF74CFDC4
:103EF0003BE70000C002002000030020480400202F
:103F00001C000020200000202400002000000020D1
:103F1000B8000020AC0000206C0000200C00002045
:103F20000D0A546865206D736720796F7520617282
:103F3000652073656E64696E672069733A0D0A00C7
:103F4000800300200D0A0D0A00000000040000207C
:103F50000800002034000020180000204FF04070BE
:103F6000E1EE100A704700000000000000000102AE
:103F7000030406070809000000000102030400060C
:103F80001016000610160000A83F000800000020D0
:103F9000AC000000C401000854400008AC00002040
:103FA0003C440000E001000800000000A086010081
:103FB000E803000000000000000000000000C8440A
:103FC0002C010000A037204D040AFFFF0000000074
:103FD00000000000000000000000000000000000E1
:103FE00000000000000000000000000000000000D1
:103FF00000000000000000000000803F0000000002
:1040000017B7D13817B75138ACC5273700000000B3
:1040100000000000000000000024F4000000000088
:104020001000000001000000E7416B3A58A08B3AF5
:104030007D04017C000240AB034100055308065893
:1040400004070F000810820911000A15800B1600E2
:044050000C18010D3A
:040000050800018965
:00000001FF
