:020000040800F2
:100000005848002029020008A12E0008F329000802
:100010009D2E0008E9060008D93C000800000000F9
:100020000000000000000000000000003B0200088B
:10003000EB07000800000000A32E00085530000860
:10004000430200084302000843020008430200087C
:10005000430200084302000843020008430200086C
:100060004302000843020008ED07000843020008AD
:10007000ED0600084302000843020008430200089E
:10008000430200084302000843020008430200083C
:10009000430200084302000843020008F707000873
:1000A000430200084302000843020008430200081C
:1000B000430200084302000843020008430200080C
:1000C00043020008430200084302000843020008FC
:1000D00043020008393B000843020008793B00084E
:1000E00043020008430200084302000843020008DC
:1000F000430200084302000875310008430200086B
:1001000043020008430200084302000843020008BB
:1001100043020008430200084302000843020008AB
:10012000430200084302000843020008430200089B
:10013000430200084302000843020008430200088B
:10014000430200084302000843020008430200087B
:100150004302000843020008FD06000843020008AD
:10016000430200084302000843020008430200085B
:100170004302000843020008430200080000000098
:10018000430200084302000800F002F800F03CF8C7
:100190000AA090E8000C82448344AAF10107DA45E2
:1001A00001D100F031F8AFF2090EBAE80F0013F0F8
:1001B000010F18BFFB1A43F001031847004D000060
:1001C000204D0000103A24BF78C878C1FAD85207F1
:1001D00024BF30C830C144BF04680C6070470000C1
:1001E0000023002400250026103A28BF78C1FBD840
:1001F000520728BF30C148BF0B6070471FB504F0DD
:1002000040FE1FBD10B510BD00F0CFF81146FFF73E
:10021000F5FF03F0B7FE00F0EDF803B4FFF7F2FFCF
:1002200003BC00F0F5F80000094880470948004782
:10023000FEE7FEE7FEE7FEE7FEE7FEE7FEE7FEE796
:10024000FEE7FEE704480549054A064B70470000F3
:100250001131000889010008580800205848002082
:10026000582800205828002053EA020C00F069802A
:100270002DE9F04B4FF00006002B1FBFB3FA83F5BA
:1002800003FA05F424FA05F65E4012BF1643B2FAEB
:1002900082F502FA05F4C5F120051EBF22FA05FC1D
:1002A00044EA0C04203556EA044C4FEA144418BFC3
:1002B000641C4FF000084FF00009904271EB030CF2
:1002C00039D3002919BFB1FA81F701FA07F6B0FA5C
:1002D00080F700FA07F6C7F120071EBF20FA07FCD7
:1002E00046EA0C062037B6FBF4FCA7EB0507103FE7
:1002F00007F01F0BCBF120060CFA0BFB2CFA06F6CD
:1003000044BFB3460026202FA4BF5E464FF0000B2B
:100310005BEA060C08BF4FF0010B19EB0B09ABFBB6
:10032000027C48EB0608C01B06FB02CC0BFB03CC8F
:1003300071EB0C01C1E70B46024641464846BDE859
:10034000F08B13B54FF000004FF00001AFF30080C9
:10035000BDE81C4070474FF0000200B513469446BC
:100360009646203922BFA0E80C50A0E80C50B1F10D
:100370002001BFF4F7AF090728BFA0E80C5048BF21
:100380000CC05DF804EB890028BF40F8042B08BFBF
:10039000704748BF20F8022B11F0804F18BF00F8BB
:1003A000012B7047704770477047754600F02CF876
:1003B000AE4605006946534620F00700854618B052
:1003C00020B5FFF73FFFBDE820404FF000064FF09B
:1003D00000074FF000084FF0000B21F00701AC467A
:1003E000ACE8C009ACE8C009ACE8C009ACE8C00999
:1003F0008D46704710B50446AFF300802046BDE837
:100400001040FFF70ABF000000487047F4070020C3
:1004100001491820ABBEFEE726000200704700002D
:1004200010B501221021024800F0BAFC10BD0000F6
:100430000000024010B500221021024800F0B0FC7C
:1004400010BD0000000002407047000010B50122FE
:100450001146024800F0A4FC10BD00000004024058
:1004600010B500220121024800F09AFC10BD0000E6
:1004700000040240704710B5044603E04FF47A7060
:1004800000F006F8201EA4F101018CB2F6D110BDD7
:1004900070B5034600BF00BF0020002200BF4FF030
:1004A000E0267569A82603FB06F44FF0E026B16943
:1004B00010E04FF0E026B06988420BD0884202D2AB
:1004C0000E1A324402E02E1A0E4432440146A24271
:1004D00000D300E0EDE700BF70BD10B50024FFF7CA
:1004E000B3FFFFF7C7FF03F015FC044303F0A6FCBE
:1004F0000443204610BD00002DE9FC4105460E4690
:100500001746002000900190FFF794FF922000F022
:10051000D1F806226946122000F0ACF8FFF780FF00
:100520009DF80100000200B29DF8001040EA0104AD
:1005300000EE104AB8EEC00A4C48D0ED000A20EE9A
:10054000200A86ED000A9DF80300000200B29DF823
:10055000021040EA010400EE104AB8EEC00A434817
:10056000D0ED000A20EE200A86ED010A9DF8050074
:10057000000200B29DF8041040EA010400EE104AA7
:10058000B8EEC00A3948D0ED000A20EE200A86ED08
:10059000020AFFF765FF08226946002000F06AF8AA
:1005A000FFF754FF9DF800000F2838D19DF8030095
:1005B000000200B29DF8021040EA010400EE104A69
:1005C000B8EEC00A2A48D0ED000A20EE200A85EDD8
:1005D000000A9DF80500000200B29DF8041040EAF0
:1005E000010400EE104AB8EEC00A2148D0ED000A1E
:1005F00020EE200A85ED010A9DF80700000200B2F6
:100600009DF8061040EA010400EE104AB8EEC00A58
:100610001748D0ED000A20EE200A85ED020AFFF708
:1006200009FFA22000F046F802226946222000F0CD
:1006300021F8FFF7F5FE9DF80000C0009DF80110BD
:1006400040EA6114B4F5806F02DBA4F5006004B2E7
:1006500000EE104AF8EEC00AB4EE001AB3EE070A34
:1006600000EE810A87ED000ABDE8FC81B40000209D
:10067000B800002070B506460C46154646F08000CE
:1006800000F018F806E0552000F014F82070641C03
:10069000681EC5B2002DF6D170BD70B504460D467A
:1006A00044F0800000F006F8552000F003F82870B0
:1006B00070BD000001B582B04FF47A70012301AA29
:1006C00002A90090024801F0C3F89DF804000EBD95
:1006D0008802002070B505460C462846FFF7EAFF61
:1006E0002046FFF7E7FF70BD00BFFEE710B50248E8
:1006F00000F09CF810BD00003407002010B502483F
:1007000000F094F810BD0000D406002001460878DF
:1007100010381823B0FBF3F20848805CC865032A40
:1007200005D908686FF30900001D886503E00868B3
:100730006FF309008865886D70470000AE4E0008B1
:10074000014600208A6A8B69CBB932B1012A0DD0EB
:10075000022A03D0032A10D10EE000BFCB6A03F0B7
:100760008073B3F1807F00D1012007E0CB6AB3F141
:10077000C07F00D1012001E000E000BF34E08B69C0
:10078000B3F5005F1AD132B1012A07D0022A03D093
:10079000032A11D10AE000BF01200EE0CB6A03F06A
:1007A0008073B3F1807F00D1012006E0CB6AB3F102
:1007B000C07F00D1012000E000BF15E032B1012A66
:1007C00005D0022A04D0032A0CD103E000BF00BFE9
:1007D000012008E0CB6A03F08073B3F1807F00D181
:1007E000012000E000BF00BF7047704710B5102027
:1007F00000F0C8F910BD10B5202000F0C3F910BDFD
:100800007047014691F83500022803D080204865E2
:1008100001207047052081F835000868006820F045
:1008200001000A6810600020F3E70000F8B50446F4
:10083000002000908C4800684FF41651B0FBF1F78F
:10084000A56D2E6894F85C1008208840304098B15F
:100850002068006800F0040070B12068006820F093
:1008600004002168086094F85C1008208840A860A3
:10087000606D40F00100606594F85C1001208840D4
:10088000304068B12068406900F0800040B194F8C1
:100890005C1001208840A860606D40F00200606537
:1008A00094F85C1004208840304068B120680068EB
:1008B00000F0020040B194F85C1004208840A86069
:1008C000606D40F00400606594F85C101020884072
:1008D000304078B32068006800F0080050B394F806
:1008E0005C1010208840A8602068006800F4802018
:1008F00080B12068006800F4002028B9206CC8B1DD
:100900002046216C884715E0A06C98B12046A16C68
:1009100088470FE02068006800F4807028B92068DC
:10092000006820F0080021680860206C10B12046A3
:10093000216C884794F85C102020884030400028C3
:1009400065D02068006800F0100000285FD094F89F
:100950005C1020208840A86094F83500052828D134
:100960002068006820F0160021680860206840694F
:1009700020F0800021684861206C08B9A06C28B183
:100980002068006820F008002168086094F85C1076
:100990003F208840A86000BF002084F8340000BFDA
:1009A000012084F83500206D10B12046216D884764
:1009B000F8BD2068006800F4802080B120680068DD
:1009C00000F4002028B9606C10B12046616C8847A3
:1009D0001DE0E06BD8B12046E16B884717E0206846
:1009E000006800F4807068B92068006820F010008A
:1009F0002168086000BF002084F8340000BF012097
:100A000084F83500E06B10B12046E16B8847606DDB
:100A100038B3606D00F00100F0B1052084F83500B6
:100A20002068006820F001002168086000BF00987D
:100A3000401C0090B84200D905E02068006800F032
:100A400001000028F3D100BF00BF002084F834006B
:100A500000BF012084F83500E06C10B12046E16C45
:100A6000884700BFA4E70000A40000202DE9F04162
:100A70000446002500F09AF9074614B90120BDE8A4
:100A8000F081606A00B100BF00BF002084F834002C
:100A900000BF022084F835002068006820F00100C3
:100AA000216808600AE000F081F9C01B052805D91B
:100AB00020206065032084F83500E0E720680068A6
:100AC00000F001000028EED12068056821480540AB
:100AD000D4E901010843E1680843216908436169D9
:100AE0000843A1690843E1690843216A08430543B3
:100AF000606A042803D1D4E90B0108430543206848
:100B000005602068456925F00705606A0543606A4D
:100B100004280DD1A06A0543E06A48B12046FFF7DA
:100B20000FFE28B140206065012084F83500A6E75B
:100B3000206845612046FFF7E9FD064694F85C1001
:100B40003F208840B06000206065012084F83500B7
:100B5000002094E73F8010F070B5044600F026F9BD
:100B600006462546681C10B104480078054400BFBD
:100B700000F01CF9801BA842FAD370BDB000002021
:100B80007047000010B5044604480068204020B1BA
:100B9000024804602046FFF7F3FF10BD143C0140FB
:100BA000F8B502460B460025002400200021DCE0B9
:100BB000012606FA01F51E6806EA0504AC4273D167
:100BC0005E68012E08D05E68022E05D05E68112E88
:100BD00002D05E68122E13D190684F000326BE40EB
:100BE000B0434F00DE68BE4030439060506801263D
:100BF0008E40B0431E79C6F300168E4030435060DD
:100C0000D0684F000326BE40B0434F009E68BE40F0
:100C10003043D0605E68022E02D05E68122E13D17F
:100C2000CF0802F1200656F827004E07F70E0F26D0
:100C3000BE40B0434F07FF0E1E69BE403043CF0891
:100C400002F1200646F8270010684F000326BE4038
:100C5000B0431E7906F003064F00BE4030431060DB
:100C60005E6806F08056B6F1805F7DD100BF002639
:100C70000096404E366846F480463E4F3E603E4603
:100C8000366806F48046009600BF00BF3A4E8F08D3
:100C900056F827008E07370F0F26BE40B043374E59
:100CA000B24202D1002624E05EE0354EB24201D1CC
:100CB00001261EE0334EB24201D1022619E0324E27
:100CC000B24201D1032614E0304EB24201D10426D3
:100CD0000FE02F4EB24201D105260AE02D4EB2425E
:100CE00001D1062605E02C4EB24201D1072600E0D4
:100CF00008268F073F0FBE4030431F4E8F0846F82F
:100D00002700264E3068A0435E6806F48036B6F5AC
:100D1000803F00D12043214E3060361D3068A04313
:100D20005E6806F40036B6F5003F00D120431B4E46
:100D3000361D3060361D3068A0435E6806F48016AC
:100D4000B6F5801F00D12043144E08363060361DA2
:100D50003068A0435E6806F40016B6F5001F00D1A7
:100D600020430E4E0C363060491C1029FFF420AF92
:100D7000F8BD00004438024008380140000002403D
:100D80000004024000080240000C02400010024033
:100D90000014024000180240001C0240003C0140C8
:100DA0000AB1816101E00B0483617047014800686A
:100DB00070470000A8000020034800680349097834
:100DC0000844014908607047A8000020B0000020D6
:100DD00010B50D48006840F400700B4908600846E3
:100DE000006840F4806008600846006840F4807045
:100DF0000860032000F0A2F8002000F007F800F0DF
:100E00002BF8002010BD0000003C024070B50446E5
:100E10000E4800784FF47A71B1FBF0F00C49096884
:100E2000B1FBF0F5284600F028FE08B1012070BDA6
:100E3000102C07D200222146501E00F041F8054830
:100E4000046001E00120F2E70020F0E7B00000209C
:100E5000A4000020AC00002008B500BF00200090D6
:100E60000E48006840F480400C490860084600685D
:100E700000F48040009000BF00BF00BF0020009041
:100E8000081F006840F08050091F0860084600688D
:100E900000F08050009000BF00BF08BD4438024001
:100EA00001460846002809DB00F01F0301229A4092
:100EB00043099B0003F1E023C3F8002100BF704702
:100EC0002DE9F05F80460D461646002702F006FF2A
:100ED000074639462A46334601F00700C0F1070AA3
:100EE000BAF1040F02D94FF0040A01E0C0F1070A79
:100EF000D14600F1040ABAF1070F02D24FF0000AFE
:100F000001E0A0F1030AD4464FF0010A0AFA09FAF7
:100F1000AAF1010A0AEA020A0AFA0CFA4FF0010BD6
:100F20000BFA0CFBABF1010B0BEA030B4AEA0B04C7
:100F30002146404602F0DAFEBDE8F09F00BF00F017
:100F40000702064B19684FF6FF031940044B0B4389
:100F500043EA0221014B196000BF70470CED00E02D
:100F60000000FA0570B504460D460CB9012070BDAD
:100F70005848006800F00F00A84209D255490D708A
:100F80000846006800F00F00A84201D00120EEE7FB
:100F9000207800F0020002281DD1207800F0040023
:100FA000042805D14C48006840F4E0504A490860E4
:100FB000207800F00800082805D14748006840F470
:100FC0006040454908604448006820F0F000A1688E
:100FD000084341490860207800F00100A8B3606828
:100FE000012807D13C4808380068C0F34040B8B930
:100FF0000120BCE76068022802D06068032807D19E
:10100000354808380068C0F3406048B90120AEE7B1
:10101000314808380068C0F3400008B90120A6E74D
:101020002D48006820F00300616808432A490860E1
:10103000FFF7BCFE064609E0FFF7B8FE801B41F251
:101040008831884202D9032091E707E022480068EE
:1010500000F00C006168B0EB810FEDD11D48006815
:1010600000F00F00A84209D91A490D70084600681F
:1010700000F00F00A84201D0012078E7207800F0AE
:101080000400042807D11448006820F4E050E16807
:10109000084311490860207800F00800082808D1AA
:1010A0000D48006820F46040216940EAC1000A4907
:1010B000086000F03FF808490968C1F30311074AC6
:1010C000515CC8400649086006480068FFF79EFE6C
:1010D00000204CE7003C024008380240964E0008D1
:1010E000A4000020AC000020014800687047000008
:1010F000A400002000B5FFF7F7FF04490968C1F319
:101100008221034A515CC84000BD000008380240FB
:10111000A64E000800B5FFF7E7FF04490968C1F3D0
:101120004231034A515CC84000BD0000083802400B
:10113000A64E00082DE9F047002400250026A14610
:101140002548006800F00C0020B1042805D00828CC
:101150003AD105E0DFF8849039E0DFF8849036E09A
:101160001D48001F006800F03F041B48001F006876
:1011700000F4800078B11A481749091F0968C1F3C3
:101180008811A0FB01700146224600233846FFF774
:101190006BF805460EE011480F49091F0968C1F3B5
:1011A0008811A0FB01700146224600233846FFF754
:1011B0005BF805460848001F0068C0F30140401C6A
:1011C0004600B5FBF6F902E0DFF8109000BF00BF63
:1011D0004846BDE8F0870000083802400024F400CB
:1011E000001BB700F8B504460CB90120F8BD207803
:1011F00000F00100002874D0F948006800F00C00ED
:1012000004280DD0F648006800F00C00082813D11F
:10121000F348001F006800F48000B0F5800F0BD188
:10122000EF4808380068C0F34040002859D0606893
:10123000002856D10120D9E700BF6068B0F5803F93
:1012400008D1E7480838006840F48030E44908399C
:1012500008601EE06068B0F5A02F0DD1E0480838A6
:10126000006840F48020DE490839086008460068BC
:1012700040F4803008600CE0D9480838006820F459
:101280008030D749083908600846006820F480207B
:10129000086000BF606890B1FFF788FD054606E072
:1012A000FFF784FD401B642801D903209EE7CC484A
:1012B00008380068C0F340400028F1D011E0FFF783
:1012C00075FD054606E0FFF771FD401B642801D956
:1012D00003208BE7C24808380068C0F3404000286C
:1012E000F1D1207800F0020002285FD1BC480068EC
:1012F00000F00C0058B1BA48006800F00C00082853
:101300001CD1B748001F006800F48000B0B9B44891
:1013100008380068C0F3400020B1E068012801D01F
:10132000012063E7AE480838006820F0F800216922
:1013300040EAC100AA490839086037E0E06800B314
:101340000120A8490860FFF731FD054606E0FFF7D8
:101350002DFD401B022801D9032047E7A04808388B
:101360000068C0F340000028F1D09D4808380068AC
:1013700020F0F800216940EAC10099490839086065
:1013800014E0002097490860FFF710FD054606E0CD
:10139000FFF70CFD401B022801D9032026E79048E7
:1013A00008380068C0F340000028F1D1207800F030
:1013B000080008282CD16069A8B101208A4908607A
:1013C000FFF7F4FC054606E0FFF7F0FC401B02289F
:1013D00001D903200AE782486C300068C0F340005E
:1013E0000028F1D014E000207F490860FFF7DEFC00
:1013F000054606E0FFF7DAFC401B022801D903206E
:10140000F4E677486C300068C0F340000028F1D162
:10141000207800F00400042870D10027704838308C
:10142000006800F0805090B900BF002000906C4828
:101430003830006840F0805069493831086008460B
:10144000006800F08050009000BF00BF012767488F
:10145000006800F48070B0B96448006840F480709F
:1014600062490860FFF7A2FC054606E0FFF79EFC14
:10147000401B022801D90320B8E65C48006800F44C
:1014800080700028F2D000BFA068012808D154481D
:101490006830006840F001005149683108601DE083
:1014A000A06805280DD14E486830006840F004005F
:1014B0004B49683108600846006840F00100086048
:1014C0000CE047486830006820F00100444968316A
:1014D00008600846006820F00400086000BFA068AB
:1014E000A8B1FFF763FC054609E0FFF75FFC401B6E
:1014F00041F28831884202D9032077E626E0384855
:1015000068300068C0F340000028EED013E0FFF719
:101510004DFC054608E0FFF749FC401B41F28831CD
:10152000884201D9032061E62D4868300068C0F385
:1015300040000028EFD1012F07D12948383000683A
:1015400020F0805026493831086000BFA06900288B
:1015500045D02348006800F00C0008285DD0A06941
:10156000022845D100201F490866FFF71FFC0546E9
:1015700006E0FFF71BFC401B022801D9032035E6DB
:10158000174808380068C0F340600028F1D1D4E95A
:1015900007010843616A40EA81110122A06AC2EB97
:1015A000500041EA00412C20005D41EA00600C49F6
:1015B000091F086001200B490866FFF7F7FB054685
:1015C00006E0FFF7F3FB401B022801D903200DE6DC
:1015D000034808380068C0F340600028F1D03FE0BD
:1015E0000838024000004742800E47420070004029
:1015F00000201C490866FFF7D9FB054606E0FFF707
:10160000D5FB401B022801D90320EFE516480068EE
:10161000C0F340600028F2D122E0A069012800D187
:10162000E4E51148001D066806F48001E069814286
:1016300014D106F03F01206A81420FD147F6C070F5
:101640003040616A884209D106F44031A06A814283
:1016500004D106F07061E06A814201D00120C5E545
:101660000020C3E5000047420038024010B50446A0
:101670000CB9012010BD606A00B900BF0021A16251
:1016800094F8510028B9002084F85000204600F05A
:1016900033F8022084F851002068006820F04000F0
:1016A00021680860D4E901010843E1680843216921
:1016B000084361690843218B01F400710843E16923
:1016C0000843216A0843A16A08432168086004218D
:1016D000A06901EA1040616A0843216848602068F7
:1016E000C06920F400602168C861002060650120A5
:1016F00084F851000020BDE710B586B004461421DF
:1017000001A8FEF728FE4B49206888427ED100BF21
:10171000002000904848006840F480504649086026
:101720000846006800F48050009000BF00BF00BF72
:101730000020009040481438006840F002003E4904
:10174000143908600846006800F00200009000BFED
:1017500000BF00BF002000900846006840F0010074
:1017600008600846006800F00100009000BF00BF5C
:101770001820019002200290002003900320049082
:101780000520059001A92D48FFF70AFA8020019055
:101790000220029000200390032004900520059071
:1017A00001A92748FFF7FCF92648274908604FF0B0
:1017B000C0604860002124488160C1604FF48061AE
:1017C0000161002141618161C1614FF440310162D9
:1017D00000214162FFF74AF908B1FFF711F800BF95
:1017E0001948E064846300BF164818301749086040
:1017F0004FF0C06048604021144881600021C16002
:101800004FF4806101610021416100E010E08161DD
:10181000C1614FF40031016200214162FFF726F9F6
:1018200008B1FEF7EDFF00BF0848A064846300BF65
:1018300006B010BD003001404438024000040240B0
:101840000000024040640240E0020020400300200B
:101850002DE9FF5F0446884691461D460E9E0120F5
:1018600002900020019000BF94F85000012803D19D
:10187000022004B0BDE8F09F012084F8500000BFB2
:10188000FFF794FA074694F851B060680390AA46AF
:10189000BBF1010F0BD00398B0F5827F04D1A06893
:1018A00010B9BBF1040F02D002200190DBE0B8F1C7
:1018B000000F03D0B9F1000F00D015B9012001903D
:1018C000D1E094F85100042802D0052084F851009A
:1018D00000206065C4F83890E587A587C4F830809B
:1018E000E586A586206460642068006800F04000FA
:1018F000402805D02068006840F04000216808605A
:10190000E068B0F5006F4AD1606810B1BAF1010F1C
:1019100009D1206B00882168C860206B801C20637F
:10192000E08E401EE08633E02068806800F0020010
:10193000022810D1E08E70B1029801280BD1206BE3
:1019400000882168C860206B801C2063E08E401EE8
:10195000E086002002902068806800F0010068B1F5
:10196000E08F58B12068C068A16B0880A06B801C14
:10197000A063E08F401EE08701200290FFF716FA77
:10198000C01BB04204D3701C10B1032001906AE068
:10199000E08E0028C8D1E08F0028C5D14AE06068F9
:1019A00010B1BAF1010F09D1206B007821680873DA
:1019B000206B401C2063E08E401EE08634E02068EF
:1019C000806800F00200022810D1E08E70B1029809
:1019D00001280BD1206B007821680873206B401C14
:1019E0002063E08E401EE086002002902068806820
:1019F00000F0010068B1E08F58B12068C068A16BA9
:101A00000870A06B401CA063E08F401EE08701209F
:101A10000290FFF7CBF9C01BB04201D3701C00B994
:101A200016B9032001901EE0E08E0028C7D1E08F98
:101A30000028C4D13A463146204601F081FA20B14F
:101A400001200190202060650DE0A06850B900BF22
:101A5000002000902068C068009020688068009096
:101A600000BF00BF00BF012084F8510000BF00206C
:101A700084F8500000BF0198FBE670B50446254687
:101A8000681EB0F1807F01D301200FE0681E4FF087
:101A9000E02148610F214FF0FF3002F027F90020CC
:101AA0004FF0E021886107200861002070BD704779
:101AB000704710B50346002200BF93F83C00012890
:101AC00001D1022010BD012083F83C0000BF22F0AC
:101AD000FF00CC6840EA040222F440708C6840EABF
:101AE000040222F480604C6840EA040222F40060A0
:101AF0000C6840EA040222F480500C6940EA0402B7
:101B000022F400504C6940EA040222F48040CC697F
:101B100040EA04021868426400BF002083F83C00D9
:101B200000BF00BFCEE7000030B502460B4600BF45
:101B300092F83C00012801D1022030BD012082F83A
:101B40003C0000BF022082F83D0010684468106825
:101B5000816824F070041868044310684460184DCC
:101B60001068A8421BD01068B0F1804F17D0154DF7
:101B70001068A84213D0144D1068A8420FD0134D1E
:101B80001068A8420BD0124D1068A84207D0114D22
:101B90001068A84203D0104D1068A84205D121F06A
:101BA00080015868014310688160012082F83D007F
:101BB00000BF002082F83C0000BF00BFBDE700006E
:101BC000000001400004004000080040000C0040FC
:101BD00000040140004001400018004010B50446D8
:101BE0000CB9012010BD94F83D0028B9002084F8FC
:101BF0003C00204600F00CF8022084F83D00211D36
:101C0000206801F0BFFA012084F83D000020E9E7D8
:101C100008B5144A016891420FD100BF002100911C
:101C20001149096841F001010F4A11601146096824
:101C300001F00101009100BF13E00C4A01689142DC
:101C40000FD100BF002100910749096841F400311C
:101C5000054A11601146096801F40031009100BF86
:101C600000BF08BD0000014044380240004401406C
:101C70000146022081F83D000868806800F00702F4
:101C8000062A05D00868006840F001000B6818605B
:101C9000012081F83D00002070472DE9F041044605
:101CA0000D4600BF94F83C00012802D10220BDE897
:101CB000F081012084F83C0000BF022084F83D0040
:101CC0002068866826F0770626F47F4620688660BE
:101CD0002868502833D00CDC202850D004DC0028A1
:101CE0004BD0102851D149E0302849D040284CD160
:101CF00039E060282DD0702807D0B0F5805F03D080
:101D0000B0F5005F41D10DE040E0D5E902136A680B
:101D1000206801F0B4FA2068866846F077062068EB
:101D2000866033E0D5E902136A68206801F0A7FAFB
:101D30002068806840F480402168886026E0EA6876
:101D40006968206801F08CFB5021206801F0A2FA3C
:101D50001CE0EA686968206801F0DEFB6021206809
:101D600001F098FA12E0EA686968206801F078FBEF
:101D70004021206801F08EFA08E000BF00BF00BFDC
:101D80002968206801F086FA00E000BF00BF01204A
:101D900084F83D0000BF002084F83C0000BF00BF75
:101DA00085E7000010B50446207F01286AD1364837
:101DB000007870B90021204600F099FB00EE100A6F
:101DC000B8EE400A314880ED000A01202E49087023
:101DD00058E02D480078E0B30021204600F087FB52
:101DE00000EE100AB8EE400A294880ED000A90ED96
:101DF000000A2648D0ED000AB4EEE00AF1EE10FA2F
:101E00000BDD234890ED000A2048D0ED000A30EEAB
:101E1000600A204880ED000A26E01D4890ED000A87
:101E20001A48D0ED000AB4EEE00AF1EE10FA19D229
:101E30001948008800EE100AB8EE400A1348D0EDA9
:101E4000000A30EE600A1248D0ED000A30EE200A97
:101E500000E017E0F7EE000A30EE200A0D4880EDB2
:101E6000000A01E0FEF7CCFC0C4890ED000A09489E
:101E7000D0ED000A80EE201A094880ED001A0020FB
:101E80000149087010BD00005400002040000020EF
:101E900044000020480000203A0000203C000020C0
:101EA0004C0000202DE9F04104460D46164600BFC7
:101EB00094F83C00012802D10220BDE8F081012005
:101EC00084F83C0000BF022084F83D0096B9EB681E
:101ED000D5E90012206801F0D7FA2068806920F067
:101EE0000C002168886120688069A968084321681E
:101EF00088613DE0042E13D1EB68D5E9001220681B
:101F000001F01EFB2068806920F440602168886130
:101F100020688069A96840EA01202168886127E07B
:101F2000082E12D1EB68D5E90012206801F025FBDC
:101F30002068C06920F00C002168C8612068C06971
:101F4000A96808432168C86112E0EB68D5E900126E
:101F5000206801F02EFB2068C06920F440602168F1
:101F6000C8612068C069A96840EA01202168C86189
:101F7000012084F83D0000BF002084F83C0000BF31
:101F800000BF9AE710B504460CB9012010BD94F8C3
:101F90003D0028B9002084F83C00204600F00CF8F1
:101FA000022084F83D00211D206801F0EBF801209B
:101FB00084F83D000020E9E710B586B004461421FE
:101FC00001A8FEF7C8F92D492068884254D100BF06
:101FD000002000902A48006840F00200284908606C
:101FE0000846006800F00200009000BF00BF00BF7C
:101FF0000020009022481438006840F48070204986
:10200000143908600846006800F48070009000BF32
:1020100000BF00BF002000900846006840F00400A8
:1020200008600846006800F00400009000BF00BF90
:102030008020019002200290012003900220049051
:102040000320059001A90F48FEF7AAFD402001904A
:1020500002200290012003900220049003200590AA
:1020600001A90948FEF79CFD002211462E20FEF72B
:1020700027FF2E20FEF714FF06B010BD000401401C
:1020800044380240002002400008024070B5044677
:102090000D4635B1042D0BD0082D10D00C2D1CD1C0
:1020A00014E02068C06840F002002168C86015E0B4
:1020B0002068C06840F004002168C8600EE0206815
:1020C000C06840F008002168C86007E02068C06868
:1020D00040F010002168C86000E000BF00BF01228E
:1020E0002946206801F0BAF82068806800F00706E9
:1020F000062E05D02068006840F0010021680860C5
:10210000002070BD10B5044620680069C0F340008F
:10211000D8B12068C068C0F34000B0B16FF00200D1
:1021200021680861012020772068806900F00300A1
:1021300018B12046FFF736FE05E0204600F008F90A
:10214000204600F0A5F90020207720680069C0F340
:102150008000D8B12068C068C0F38000B0B16FF0D3
:10216000040021680861022020772068806900F45B
:10217000407018B12046FFF715FE05E0204600F03C
:10218000E7F8204600F084F90020207720680069F5
:10219000C0F3C000D8B12068C068C0F3C000B0B1BF
:1021A0006FF0080021680861042020772068C0696A
:1021B00000F0030018B12046FFF7F4FD05E02046CB
:1021C00000F0C6F8204600F063F900202077206870
:1021D0000069C0F30010D8B12068C068C0F30010D7
:1021E000B0B16FF0100021680861082020772068E6
:1021F000C06900F4407018B12046FFF7D3FD05E038
:10220000204600F0A5F8204600F042F90020207793
:102210002068006900F0010058B12068C06800F033
:10222000010030B16FF0010021680861204600F024
:102230005DF920680069C0F3C01058B12068C0681B
:10224000C0F3C01030B16FF08000216808612046F3
:10225000FFF72DFC20680069C0F3801058B120689A
:10226000C068C0F3801030B16FF040002168086191
:10227000204600F055F920680069C0F3401058B1BD
:102280002068C068C0F3401030B16FF020002168B2
:1022900008612046FFF70CFC10BD000010B586B0A9
:1022A0000446142101A8FEF756F824492068884204
:1022B0001FD100BF002000902148006840F01000AE
:1022C0001F4908600846006800F01000009000BF39
:1022D00000BF4FF4D44001900220029001200390EF
:1022E000022004900120059001A91648FEF758FC31
:1022F00021E01549206888421DD100BF00200090D0
:102300000F48006840F020000D490860084600684A
:1023100000F02000009000BF00BF4020019002208C
:10232000029001200390022004900320059001A94F
:102330000648FEF735FC06B010BD00000000014065
:1023400030380240001002400044014000140240B6
:10235000704770B504460D46164600BF94F83C0021
:10236000012801D1022070BD012084F83C0000BF8B
:10237000022084F83D0036B1042E1BD0082E31D047
:102380000C2E5ED145E02946206800F08DFF2068C4
:10239000806940F00800216888612068806920F029
:1023A00004002168886120688069296908432168E0
:1023B000886147E02946206800F0AEFF2068806908
:1023C00040F40060216888612068806920F48060A2
:1023D0002168886120688069296940EA01202168B4
:1023E00088612FE02946206800F0D4FF2068C0698A
:1023F00040F008002168C8612068C06920F004002E
:102400002168C8612068C069296908432168C861DA
:1024100018E02946206800F0F9FF2068C06940F400
:1024200000602168C8612068C06920F4806021686C
:10243000C8612068C069296940EA01202168C86133
:1024400000E000BF00BF012084F83D0000BF002075
:1024500084F83C0000BF00BF85E710B504460CB906
:10246000012010BD94F83D0028B9002084F83C00FC
:10247000204600F00CF8022084F83D00211D206861
:1024800000F080FE012084F83D000020E9E770475D
:102490007047000070B504460E46012231462068A0
:1024A00000F0DCFE0F492068884203D00E49206806
:1024B000884201D1012000E0002028B12068406C52
:1024C00040F40040216848642068806800F00705F7
:1024D000062D05D02068006840F0010021680860E2
:1024E000002070BD0000014000040140704702461A
:1024F000002031B1042907D0082908D00C290CD1BB
:1025000008E01368586B09E01368986B06E01368DD
:10251000D86B03E01368186C00E000BF00BF704781
:102520007047704701460022002391F8392091F846
:102530003A3042EA030070472DE9F047044620682C
:1025400005682068C668206847694FF00008C146E2
:1025500005F00F08B8F1000F0AD105F0200038B1DE
:1025600006F0200020B1204601F06BF8BDE8F087AE
:10257000B8F1000F72D007F0010018B906F490709E
:1025800000286BD005F0010030B106F4807018B15E
:10259000E06B40F00100E06305F0040030B107F0AB
:1025A000010018B1E06B40F00200E06305F00200AA
:1025B00030B107F0010018B1E06B40F00400E063B7
:1025C00005F0080048B106F0200010B907F001003E
:1025D00018B1E06B40F00800E063E06B70B305F009
:1025E000200028B106F0200010B1204601F029F8A3
:1025F00020684069C0F38019E06B00F0080010B952
:10260000B9F1000F23D0204600F0FBFF206840699D
:1026100000F04000402816D12068406920F04000BA
:1026200021684861606B50B11748616B0865606B49
:10263000FEF7E7F810B1606B016D88470CE02046AB
:10264000FFF76FFF08E02046FFF76BFF04E020462E
:10265000FFF767FF0020E06388E7FFE705F08000F1
:1026600030B106F0800018B1204601F031FA7DE764
:1026700005F0400030B106F0400018B1204600F0EF
:10268000D0FF73E700BF71E7EF35000810B50446CF
:102690000CB9012010BDA06900B100E000BF94F8A2
:1026A000390028B9002084F83800204600F028F8C6
:1026B000242084F839002068C06820F40050216884
:1026C000C860204601F010F82068006920F49040AE
:1026D000216808612068406920F02A00216848616B
:1026E0002068C06840F400502168C8600020E063A2
:1026F000202084F8390084F83A000020CAE700005E
:1027000010B586B00446142101A8FDF724FE6F49D8
:102710002068884278D100BF002000906C48006893
:1027200040F010006A4908600846006800F0100098
:10273000009000BF00BF00BF002000906448143824
:10274000006840F0020062491439086008460068D9
:1027500000F00200009000BF00BF00BF002000900A
:102760000846006840F0010008600846006800F074
:102770000100009000BF00BF802001900220029065
:1027800000200390032004900720059001A95148E0
:10279000FEF706FA4FF4007001900220029000202C
:1027A0000390032004900720059001A94A48FEF7F2
:1027B000F7F94A484A4908604FF0006048604021F4
:1027C000474881600021C1604FF4806101610021B0
:1027D00041618161C1614FF4403101620021416278
:1027E000FEF744F908B1FEF70BF800BF3C48206340
:1027F000846300BF002211462520FEF761FB2520DF
:10280000FEF74EFB5FE0FFE73649206888425AD169
:1028100000BF002000902E48001F006840F4802078
:102820002B49091F08600846006800F480200090CA
:1028300000BF00BF00BF002000902548143800688A
:1028400040F004002249143908600846006800F08E
:102850000400009000BF00BF4FF4406001900220D0
:10286000029000200390032004900720059001A906
:102870001D48FEF795F91D481D4908604FF000609E
:10288000486000211A488160C1604FF48061016195
:10289000002141618161C1614FF440310162002139
:1028A0004162FEF7E3F808B1FDF7AAFF00BF104848
:1028B0006063846300BF002211462720FEF700FBFF
:1028C0002720FEF7EDFA06B010BD00000010014011
:1028D000443802400004024000000240B864024054
:1028E000D406002000480040000802402860024052
:1028F0003407002010B5034693F83A0020282FD162
:1029000001B10AB9012010BD00BF93F838000128B9
:1029100001D10220F7E7012083F8380000BF996257
:102920009A85DA850020D863222083F83A0000BF18
:10293000002083F8380000BF1868C06840F4807039
:102940001C68E0601868406940F001001C68606124
:102950001868C06840F020001C68E0600020D2E7E2
:102960000220D0E71E4A0168914237D11D490988EB
:1029700001F4004191BB1B49098801F4804171B108
:10298000194909780A2903D00021164A118025E047
:102990001449098841F40041124A11801EE012498D
:1029A00009780D2906D10F49098841F480410D4A63
:1029B000118013E00C4909780A4A1288C2F30D020B
:1029C0000A4B995407490988491C064A1180114647
:1029D0000988B1F5FA7F01DB002111807047000002
:1029E000001001409E000020A00000206004002094
:1029F000704700BFFEE7000008B500BF0020009050
:102A00001E48006840F480001C49086008460068C1
:102A100000F48000009000BF00BF00BF00200090C5
:102A20000846006840F4001008600846006800F49A
:102A30000010009000BF00BF002211460C20FEF7DE
:102A40003FFA0C20FEF72CFA002205213A20FEF76F
:102A500037FA3A20FEF724FA002211463B20FEF70F
:102A60002FFA3B20FEF71CFA002211464620FEF703
:102A700027FA4620FEF714FA08BD0000303802405D
:102A800000B587B0142102A8FDF765FC00BF002047
:102A900001905148006840F002004F490860084624
:102AA000006800F00200019000BF00BF00BF0020DE
:102AB00001900846006840F0010008600846006880
:102AC00000F00100019000BF00BF00BF0020019096
:102AD0000846006840F0040008600846006800F0FE
:102AE0000400019000BF00BF00BF00200190084615
:102AF000006840F4807008600846006800F4807048
:102B0000019000BF00BF00BF002001900846006890
:102B100040F0800008600846006800F080000190E6
:102B200000BF00BF00BF002001900846006840F0D1
:102B3000200008600846006800F02000019000BFF7
:102B400000BF00BF002001900846006840F0100060
:102B500008600846006800F01000019000BF00BF48
:102B6000012210211D48FEF71BF9012211461C48C5
:102B7000FEF716F910200290012003900490022025
:102B8000059002A91548FEF70BF830200290154871
:102B900003900120049002A91348FEF701F80120D8
:102BA0000290039004900220059002A90C48FDF7C2
:102BB000F7FF002211460A20FEF782F90A20FEF7ED
:102BC0006FF9002211461720FEF77AF91720FEF759
:102BD00067F907B000BD0000303802400000024035
:102BE00000040240000021100008024010B50F4808
:102BF0000F4908604FF48270486000210C488160E2
:102C0000C1600221016101214161490281613821D4
:102C1000C16100210162416281620A21C162FEF745
:102C200025FD08B1FDF7ECFD10BD000000300140AE
:102C30008802002000B587B01C216846FDF78BFB99
:102C4000154816490860002048600021134881603B
:102C500041F28731C160002101618161FEF7BEFF51
:102C600008B1FDF7CDFD0D48FFF7F7FB08B1FDF703
:102C7000C7FD602000900020019002900490002287
:102C800069460648FFF765FB08B1FDF7B9FD034843
:102C9000FFF704FB07B000BD004401402004002002
:102CA00000B595B0002011901290139014900F90E1
:102CB00010901C2108A8FDF74EFB20216846FDF767
:102CC0004AFB384838490860A72048600021364848
:102CD000816044F61F61C160002101614161816131
:102CE000FEF77CFF08B1FDF78BFD4FF4805011908B
:102CF00011A92D48FEF7D1FF08B1FDF781FD2A4843
:102D0000FFF7ABFB08B1FDF77BFD00200F901090A3
:102D10000FA92548FEF708FF08B1FDF771FD6020F7
:102D200008904FF4FA60099000200A900B900C90E4
:102D30000D900E90002208A91B48FFF70AFB08B16E
:102D4000FDF75EFD042208A91748FFF702FB08B152
:102D5000FDF756FD082208A91348FFF7FAFA08B153
:102D6000FDF74EFD0C2208A90F48FFF7F2FA08B153
:102D7000FDF746FD00200090019002900390049022
:102D80004FF4005005900020079069460648FEF772
:102D900090FE08B1FDF734FD0348FFF77FFA15B048
:102DA00000BD000000000140A003002000B587B076
:102DB000002005900690019002900390049018481E
:102DC0001849086040F604204860002115488160D9
:102DD0004FF6FF71C1600021016141618161FFF720
:102DE000D1F808B1FDF70CFD00200590069005A96B
:102DF0000C48FEF799FE08B1FDF702FD0020019096
:102E000001200290002003900490002201A90548AF
:102E1000FFF748F808B1FDF7F3FC07B000BD00006C
:102E200000040140E003002010B50B480B49086086
:102E30004FF4E1304860002108488160C1600161C1
:102E40000C21416100218161C161FFF71FFC08B1C4
:102E5000FDF7D6FC10BD0000001001405406002014
:102E600010B50B480B4908600B4848600021094821
:102E70008160C1604FF480610161042141610021E2
:102E80008161C161FFF702FC08B1FDF7B9FC10BD1B
:102E90000048004094060020A086010000BFFEE725
:102EA0007047704710B5234B1B685B6943F04003C4
:102EB000204C246863611F4B1B68DB6843F01003E0
:102EC0001C4C2468E3601C4B1B681B6823F0010347
:102ED000194C2468236007E0174B1B681B6823F01C
:102EE0000103154C24682360134B1B681B6803F017
:102EF0000103002BF0D1114B0F4C2468A3600E4B43
:102F00001B68D8600C4B1B6819610B4B1B685A601F
:102F1000094B1B681B6843F48023074C246823601B
:102F2000054B1B681B6843F00103034C24682360B6
:102F300010BD000094060020340700200448004023
:102F40007CB504460D461646164800681821B0FBAD
:102F5000F1F01549B0FBF1F04FF47A71484301905C
:102F60006068B0F5827F0DD12B460022802120467B
:102F7000009600F01BF898B1606D40F0200060658D
:102F800003207CBD00BF019800B908E00198401EF5
:102F9000019020688068C0F3C0100028F3D100BF02
:102FA0000020EEE7A400002040420F002DE9F04190
:102FB00004460E4617461D46DDF818803EE0681CA4
:102FC000D8B3FDF7F3FEA0EB0800A84200D2A5BBE2
:102FD0002068406820F0E000216848606068B0F533
:102FE000827F0DD1A068B0F5004F03D0A068B0F586
:102FF000806F05D12068006820F0400021680860DB
:10300000A06AB0F5005F0DD100BF2068006820F411
:103010000050216808602068006840F40050216872
:10302000086000BF012084F8510000BF002084F830
:10303000500000BF0320BDE8F081FFE720688068F2
:103040003040B04201D1012000E00020B842B6D1AA
:103050000020F0E710B5FDF7AFFE10BD00B593B04E
:10306000302107A8FDF777F9142102A8FDF773F9BD
:1030700000BF002001902448006840F080502249A1
:1030800008600846006800F08050019000BF00BF53
:1030900000BF002001901D48006840F480401B499B
:1030A00008600846006800F48040019000BF00BF3F
:1030B000012007900004089002200D9041050E9118
:1030C00006210F91A821109102211191072112913F
:1030D00007A8FEF787F808B1FDF792FB0F200290D2
:1030E00002200390002004904FF4A05005904FF46C
:1030F00080500690052102A8FDF734FF08B1FDF7C6
:103100007FFB13B000BD000040380240007000405B
:103110001448006840F470001249086012480068C2
:1031200040F001001049086000200F490831086094
:103130000D4800680D4908400B4908600C48091DFE
:103140000860081F006820F48020091F0860002024
:1031500005490C3108604FF0006002498039086071
:103160007047000088ED00E000380240FFFFF6FEE7
:103170001030002410B50248FEF7C4FF10BD000057
:10318000E003002010B50268294B98420ED0B0F140
:10319000804F0BD0274B984208D0274B984205D040
:1031A000264B984202D0264B984203D122F070025F
:1031B0004B681A431E4B984220D0B0F1804F1DD06F
:1031C0001C4B98421AD01C4B984217D01B4B98426C
:1031D00014D01B4B984211D01A4B98420ED01A4B68
:1031E00098420BD0194B984208D0194B984205D001
:1031F000184B984202D0184B984203D122F44072E7
:10320000CB681A4322F080034C6943EA040202604F
:103210008B68C3620B688362054B984202D0084BEF
:10322000984201D10B6903630123436110BD000083
:10323000000001400004004000080040000C004075
:1032400000040140004001400044014000480140AA
:1032500000180040001C00400020004030B501F084
:103260001F05012404FA05F3046A9C430462046AFE
:1032700001F01F0502FA05F52C43046230BD30B59C
:103280000C46816821F47F4142EA03252543294306
:10329000816030BD0A46816821F0700142F0070369
:1032A000194381607047000030B5056A25F00105BB
:1032B0000562026A4368846924F0700424F0030400
:1032C0000D682C4322F002028D682A43104DA8425B
:1032D00000D103E00F4DA84206D100BF22F0080242
:1032E000CD682A4322F00402094DA84202D0094DBC
:1032F000A84207D123F4807323F400734D692B4354
:103300008D692B43436084614D684563026230BD23
:10331000000001400004014030B5056A25F01005A9
:103320000562026A4368846924F4E04424F440742A
:103330000D6844EA052422F020028D6842EA051255
:10334000124DA84200D103E0114DA84207D100BFA1
:1033500022F08002CD6842EA051222F040020B4DB5
:10336000A84202D00A4DA84209D123F4806323F475
:1033700000634D6943EA85038D6943EA8503436031
:1033800084614D688563026230BD00000000014029
:103390000004014030B5056A25F480750562026AB3
:1033A0004368C46924F0700424F003040D682C43BE
:1033B00022F400728D6842EA0522124DA84200D123
:1033C00003E0114DA84207D100BF22F40062CD688E
:1033D00042EA052222F480620A4DA84202D00A4D38
:1033E000A84209D123F4805323F400534D6943EAE2
:1033F00005138D6943EA05134360C4614D68C563D5
:10340000026230BD000001400004014030B5056A91
:1034100025F480550562036A4468C26922F4E042DB
:1034200022F440720D6842EA052223F400538D68AD
:1034300043EA0533084DA84202D0084DA84204D102
:1034400024F480444D6944EA85144460C2614D68A7
:103450000564036230BD000000000140000401402B
:1034600030B50B461446026A056A25F0010505626F
:10347000816921F0F00141EA041122F00A021A43A5
:103480008161026230BD000070B50C461546066AC7
:1034900026F0010606628169026A184EB04214D015
:1034A000B0F1804F11D0164EB0420ED0154EB04242
:1034B0000BD0154EB04208D0144EB04205D0144E79
:1034C000B04202D0134EB04201D1012600E00026E6
:1034D0001EB121F00301294301E041F0010121F077
:1034E000F001F02606EA0316314322F00A0204F046
:1034F0000A0632438161026270BD00000000014093
:103500000004004000080040000C0040000401409E
:10351000004001400018004030B50B461446056AD3
:1035200025F0100505628169026A21F4704141EAC3
:10353000043122F0A00242EA03128161026230BD2E
:1035400070B50C461546066A26F0100606628169BB
:10355000026A21F4407141EA052121F470414FF4DF
:10356000704606EA0336314322F0A002A02606EA9E
:10357000041632438161026270BD70B50C46154677
:10358000066A26F480760662C169026A21F00301A8
:10359000294321F0F001F02606EA0316314322F414
:1035A00020624FF4206606EA04263243C1610262BB
:1035B00070BD70B50C461546066A26F48056066244
:1035C000C169026A21F4407141EA052121F4704188
:1035D0004FF4704606EA0336314322F420424FF49A
:1035E000204606EA04363243C161026270BD70B5FE
:1035F0000546AC6B0020E085E0842046FEF791FF95
:1036000070BD0168C96821F490710268D1600168D9
:10361000496921F0010102685161202180F83A10C6
:10362000704710B504462068C06820F0400021684B
:10363000C860202084F839002046FFF7D9F900201F
:1036400010BD70B5044694F83A0022284AD1A0680B
:10365000B0F5805F13D1A56A206940B92068406841
:10366000C0F308002880A06A801CA06219E02068CE
:103670004068C0B22880A06A401CA06211E02069A6
:1036800038B920684068C1B2A26A501CA0621170AB
:1036900007E02068406800F07F01A26A501CA06229
:1036A0001170E08D401E80B2E085C8B92068C06806
:1036B00020F020002168C8602068C06820F4807075
:1036C0002168C8602068406920F0010021684861D5
:1036D000202084F83A002046FFF744F9002070BD0E
:1036E0000020FCE70220FAE72DE9F84F04462068A5
:1036F000006920F44050E1680843216808612169AD
:10370000A068084361690843E169084300902068A4
:10371000C06849F20C618843009908432168C86079
:103720002068406920F44070A1690843216848611D
:10373000E069B0F5004F75D1E3492068884203D0B5
:10374000E249206888426FD1FDF7E4FC81460220FF
:103750006168A0FB01510B461920A9FB00712A46A4
:103760003846FCF781FD6421B0FBF1F04FEA001A06
:1037700002206168A0FB01510B461920A9FB0071D2
:103780002A463846FCF770FD074602206168A0FB18
:1037900001510B461920A9FB00B12A465846FCF7F7
:1037A00063FD6421B0FBF1F000EBC00101EB001000
:1037B000A7EB8000322101EBC0006421B0FBF1F0E7
:1037C00000F0F8000AEB400A02206168A0FB0151FA
:1037D0000B461920A9FB00712A463846FCF744FD28
:1037E000074602206168A0FB01510B461920A9FB86
:1037F00000B12A465846FCF737FD6421B0FBF1F0D2
:1038000000EBC00101EB0010A7EB8000322101EBBF
:10381000C0006421B0FBF1F000F0070050442168C3
:1038200088604FE16EE0FFE7FDF764FC814602200F
:103830006168A0FB01510B461920A9FB00712A46C3
:103840003846FCF711FD6421B0FBF1F04FEA001A95
:1038500002206168A0FB01510B461920A9FB0071F1
:103860002A463846FCF700FD074602206168A0FBA7
:1038700001510B461920A9FB00B12A465846FCF716
:10388000F3FC6421B0FBF1F000EBC00101EB001090
:10389000A7EB8000322101EBC0006421B0FBF1F006
:1038A00000F0F8000AEB400A02206168A0FB015119
:1038B0000B461920A9FB00712A463846FCF7D4FCB8
:1038C000074602206168A0FB015003461920A9FBAE
:1038D00000B12A465846FCF7C7FC6421B0FBF1F062
:1038E00000EBC00101EB0010A7EB8000322101EBDF
:1038F000C0006421B0FBF1F000F0070050442168E3
:103900008860DFE070492068884203D06F492068F2
:1039100088426BD1FDF7FEFB814604206168A0FB65
:1039200001510B461920A9FB00712A463846FCF7C5
:103930009BFC824604206168A0FB01510B461920C4
:10394000A9FB00712A463846FCF78EFC6421B0FBC7
:10395000F1F000EBC00101EB0010AAEB8000322176
:1039600001EB00106421B0FBF1F000F0F00A04203C
:103970006168A0FB015003461920A9FB00712A468B
:103980003846FCF771FC6421B0FBF1F00AEB001A39
:1039900004206168A0FB01510B461920A9FB0071AE
:1039A0002A463846FCF760FC074604206168A0FB05
:1039B000015003461920A9FB00B12A465846FCF7DE
:1039C00053FC6421B0FBF1F000EBC00101EB0010EF
:1039D000A7EB8000322101EB00106421B0FBF1F075
:1039E00000F00F005044216888606BE0FDF782FB17
:1039F000814604206168A0FB015003461920A9FB01
:103A000000712A463846FCF72FFC82460420616884
:103A1000A0FB015003461920A9FB00712A46384635
:103A2000FCF722FC6421B0FBF1F000EBC00101EBDC
:103A30000010AAEB8000322101EB00106421B0FBE2
:103A4000F1F000F0F00A04206168A0FB0150034689
:103A50001920A9FB00712A463846FCF705FC6421B1
:103A6000B0FBF1F00AEB001A04206168A0FB0170C2
:103A700003461920A9FB005001463A462846FCF7A8
:103A8000F3FB074604206168A0FB015003461920A0
:103A9000A9FB00B12A465846FCF7E6FB6421B0FBBF
:103AA000F1F000EBC00101EB0010A7EB8000322128
:103AB00001EB00106421B0FBF1F000F00F00504466
:103AC00021688860BDE8F88F0010014000140140B3
:103AD000014691F8390021282CD18868B0F5805F23
:103AE0000FD10A6A1088C0F308000B685860086993
:103AF00018B9086A801C086209E0086A401C08625C
:103B000005E00B6A581C086218780B685860C88C6E
:103B1000401E80B2C88458B90868C06820F0800090
:103B20000B68D8600868C06840F040000B68D86037
:103B3000002070470220FCE710B50D48FEF7FCFCA2
:103B4000002401E0641C00BF0948FEF7EBFC2028BC
:103B5000F8D100BF002401E0641C00BF0122054928
:103B60000348FEF7C7FE0028F6D100BF10BD0000D5
:103B700054060020A000002008B5414800680068F5
:103B800000F0200060B100BF002000903C480068B9
:103B9000006800903A4800684068009000BF6EE0FE
:103BA0003848006800F01000002868D000BF0020EE
:103BB0000090334800680068009031480068406811
:103BC000009000BF00BF30480068006800F400208B
:103BD00058BB2D480068006820F001002A49096898
:103BE0000860294800684068C0F12400274908801F
:103BF000242025490968486023480068006840F48B
:103C000000202149096808601F480068006840F0EA
:103C100001001D49096808601C48008812282ED13F
:103C20001B491C4800F05EFC29E01748006800684A
:103C300020F00100144909680860134800684068D2
:103C4000C0F124001149088024200F490968486008
:103C50001148806A20F400200F4988620A480068F1
:103C6000006840F0010008490968086007480088BA
:103C7000122804D106490748243000F033FC08BD5F
:103C8000940600200048004034070020A2000020D5
:103C900094070020AA070020006002400FE000BF48
:103CA0000B4A126802F08002002AF9D00278084B11
:103CB0005A60401C074A1268521C064B1A60054A9B
:103CC00012688A42EBDB0022024B1A607047000048
:103CD000001001401401002000BFFEE70248006808
:103CE000C0F30220704700000CED00E010B5002882
:103CF00004DB0A07130E054A135406E00A07140EE4
:103D0000034A00F00F031B1FD45410BD00E400E071
:103D100018ED00E070B500250024FCF78BFB802037
:103D2000FCF7C8FC5520FCF7C5FC5520FCF7C2FC8D
:103D30000546FCF775FB9620FCF7AAFBFCF77AFB1F
:103D40008020FCF7B7FC5520FCF7B4FC5520FCF7AD
:103D5000B1FC0546FCF764FB9620FCF799FBFCF7E9
:103D600069FBB6217E20FCF7B5FCFCF759FB50201F
:103D7000FCF781FBFCF75EFB8020FCF79BFC5520E9
:103D8000FCF798FC5520FCF795FC0546FCF748FB32
:103D90009620FCF77DFBFCF74DFB8020FCF78AFCAE
:103DA0005520FCF787FC5520FCF784FC0546FCF702
:103DB00037FB9620FCF76CFB1E2D01D0FF2070BD59
:103DC000002434E0FCF736FB04EB44021A4B1A449F
:103DD000517804EB4402985CFCF77CFCFCF720FB78
:103DE0009620FCF755FBFCF725FB04EB4401124A37
:103DF000515C41F08000FCF75DFC5520FCF75AFC5B
:103E00005520FCF757FC0546FCF70AFB9620FCF70B
:103E10003FFB04EB4400084908444078A84204D022
:103E200004EB440008448078C9E7601CC4B2062C47
:103E3000C8DB0020C3E70000BC00002038B5002428
:103E400000200090FCF70CFB69460020FCF725FCE5
:103E5000FCF7FCFA9620FCF71BFBFCF701FB69461C
:103E60000020FCF71AFCFCF7F1FA9620FCF710FB97
:103E7000FCF7F6FAB6211420FCF72CFCFCF7E6FA66
:103E80005020FCF7F8FAFCF7EBFA69460020FCF743
:103E900004FCFCF7DBFA9620FCF7FAFAFCF7E0FAF0
:103EA00069460020FCF7F9FBFCF7D0FA9620FCF7F6
:103EB000EFFA9DF800000F2801D0FF2038BD002444
:103EC0002FE0FCF7CDFA04EB4402184B1A4451786A
:103ED00004EB4402985CFCF7FDFBFCF7B7FA962074
:103EE000FCF7D6FAFCF7BCFA04EB44010F4A505C2D
:103EF0006946FCF7D2FBFCF7A9FA9620FCF7C8FA52
:103F000004EB44000949084440789DF800108842B9
:103F100005D004EB4400054908448078CEE7601CD6
:103F2000C4B2062CCDDB0020C8E70000CE00002084
:103F30009FED020A024880ED000A70470000000071
:103F40004C00002030B502460B46002010E012F86D
:103F5000014B6040002109E000F001041CB18C24F9
:103F600084EA600000E040104C1CE1B20829F3DB59
:103F70001C1EA3F10105ABB2E9D130BD004870476A
:103F80009407002010B52DED088B86B0FCF720FFBC
:103F9000FFF764F8FEF774FDFEF72EFDFEF706FF4F
:103FA000FEF77EFEFEF740FFFEF720FEFEF742FE24
:103FB000FEF756FFFE48D0ED000AFE4890ED000ADD
:103FC000B8EEC00A80EE801AFB4880ED001AFB486C
:103FD000D0ED000AF74890ED000AB8EEC00A80EE76
:103FE000801AF74880ED001AF648D0ED000AF14833
:103FF00090ED000AB8EEC00A80EE801AF24880ED1B
:10400000001A00BFFCF769FA0028FBD100F060FA43
:1040100000F0D6FAFFF7B2FFEC490860EC48FDF774
:1040200027FE0021EA48FEF735FA0421E848FEF7AA
:1040300031FA40F2DC50E64909684863E44909680E
:1040400088630021E348FEF721F8E348D0ED000A39
:10405000E248008800EE100AB8EE400A80EE801AAE
:10406000DF4880ED001ADF480068C06840F040007B
:10407000DC490968C86040F6B830FCF76DFD22E203
:10408000D24800684088D84908800846B0F9000046
:10409000002801DA00200880D44890ED000AD448B6
:1040A00080ED000AD048B0F9000000EE100AB8EE2A
:1040B000C00AD048D0ED000A30EE600ACB4880ED4F
:1040C000000ACD4890ED000AC848D0ED000A30EE55
:1040D000200AC94880ED000AC44890ED000AC4488F
:1040E000D0ED000A30EE600AC448D0ED000A80EE40
:1040F000201AC34880ED001AAF4890ED000ABB4873
:10410000D0ED000A20EE200AAD48D0ED000ABA48F2
:1041100090ED001A00EE810AAB48D0ED000AB848D5
:1041200090ED001A00EE810AB64880ED000A0068A2
:1041300000F036FE41EC190B9FEDB30B53EC102B46
:1041400000F00EFD04D2B7EE000AAE4880ED000A82
:10415000AC48006800F024FE41EC190B9FEDAC0B5D
:1041600053EC102B00F0C2FB04D2BFEE000AA548AE
:1041700080ED000AA348D0ED000A9FEDA71A9FED3D
:10418000A70A00EE810A80ED000A90ED000ADFED3B
:10419000A30AB4EEE00AF1EE10FA03D29FED9F0AF3
:1041A00080ED000A974890ED000ADFED9D0AB4EE1D
:1041B000E00AF1EE10FA03DD9FED990A80ED000AA6
:1041C00082490968B1F9040000F078FB41EC1B0B4F
:1041D0009FED940B53EC102B00F0C4FB41EC1A0B39
:1041E0009FED920B53EC102B00F0B4FA41EC190B3D
:1041F00000F07EFA08EE100A824890ED000ABCEE4C
:10420000C00A10EE100A724909684863BCEEC80A79
:1042100010EE100A6E4909688863864A8649874805
:10422000FCF76AF98648008800F4004000287BD03B
:1042300001240020029003900490059081A0006862
:1042400001909DF804008DF808009DF805008DF898
:10425000090000207C4908707C4880788DF80A00AD
:104260009DF80A007A49088000207A49088011E008
:1042700076497848B0F90000C01C095C02AA75486C
:10428000B0F90000C01C115472480088401C00B2F4
:10429000704908806F48B0F900006D49B1F900100D
:1042A0008842E5DB6A48B0F90000C01C6749095C38
:1042B0006748B0F90000C01C02AA11546448008885
:1042C000C01C81B202A8FFF73DFE5F49087060483C
:1042D000B0F90000C01C02A9085C5B49097888425B
:1042E00005D00024002006B0BDEC088B10BD002CCA
:1042F0004ED05748B0F90000001D5449095C54489D
:10430000B0F90000001D02AA11545148B0F9000094
:10431000401D4E49095C4E48B0F90000401D115443
:1043200000204D4908801CE03FE002A94A48B0F94E
:104330000000C01C095C4948474AB2F9002081547A
:1043400002A94548B0F90000401D085C4449424AB2
:10435000B2F90020885440480088401C00B23E4911
:1043600008803D48B0F900000228DEDB3B48B0F988
:1043700000003C4908603A48B0F900003A4908603A
:104380003348B0F90000801C02A9085C3749087066
:1043900000202D4908702E4908802E4908802E499A
:1043A000088001242649088000BF234860E00000FF
:1043B0007800002074000020840000207C00002091
:1043C00088000020800000208C0000200C000020CD
:1043D000A0030020E003002034000020380000206B
:1043E0003C00002054060020300000206400002023
:1043F000600000204C000020700000206C000020B5
:10440000680000202C000020000000000000F03FA9
:10441000000000000000F0BF0000FA430080BB4431
:104420000000FA44CDCCCCCCCCCCDCBF00000000EA
:10443000007097400000002030010020240100207F
:104440009E00002055AA0000960000206004002075
:104450009C000020980000209A00002022000020EC
:1044600024000020180000201C0000202000002054
:1044700090ED023AF0EE432A90ED013AB0EE432A75
:1044800090ED003AF0EE431A0F4890ED023AB0EE8C
:10449000431A90ED013AF0EE430A90ED003AB0EE87
:1044A000430A0A48007800F097F8FCF77FFC1421D3
:1044B000B0FBF1F201FB120008B9FFF739FD14203F
:1044C000FCF74AFB00BFDBE52401002020000020B0
:1044D00010B524220249A1F12400FEF7E3FC10BD2F
:1044E000CE07002000B101B970470278437842EA54
:1044F0000322C2F30A020A804278D210837842EA89
:104500004312C2F30A024A8082789211C37842EAC7
:104510008302037942EA8322C2F30A028A80027983
:104520005210437942EAC312C2F30A02CA804279A6
:10453000C2F301128A72427912119308CB72827906
:10454000C37942EA032212B28A81027A437A42EAAA
:10455000032213B201F10C02CB81827AC37A42EAC0
:10456000032213B201F10C020B82037B8B74437B99
:10457000CB74827BC37B42EA03228A82027C437C27
:1045800042EA032212B20A810A88A2F5806212B2BC
:104590000A804A88A2F5806212B24A808A88A2F50F
:1045A000806212B28A80CA88A2F5806212B2CA8082
:1045B0000A89A2F5806212B20A8100BF94E7000066
:1045C00004480068406940F0800002490968486179
:1045D00070470000540600202DE9F0412DED068BB8
:1045E00088B0B0EE408AF0EE608AB0EE419AF0EE0C
:1045F000619AB0EE42AAF0EE62AA064606274FF094
:10460000040820216846FBF7A6FE0025314880ED0E
:10461000008A3148C0ED008A304880ED009A304869
:10462000C0ED009A2F4880ED00AA2F48C0ED00AAE7
:1046300055208DF80000AA208DF8010017FB08F026
:10464000451CE8B28DF80200002422E02148015DFB
:10465000E01C0DF800102048015DE01D0DF8001071
:104660001E48015D04F10B000DF800101C48015DAF
:1046700004F10F000DF800101A48015D04F1130059
:104680000DF800101848015D04F117000DF8001036
:10469000641C042CDADBA81C0DF80060E81C81B255
:1046A0006846FFF74FFCE91C0DF801000F48017840
:1046B000281D0DF800100D484178681D0DF80010F8
:1046C0001F216846FFF7EAFA08B0BDEC068BBDE88B
:1046D000F0810000F0000020F4000020F80000202D
:1046E000FC0000200001002004010020B84E00085A
:1046F00021F00042A2F16052B2F5801F01F00043A8
:1047000028BFD2F17F6C0BD95FEA001C43EAC202DA
:1047100042EB507018BF704728BF20F0010070476F
:10472000B2F5801FBCBF184670474FEA410C1CF51C
:10473000001F02D2084600F0A9BB70B500F0BCF91A
:1047400000000089FFF7F6BF4FF00040A0F58000A1
:104750007047000010B591EA030F48BF83F0004393
:1047600000F13C82841A71EB030C05D2121943EB61
:104770000C03001B61EB0C01DFF824E14FEA11543C
:10478000A4EB135C1EEA430F18BF9EEA445F73D08C
:1047900023EA0E03DCF1200E21EA045143F48013D6
:1047A00032D322FA0CFE10EB0E0023FA0CFE41EB82
:1047B0000E01CCF1200E03FA0EFE10EB0E0051F1AB
:1047C0000001B1F5801FCCF1200E32D201EB045173
:1047D00012FA0EF2BDE8104058BF7047401C38BFB7
:1047E0005FEA420218BF7047002814BF20F00100A2
:1047F00041F100014FEA410313F5001F38BF704734
:10480000A1F1C04100F0A6B9012A43EB0302ACF1CB
:10481000200CDCF11F0E32BF4FF0000E23FA0CF318
:1048200010EB030041EB0451B4EB115FD0D0A1EBCE
:10483000045101F5801149085FEA300001EB045191
:104840000ED350F1000038BF12FA0EFE08D1BDE8B9
:104850001040C9E7401C38BF5FEA4202CAD1C3E733
:10486000BDE810404FEA410313F5001F38BF704701
:10487000A1F1C04100F06EB99EEA445F08D011EA90
:104880005E0FBDE8104004BF01F0004100207047FA
:10489000BDE8104070B500F00FF900BF64FBBE3EEC
:1048A0000000E0FF491058BFC1F140415B1058BF04
:1048B000C3F140438B42EFF30080704710F0004299
:1048C00048BF4042B0FA80F310FA03F10AD0C3F1B6
:1048D0001D0303F580634FEA415002EB035202EBE4
:1048E000D12170474FF000007047000051EA030CDF
:1048F00017D41CF5801F58BFBCF5801F00F106803F
:10490000994218BF704708BF9042704707D711F50A
:10491000801F58BF13F5801F19D4994270478942F0
:1049200070471CF5801F08D5BCF5801FF7D58B425A
:1049300018BF704708BF824270474FF4001C1CEB41
:10494000410F38BF1CEB430F01D28B42704770B54B
:1049500000F0B2F8922449004FF000514FF080531C
:10496000FFF7A0BFDFF848C170B51CEA111E1EBFDB
:104970001CEA13159EEA0C0F95EA0C0F00F06F80ED
:1049800081EA030423EA4C134EEAD47E21EA4C1157
:1049900041F4801143F48013AE44A1FB024CA0FB10
:1049A0000365AEF17F7E361955EB0C05A1FB034C78
:1049B0004CF10003A0FB021C16EB0C06654153F101
:1049C0000003094218BF46F0010613F4007F0BD123
:1049D0004FEA03314FEA0530340341EA155140EA0A
:1049E00016506FF003020AE04FEAC3214FEAC520D8
:1049F000F40241EA555140EA56506FF0020202EBD0
:104A00002E4201EB025585EACE710AD05FEA440CD2
:104A100018BF24F0004450F1000041F1000120EAE9
:104A2000D47040F2FE7C624500D270BDA84214BF33
:104A30004FF080444FF04044002E08BF0024BEF1E8
:104A4000806FA8BFA1F1C041BDE8704080F28280B4
:104A50004FF0000001F1C04101F0004170479EEAB3
:104A60000C0F0CEA131518BF95EA0C0F06D04FF087
:104A7000000081EA030E0EF0004170BD00F01CF84A
:104A80008900013E00F007B800F009B84FEA430C76
:104A90005FEA5C5C08D081EA030100F05BB84FEA92
:104AA000410C5FEA5C5CF6D14FF0000001497047B1
:104AB0000000FF070000F87F0EF1020E2EF0030E3B
:104AC0005EF8046B364205D4012A43EB030515F565
:104AD000001F12D8012841EB010C1CF5001F0CD857
:104AE0000ED14FEAD17C15F5001F0CEB4C0C0CF1EC
:104AF000020C08BF4CEBD37C04E04FF0080C01E043
:104B00004FEAD37C0CEB4C0526FA05F606F00706B7
:104B1000B6F1040C06D20EEB860CBDE870404CF0EA
:104B2000010C6047DFE80CF0090B02024FF0004176
:104B30004FF00000A1F5002170BD19461046012874
:104B400051EB010418BFD4F5001484BF002001F01C
:104B5000004170BD0808A0F500114FEA310170470F
:104B600053EA010C17D41CF5801F58BFBCF5801FF9
:104B700000F106808B4218BF704708BF8242704721
:104B800007D713F5801F58BF11F5801F19D48B422A
:104B900070479B4270471CF5801F08D5BCF5801FED
:104BA000F7D5994218BF704708BF904270474FF43D
:104BB000001C1CEB430F38BF1CEB410F01D2994284
:104BC00070470FB40CBC03BCFFF7C1BE10B591EA2F
:104BD000030F48BF83F000433FF5C4AD841A71EB67
:104BE000030C07D212198CF0004C43EB0C03001B92
:104BF00061EB0C01DFF8A4E14FEA1154A4EB135C64
:104C00001EEA430F18BF9EEA445F00F0B08023EA1B
:104C10006E03524221EA0451C3EB6E0338BF5B1EA0
:104C2000DCF1200E25D322FA0CFE10EB0E0043FA25
:104C30000CFE41EB0E01CCF1200E03FA0EFE10EB40
:104C40000E0051F10001CCF1200E29D412FA0EF21F
:104C500001EB0451BDE8104058BF7047401C1CBF19
:104C6000B2F1004F704700280CBF491C20F0010032
:104C7000704712EB020E43EB030218BF4FF0010E18
:104C80004EEA4202ACF1200CDCF11E0E54D943FA7C
:104C90000CFE10EB0E0051F1FF31CCF11E0ED5D5FC
:104CA0000EF1010E12FA0EFE404141EB010101EB43
:104CB000445C5FEA5C5C10D910EBDE7001EB0451E0
:104CC00038BFBEF1004FBDE8104018BF7047002844
:104CD0000CBF491C20F00100704730D24FEAD42CA1
:104CE00011F5001124F400641BD0B1FA81F20B3AE3
:104CF000A41AA41ED2F12003914030FA03F3194301
:104D0000904001EBCC71002C01EB0451BDE8104048
:104D1000A8BF704701F1C0414FF0000001F0004111
:104D20007047B0FA80F310FA03F100D110BDE41A15
:104D3000173C4805C90AE4E701EB045110BD4910CE
:104D400001EB0451BDE810404FEA300002E04FF0A3
:104D5000000170474A0008BF0042F8D0B2F5001FBA
:104D600028BF704701F000414FF0000070479EEAF5
:104D7000445F07D011EA5E0FBDE8104004BF002178
:104D800000207047BDE8104070B5FFF795FE00BFEA
:104D900040DFF63E83F00041104670470000E0FF20
:104DA00043004FEAD30C4FEA3C0C43401FBF40077F
:104DB0000CF1605113F0FE4F70471CF0006F03D1EF
:104DC00000200CF0004170470CF0004343EA5070A3
:104DD00010B540EACC0000F00EF800BF00000092D1
:104DE0004FEA0001FFF7B6BE4FF000414FF0000060
:104DF000A1F5002170470EF1020E2EF0030E5EF8B1
:104E0000044B244204D44FEA4102B2F17F4F11D83F
:104E10004FEA4003B3F17F4F0CD80ED14FEAD07C5C
:104E2000B2F17F4F0CEB4C0C0CF1020C08BF4CEBB9
:104E3000D17C04E04FF0080C01E04FEAD17C0CEB90
:104E40004C0324FA03F404F00704B4F1040C06D272
:104E50000EEB840CBDE810404CF0010C6047DFE81D
:104E60000CF0070802024FF00040A0F5800010BDD2
:104E70000846420018BFD2F1807288BF00F000409F
:104E800010BD4FF04070E1EE100A7047FF2141EA7B
:104E9000D050C00570470000000000000000010273
:104EA00003040607080900000000010203040006CD
:104EB00010160006101655AA0D0A0000DC4E000858
:104EC0000000002018010000C4010008F44F000891
:104ED0001801002040470000E00100080000000029
:104EE000A0860100E8030000000000008813D0073E
:104EF000E8030500000000000000000000000000C2
:104F000000000000000000000000C8440000000095
:104F1000A037204D040AFFFF000000000000000041
:104F20000000000000000000000000000000000081
:104F30000000000000000000000000000000000071
:104F400000000000000000000000803F00000000A2
:104F5000A0860100000020410000A0400000803F2A
:104F60000000000000000000000000000000000041
:104F70000000000000000000000000000000000031
:104F80000024F400000000001000000001000000F8
:104F9000E7416B3A58A08B3A7D04017C000240AB9C
:104FA000034100055308065804070F000810820942
:104FB00011000A15800B16000C18010D00000000EE
:104FC00000000000000000000000000000000000E1
:104FD00000000000000000000000000000000000D1
:104FE00000000000000000000000001100000000B0
:044FF00000000000BD
:040000050800018965
:00000001FF
