:020000040800F2
:10000000280700202902000865130008F9110008DC
:10001000611300081F040008711A000800000000A6
:10002000000000000000000000000000691300084C
:100030002304000800000000671300086B13000889
:10004000430200084302000843020008430200087C
:10005000430200084302000843020008430200086C
:10006000430200084302000843020008430200085C
:10007000430200084302000843020008430200084C
:10008000430200084302000843020008430200083C
:10009000430200084302000843020008430200082C
:1000A000430200084302000843020008430200081C
:1000B000430200084302000843020008430200080C
:1000C00043020008430200084302000843020008FC
:1000D00043020008430200084302000843020008EC
:1000E00043020008430200084302000843020008DC
:1000F00043020008430200084302000843020008CC
:1001000043020008430200084302000843020008BB
:1001100043020008430200084302000843020008AB
:10012000430200084302000843020008430200089B
:10013000430200084302000843020008430200088B
:10014000430200084302000843020008430200087B
:10015000430200084302000843020008430200086B
:10016000430200084302000843020008430200085B
:100170004302000843020008430200080000000098
:10018000430200084302000800F002F800F03CF8C7
:100190000AA090E8000C82448344AAF10107DA45E2
:1001A00001D100F031F8AFF2090EBAE80F0013F0F8
:1001B000010F18BFFB1A43F0010318473822000053
:1001C00058220000103A24BF78C878C1FAD85207E4
:1001D00024BF30C830C144BF04680C6070470000C1
:1001E0000023002400250026103A28BF78C1FBD840
:1001F000520728BF30C148BF0B6070471FB502F0DF
:10020000E2F81FBD10B510BD00F0CFF81146FFF7A2
:10021000F5FF01F04BFC00F0EDF803B4FFF7F2FF3F
:1002200003BC00F0F5F80000094880470948004782
:10023000FEE7FEE7FEE7FEE7FEE7FEE7FEE7FEE796
:10024000FEE7FEE704480549054A064B70470000F3
:10025000291400088901000828010020280700202F
:10026000280300202803002053EA020C00F06980D4
:100270002DE9F04B4FF00006002B1FBFB3FA83F5BA
:1002800003FA05F424FA05F65E4012BF1643B2FAEB
:1002900082F502FA05F4C5F120051EBF22FA05FC1D
:1002A00044EA0C04203556EA044C4FEA144418BFC3
:1002B000641C4FF000084FF00009904271EB030CF2
:1002C00039D3002919BFB1FA81F701FA07F6B0FA5C
:1002D00080F700FA07F6C7F120071EBF20FA07FCD7
:1002E00046EA0C062037B6FBF4FCA7EB0507103FE7
:1002F00007F01F0BCBF120060CFA0BFB2CFA06F6CD
:1003000044BFB3460026202FA4BF5E464FF0000B2B
:100310005BEA060C08BF4FF0010B19EB0B09ABFBB6
:10032000027C48EB0608C01B06FB02CC0BFB03CC8F
:1003300071EB0C01C1E70B46024641464846BDE859
:10034000F08B13B54FF000004FF00001AFF30080C9
:10035000BDE81C4070474FF0000200B513469446BC
:100360009646203922BFA0E80C50A0E80C50B1F10D
:100370002001BFF4F7AF090728BFA0E80C5048BF21
:100380000CC05DF804EB890028BF40F8042B08BFBF
:10039000704748BF20F8022B11F0804F18BF00F8BB
:1003A000012B7047704770477047754600F02CF876
:1003B000AE4605006946534620F00700854618B052
:1003C00020B5FFF73FFFBDE820404FF000064FF09B
:1003D00000074FF000084FF0000B21F00701AC467A
:1003E000ACE8C009ACE8C009ACE8C009ACE8C00999
:1003F0008D46704710B50446AFF300802046BDE837
:100400001040FFF70ABF000000487047C4000020FA
:1004100001491820ABBEFEE726000200704700BF6E
:10042000FEE770477047000070B5044600F016F90B
:1004300006462546681C10B104480078054400BFF4
:1004400000F00CF9801BA842FAD370BD0C0000200C
:10045000F8B502460B460025002400200021DCE010
:10046000012606FA01F51E6806EA0504AC4273D1BE
:100470005E68012E08D05E68022E05D05E68112EDF
:1004800002D05E68122E13D190684F000326BE4042
:10049000B0434F00DE68BE40304390605068012694
:1004A0008E40B0431E79C6F300168E403043506034
:1004B000D0684F000326BE40B0434F009E68BE4048
:1004C0003043D0605E68022E02D05E68122E13D1D7
:1004D000CF0802F1200656F827004E07F70E0F2628
:1004E000BE40B0434F07FF0E1E69BE403043CF08E9
:1004F00002F1200646F8270010684F000326BE4090
:10050000B0431E7906F003064F00BE403043106032
:100510005E6806F08056B6F1805F7DD100BF002690
:100520000096404E366846F480463E4F3E603E465A
:10053000366806F48046009600BF00BF3A4E8F082A
:1005400056F827008E07370F0F26BE40B043374EB0
:10055000B24202D1002624E05EE0354EB24201D123
:1005600001261EE0334EB24201D1022619E0324E7E
:10057000B24201D1032614E0304EB24201D104262A
:100580000FE02F4EB24201D105260AE02D4EB242B5
:1005900001D1062605E02C4EB24201D1072600E02B
:1005A00008268F073F0FBE4030431F4E8F0846F886
:1005B0002700264E3068A0435E6806F48036B6F504
:1005C000803F00D12043214E3060361D3068A0436B
:1005D0005E6806F40036B6F5003F00D120431B4E9E
:1005E000361D3060361D3068A0435E6806F4801604
:1005F000B6F5801F00D12043144E08363060361DFA
:100600003068A0435E6806F40016B6F5001F00D1FE
:1006100020430E4E0C363060491C1029FFF420AFE9
:10062000F8BD000044380240083801400000024094
:100630000004024000080240000C0240001002408A
:100640000014024000180240001C0240003C01401F
:100650000AB1816101E00B048361704701480068C1
:10066000704700000400002003480068034909782F
:100670000844014908607047040000200C00002075
:1006800010B50D48006840F400700B49086008463A
:10069000006840F4806008600846006840F480709C
:1006A0000860032000F0A2F8002000F007F800F036
:1006B0002BF8002010BD0000003C024070B504463D
:1006C0000E4800784FF47A71B1FBF0F00C490968DC
:1006D000B1FBF0F5284600F021FC08B1012070BD07
:1006E000102C07D200222146501E00F041F8054888
:1006F000046001E00120F2E70020F0E70C00002098
:10070000000000200800002008B500BF0020009075
:100710000E48006840F480400C49086008460068B4
:1007200000F48040009000BF00BF00BF0020009098
:10073000081F006840F08050091F086008460068E4
:1007400000F08050009000BF00BF08BD4438024058
:1007500001460846002809DB00F01F0301229A40E9
:1007600043099B0003F1E023C3F8002100BF704759
:100770002DE9F05F80460D461646002701F07AF914
:10078000074639462A46334601F00700C0F1070AFA
:10079000BAF1040F02D94FF0040A01E0C0F1070AD0
:1007A000D14600F1040ABAF1070F02D24FF0000A55
:1007B00001E0A0F1030AD4464FF0010A0AFA09FA4F
:1007C000AAF1010A0AEA020A0AFA0CFA4FF0010B2E
:1007D0000BFA0CFBABF1010B0BEA030B4AEA0B041F
:1007E0002146404601F04EF9BDE8F09F00BF00F001
:1007F0000702064B19684FF6FF031940044B0B43E1
:1008000043EA0221014B196000BF70470CED00E084
:100810000000FA0570B504460D460CB9012070BD04
:100820005848006800F00F00A84209D255490D70E1
:100830000846006800F00F00A84201D00120EEE752
:10084000207800F0020002281DD1207800F004007A
:10085000042805D14C48006840F4E0504A4908603B
:10086000207800F00800082805D14748006840F4C7
:100870006040454908604448006820F0F000A168E5
:10088000084341490860207800F00100A8B360687F
:10089000012807D13C4808380068C0F34040B8B987
:1008A0000120BCE76068022802D06068032807D1F5
:1008B000354808380068C0F3406048B90120AEE709
:1008C000314808380068C0F3400008B90120A6E7A5
:1008D0002D48006820F00300616808432A49086039
:1008E000FFF7BCFE064609E0FFF7B8FE801B41F2A9
:1008F0008831884202D9032091E707E02248006846
:1009000000F00C006168B0EB810FEDD11D4800686C
:1009100000F00F00A84209D91A490D700846006876
:1009200000F00F00A84201D0012078E7207800F005
:100930000400042807D11448006820F4E050E1685E
:10094000084311490860207800F00800082808D101
:100950000D48006820F46040216940EAC1000A495E
:10096000086000F03FF808490968C1F30311074A1D
:10097000515CC8400649086006480068FFF79EFEC3
:1009800000204CE7003C024008380240DA2300080F
:1009900000000020080000200148006870470000A7
:1009A0000000002000B5FFF7F7FF04490968C1F314
:1009B0008221034A515CC84000BD00000838024053
:1009C000EA23000800B5FFF7E7FF04490968C1F30F
:1009D0004231034A515CC84000BD00000838024063
:1009E000EA2300082DE9F047002400250026A1464F
:1009F0002548006800F00C0020B1042805D0082824
:100A00003AD105E0DFF8849039E0DFF8849036E0F1
:100A10001D48001F006800F03F041B48001F0068CD
:100A200000F4800078B11A481749091F0968C1F31A
:100A30008811A0FB01700146224600233846FFF7CB
:100A400013FC05460EE011480F49091F0968C1F360
:100A50008811A0FB01700146224600233846FFF7AB
:100A600003FC05460848001F0068C0F30140401C15
:100A70004600B5FBF6F902E0DFF8109000BF00BFBA
:100A80004846BDE8F0870000083802400024F40022
:100A9000001BB700F8B504460CB90120F8BD20785A
:100AA00000F00100002874D0F948006800F00C0044
:100AB00004280DD0F648006800F00C00082813D177
:100AC000F348001F006800F48000B0F5800F0BD1E0
:100AD000EF4808380068C0F34040002859D06068EB
:100AE000002856D10120D9E700BF6068B0F5803FEB
:100AF00008D1E7480838006840F48030E4490839F4
:100B000008601EE06068B0F5A02F0DD1E0480838FD
:100B1000006840F48020DE49083908600846006813
:100B200040F4803008600CE0D9480838006820F4B0
:100B30008030D749083908600846006820F48020D2
:100B4000086000BF606890B1FFF788FD054606E0C9
:100B5000FFF784FD401B642801D903209EE7CC48A1
:100B600008380068C0F340400028F1D011E0FFF7DA
:100B700075FD054606E0FFF771FD401B642801D9AD
:100B800003208BE7C24808380068C0F340400028C3
:100B9000F1D1207800F0020002285FD1BC48006843
:100BA00000F00C0058B1BA48006800F00C000828AA
:100BB0001CD1B748001F006800F48000B0B9B448E9
:100BC00008380068C0F3400020B1E068012801D077
:100BD000012063E7AE480838006820F0F80021697A
:100BE00040EAC100AA490839086037E0E06800B36C
:100BF0000120A8490860FFF731FD054606E0FFF730
:100C00002DFD401B022801D9032047E7A0480838E2
:100C10000068C0F340000028F1D09D480838006803
:100C200020F0F800216940EAC100994908390860BC
:100C300014E0002097490860FFF710FD054606E024
:100C4000FFF70CFD401B022801D9032026E790483E
:100C500008380068C0F340000028F1D1207800F087
:100C6000080008282CD16069A8B101208A490860D1
:100C7000FFF7F4FC054606E0FFF7F0FC401B0228F6
:100C800001D903200AE782486C300068C0F34000B5
:100C90000028F1D014E000207F490860FFF7DEFC57
:100CA000054606E0FFF7DAFC401B022801D90320C5
:100CB000F4E677486C300068C0F340000028F1D1BA
:100CC000207800F00400042870D1002770483830E4
:100CD000006800F0805090B900BF002000906C4880
:100CE0003830006840F08050694938310860084663
:100CF000006800F08050009000BF00BF01276748E7
:100D0000006800F48070B0B96448006840F48070F6
:100D100062490860FFF7A2FC054606E0FFF79EFC6B
:100D2000401B022801D90320B8E65C48006800F4A3
:100D300080700028F2D000BFA068012808D1544874
:100D40006830006840F001005149683108601DE0DA
:100D5000A06805280DD14E486830006840F00400B6
:100D60004B49683108600846006840F0010008609F
:100D70000CE047486830006820F0010044496831C1
:100D800008600846006820F00400086000BFA06802
:100D9000A8B1FFF763FC054609E0FFF75FFC401BC5
:100DA00041F28831884202D9032077E626E03848AC
:100DB00068300068C0F340000028EED013E0FFF771
:100DC0004DFC054608E0FFF749FC401B41F2883125
:100DD000884201D9032061E62D4868300068C0F3DD
:100DE00040000028EFD1012F07D129483830006892
:100DF00020F0805026493831086000BFA0690028E3
:100E000045D02348006800F00C0008285DD0A06998
:100E1000022845D100201F490866FFF71FFC054640
:100E200006E0FFF71BFC401B022801D9032035E632
:100E3000174808380068C0F340600028F1D1D4E9B1
:100E400007010843616A40EA81110122A06AC2EBEE
:100E5000500041EA00412C20005D41EA00600C494D
:100E6000091F086001200B490866FFF7F7FB0546DC
:100E700006E0FFF7F3FB401B022801D903200DE633
:100E8000034808380068C0F340600028F1D03FE014
:100E90000838024000004742800E47420070004080
:100EA00000201C490866FFF7D9FB054606E0FFF75E
:100EB000D5FB401B022801D90320EFE51648006846
:100EC000C0F340600028F2D122E0A069012800D1DF
:100ED000E4E51148001D066806F48001E0698142DE
:100EE00014D106F03F01206A81420FD147F6C0704D
:100EF0003040616A884209D106F44031A06A8142DB
:100F000004D106F07061E06A814201D00120C5E59C
:100F10000020C3E5000047420038024070B5044697
:100F20002546681EB0F1807F01D301200FE0681EC6
:100F30004FF0E02148610F214FF0FF3000F0A2FD9B
:100F400000204FF0E021886107200861002070BD7B
:100F500010B504460CB9012010BDA06900B100E035
:100F600000BF94F8390028B9002084F838002046E2
:100F700000F028F8242084F839002068C06820F4A4
:100F800000502168C860204600F048FB20680069D6
:100F900020F49040216808612068406920F02A0010
:100FA000216848612068C06840F400502168C8602A
:100FB0000020E063202084F8390084F83A00002003
:100FC000CAE7000010B586B00446142101A8FFF757
:100FD000C2F94D492068884256D100BF00200090D8
:100FE0004A48006840F01000484908600846006818
:100FF00000F01000009000BF00BF00BF0020009074
:1010000042481438006840F0020040491439086032
:101010000846006800F00200009000BF00BF00BF5B
:10102000002000900846006840F001000860084673
:10103000006800F00100009000BF00BF8020019018
:1010400002200290002003900320049007200590C6
:1010500001A92F48FFF7FCF94FF40070019002201E
:10106000029000200390032004900720059001A91E
:101070002848FFF7EDF9002211462520FFF778FBFD
:101080002520FFF765FB3CE023492068884238D1E2
:1010900000BF002000901D48006840F020001B4960
:1010A00008600846006800F02000009000BF00BF04
:1010B00000BF0020009015481438006840F0400040
:1010C0001249143908600846006800F0400000909A
:1010D00000BF00BF4FF48440019002200290002026
:1010E0000390032004900820059001A90B48FFF706
:1010F000AFF9002211464720FFF73AFB4720FFF7E0
:1011000027FB06B010BD000000100140443802402B
:101110000004024000000240001401400018024098
:101120002DE9F84304460D4616461F464FF00009C8
:1011300094F8390020285DD105B116B90120BDE829
:10114000F88300BF94F83800012801D10220F6E7A7
:10115000012084F8380000BF0020E063212084F8DB
:101160003900FFF77BFA8146A684E68400BF0020A1
:1011700084F8380000BF2BE0E08C401EE084A068BB
:10118000B0F5805F16D14B460022802120460097A3
:1011900000F038FC08B10320D1E7A846B8F80000F9
:1011A000C0F3080021684860206908B9AD1C0FE051
:1011B0006D1C0DE04B46002280212046009700F078
:1011C00021FC08B10320BAE715F8010B216848603B
:1011D000E08C0028D0D14B460022402120460097C9
:1011E00000F010FC08B10320A9E7202084F83900A2
:1011F0000020A4E70220A2E700BFFEE700B587B009
:10120000142102A8FFF7A7F800BF0020019035487D
:10121000006840F04000334908600846006800F06C
:101220004000019000BF00BF00BF002001900846B1
:10123000006840F0010008600846006800F0010006
:10124000019000BF00BF00BF002001900846006869
:1012500040F0020008600846006800F002000190BB
:1012600000BF00BF00BF002001900846006840F0AA
:10127000080008600846006800F00800019000BF00
:1012800000BF00BF002001900846006840F08000C9
:1012900008600846006800F08000019000BF00BFB1
:1012A00001224FF4E0511048FFF7D2F9602002907C
:1012B0000220039000200490032005900720069050
:1012C00002A90A48FFF7C4F84FF4E0500290012049
:1012D000039004900220059002A90348FFF7B8F894
:1012E00007B000BD30380240001C0240000C024034
:1012F00010B50B480B4908604FF4E13048600021FD
:1013000008488160C16001610C2141610021816157
:10131000C161FFF71DFE08B1FFF784F810BD0000A2
:10132000001001404400002010B50B480B49086034
:101330004FF4E1304860002108488160C1600161DC
:101340000C21416100218161C161FFF701FE08B1FB
:10135000FFF768F810BD0000001401408400002071
:1013600000BFFEE770477047704710B5FFF77CF984
:1013700010BD000000B593B0302107A8FEF7EBFFC9
:10138000142102A8FEF7E7FF00BF002001902448C7
:10139000006840F08050224908600846006800F06C
:1013A0008050019000BF00BF00BF002001901D4889
:1013B000006840F480401B4908600846006800F45B
:1013C0008040019000BF00BF0120079000040890FA
:1013D00002200D9041050E9106210F91A821109138
:1013E000022111910421129107A8FFF753FB08B1C4
:1013F000FFF718F80F2002900220039000200490BD
:101400004FF4A05005904FF480500690052102A89B
:10141000FFF700FA08B1FFF705F813B000BD0000B0
:1014200040380240007000401448006840F47000EA
:10143000124908601248006840F001001049086035
:1014400000200F49083108600D4800680D49084028
:101450000B4908600C48091D0860081F006820F44B
:101460008020091F0860002005490C3108604FF0FA
:1014700000600249803908607047000088ED00E094
:1014800000380240FFFFF6FE1030002470B505461C
:101490000C464FF6FF73224602490348FFF740FE11
:1014A00070BD000010000020440000207FB5002423
:1014B000AA222146641C5848425405222146641C35
:1014C0004254AF222146641C4254F1222146641C3E
:1014D000425400222146641C42549DF801202146BA
:1014E000641C42549DF800202146641C42549DF81F
:1014F00005202046611CCCB247490A549DF80420BF
:101500002046611CCCB244490A549DF8092020466B
:10151000611CCCB240490A549DF808202046611C49
:10152000CCB23D490A549DF80D202046611CCCB236
:1015300039490A549DF80C202046611CCCB236492A
:101540000A549DF821202046611CCCB232490A542D
:101550009DF820202046611CCCB22F490A549DF8EA
:1015600025202046611CCCB22B490A549DF824202A
:101570002046611CCCB228490A549DF829202046F7
:10158000611CCCB224490A549DF828202046611CD5
:10159000CCB221490A549DF82D202046611CCCB2C2
:1015A0001D490A549DF82C202046611CCCB21A49D2
:1015B0000A549DF831202046611CCCB216490A54C9
:1015C0009DF830202046611CCCB213490A549DF886
:1015D00035202046611CCCB20F490A549DF83420B6
:1015E0002046611CCCB20C490A54601F08710025CA
:1015F000002005E00849095C2944CDB2411CC8B26D
:10160000A042F7DB2046611CCCB203490D542146B1
:101610000148FFF73BFF7FBD100000202DE9F84F88
:1016200004462068006920F44050E16808432168BE
:1016300008612169A068084361690843E1690843BA
:1016400000902068C06849F20C6188430099084303
:101650002168C8602068406920F44070A16908438F
:1016600021684861E069B0F5004F75D1E349206811
:10167000884203D0E249206888426FD1FFF7A2F97F
:10168000814602206168A0FB01510B461920A9FB8D
:1016900000712A463846FEF7E7FD6421B0FBF1F001
:1016A0004FEA001A02206168A0FB01510B46192085
:1016B000A9FB00712A463846FEF7D6FD07460220F0
:1016C0006168A0FB01510B461920A9FB00B12A4615
:1016D0005846FEF7C9FD6421B0FBF1F000EBC001F4
:1016E00001EB0010A7EB8000322101EBC000642168
:1016F000B0FBF1F000F0F8000AEB400A022061684C
:10170000A0FB01510B461920A9FB00712A4638465F
:10171000FEF7AAFD074602206168A0FB01510B46B7
:101720001920A9FB00B12A465846FEF79DFD642109
:10173000B0FBF1F000EBC00101EB0010A7EB800063
:10174000322101EBC0006421B0FBF1F000F0070092
:101750005044216888604FE16EE0FFE7FFF722F90F
:10176000814602206168A0FB01510B461920A9FBAC
:1017700000712A463846FEF777FD6421B0FBF1F090
:101780004FEA001A02206168A0FB01510B461920A4
:10179000A9FB00712A463846FEF766FD074602207F
:1017A0006168A0FB01510B461920A9FB00B12A4634
:1017B0005846FEF759FD6421B0FBF1F000EBC00183
:1017C00001EB0010A7EB8000322101EBC000642187
:1017D000B0FBF1F000F0F8000AEB400A022061686B
:1017E000A0FB01510B461920A9FB00712A4638467F
:1017F000FEF73AFD074602206168A0FB0150034650
:101800001920A9FB00B12A465846FEF72DFD642198
:10181000B0FBF1F000EBC00101EB0010A7EB800082
:10182000322101EBC0006421B0FBF1F000F00700B1
:10183000504421688860DFE070492068884203D006
:101840006F49206888426BD1FFF7BCF881460420BD
:101850006168A0FB01510B461920A9FB00712A46C3
:101860003846FEF701FD824604206168A0FB015165
:101870000B461920A9FB00712A463846FEF7F4FCF6
:101880006421B0FBF1F000EBC00101EB0010AAEB0A
:101890008000322101EB00106421B0FBF1F000F078
:1018A000F00A04206168A0FB015003461920A9FB3F
:1018B00000712A463846FEF7D7FC6421B0FBF1F0F0
:1018C0000AEB001A04206168A0FB01510B461920A5
:1018D000A9FB00712A463846FEF7C6FC07460420DD
:1018E0006168A0FB015003461920A9FB00B12A46FC
:1018F0005846FEF7B9FC6421B0FBF1F000EBC001E3
:1019000001EB0010A7EB8000322101EB00106421F5
:10191000B0FBF1F000F00F005044216888606BE0EC
:10192000FFF740F8814604206168A0FB01500346A0
:101930001920A9FB00712A463846FEF795FC82461D
:1019400004206168A0FB015003461920A9FB007127
:101950002A463846FEF788FC6421B0FBF1F000EB24
:10196000C00101EB0010AAEB8000322101EB001056
:101970006421B0FBF1F000F0F00A04206168A0FBE4
:10198000015003461920A9FB00712A463846FEF78C
:101990006BFC6421B0FBF1F00AEB001A04206168D3
:1019A000A0FB017003461920A9FB005001463A46EE
:1019B0002846FEF759FC074604206168A0FB015049
:1019C00003461920A9FB00B12A465846FEF74CFCF5
:1019D0006421B0FBF1F000EBC00101EB0010A7EBBC
:1019E0008000322101EB00106421B0FBF1F000F027
:1019F0000F00504421688860BDE8F88F0010014056
:101A0000001401402DE9F04104460D461746984662
:101A1000069E21E0701CF8B12EB1FEF71FFEA0EB70
:101A20000800B04218D92068C06820F4D07021683E
:101A3000C8602068406920F00100216848612020CA
:101A400084F8390084F83A0000BF002084F8380098
:101A500000BF0320BDE8F081206800682840A8424C
:101A600001D1012000E00020B842D3D00020F1E7EE
:101A700000BFFEE702480068C0F302207047000084
:101A80000CED00E010B5002804DB0A07130E054A30
:101A9000135406E00A07140E034A00F00F031B1F3D
:101AA000D45410BD00E400E018ED00E02DED088BEB
:101AB00086B09FED4B0AB0EE409AFEF7E1FDFFF7CE
:101AC00059FCFFF79BFBFFF713FCFFF72DFC0022EF
:101AD0004FF480514348FEF7BBFD00224FF40061F4
:101AE0004048FEF7B5FD00224FF480613D48FEF707
:101AF000AFFD73E01420FEF797FC0122D1023948B4
:101B0000FEF7A6FD18EE100A00F0ECFB41EC1B0BF3
:101B10009FED350B53EC102B00F0A6F841EC1A0B9F
:101B200000F070F808EE100A9FED310AB4EEC08A9A
:101B3000F1EE10FA03DB9FED2A0AB0EE408A28EEA0
:101B4000080AF0EE000A08EE200A10EE101A084605
:101B500000F0C8FB41EC1B0B9FED260B53EC102B48
:101B600000F082F841EC1A0B00F04CF808EE900AF5
:101B700018EE100A00F0B6FB41EC1B0B9FED1F0B9B
:101B800053EC102B00F018F941EC1A0B00F03AF866
:101B900009EE100A0A20092108220723CDE90232A2
:101BA000CDE9041006200521BCEEC90A10EE103A5A
:101BB0009AB2BCEEE80A10EE103ACDE9001099B2E4
:101BC000BCEEC80A10EE103A98B20423FFF76EFC80
:101BD00000224FF400610348FEF73AFD8AE7000057
:101BE00000000000001C0240CDCCCCCCCCCC00408E
:101BF000000048420000000000803240333333339D
:101C00003333034021F00042A2F16052B2F5801F4D
:101C100001F0004328BFD2F17F6C0BD95FEA001CB2
:101C200043EAC20242EB507018BF704728BF20F051
:101C300001007047B2F5801FBCBF184670474FEADD
:101C4000410C1CF5001F02D2084600F0C1BB70B564
:101C500000F00AFA00000089FFF7F6BF4FF00040DD
:101C6000A0F580007047000010B591EA030F48BF4F
:101C700083F0004300F15482841A71EB030C05D207
:101C8000121943EB0C03001B61EB0C01DFF824E19C
:101C90004FEA1154A4EB135C1EEA430F18BF9EEAEF
:101CA000445F73D023EA0E03DCF1200E21EA0451D5
:101CB00043F4801332D322FA0CFE10EB0E0023FA09
:101CC0000CFE41EB0E01CCF1200E03FA0EFE10EBE0
:101CD0000E0051F10001B1F5801FCCF1200E32D27F
:101CE00001EB045112FA0EF2BDE8104058BF7047E4
:101CF000401C38BF5FEA420218BF7047002814BF7B
:101D000020F0010041F100014FEA410313F5001FEB
:101D100038BF7047A1F1C04100F0F4B9012A43EB8C
:101D20000302ACF1200CDCF11F0E32BF4FF0000EAD
:101D300023FA0CF310EB030041EB0451B4EB115FF9
:101D4000D0D0A1EB045101F5801149085FEA3000C1
:101D500001EB04510ED350F1000038BF12FA0EFE11
:101D600008D1BDE81040C9E7401C38BF5FEA420215
:101D7000CAD1C3E7BDE810404FEA410313F5001F85
:101D800038BF7047A1F1C04100F0BCB99EEA445F82
:101D900008D011EA5E0FBDE8104004BF01F0004119
:101DA00000207047BDE8104070B500F05DF900BF3D
:101DB00064FBBE3E0000E0FF2DE9C04130B4DFF817
:101DC000A0C23CEA111418BF3CEA131400F0EC80E6
:101DD00081EA03051CEA111444EAD57418BF1CEA11
:101DE000131500F0C780A4EB05044FF0004545EA49
:101DF000C12145EAC32341EA505143EA525304F159
:101E00007F74994204F500344FEAC0204FEAC222A1
:101E100008BF904200F09C804FEA13650FF2401615
:101E2000765D4FEA134506FB05F7C7F1807706FBA1
:101E300007F74FEAD737A7FB03687642C8F5803823
:101E4000A7FB06CE38BFA8F1010807FB08E64FF054
:101E5000000EA6FB028CE6FB03CEDCF1000CCEF1FB
:101E6000004E38BFAEF1010EA6FB0C584FF0000734
:101E70004FF00005E6FB0E87A1FB08C6A0FB07CECE
:101E800016EB0E0645F10005E1FB076515F1E04E86
:101E90007EBFA4F580345FEA46066D4116F18007E7
:101EA00045F100054FEA17274FEA066647EA05673E
:101EB000A6F1DE46B6F1805F4FEA15251FD93846F8
:101EC00024F0010C05EBC471BCF1FE6F01EB0C11A9
:101ED00002D8F0BCBDE8008124425CBF01F5801E41
:101EE0009EEAC47F02D4F0BCBDE80081244238D40D
:101EF000F0BCA1F1C041BDE8004100F003B94FEAD8
:101F0000D22242EA43524FEAD323A7FB02864FEA8A
:101F1000D02040EA415007FB03661EEA0E0F4FEA4D
:101F2000D12105FB026658BFA6EB0056B6EB005662
:101F30004FEA520E4EEAC37E18EB0E0E56EB530ECE
:101F4000BDD518EB02085E417F1C55F10005B6E7D0
:101F50004FF480154FF000074FF000064FF00008D7
:101F6000ADE7F0BC4FF0000001F1C04101F00041CD
:101F7000BDE8008111EA0C1F0CEA131500D00CE03B
:101F800013EA0C1F00F025804FF00000F0BC81EA3E
:101F9000030101F00041BDE80081F0BCBDE8004153
:101FA00081EA030100F0AEB8F0BCBDE8004170B5B5
:101FB00000F05AF8097EFC3E00F007B881EA030100
:101FC0004FF0000001F00041704781EA030100F08A
:101FD00099B8F0BCBDE800414FF0000021497047BE
:101FE000FFFDFBF9F7F5F4F2F0EEEDEBE9E8E6E4DE
:101FF000E3E1E0DEDDDBDAD8D7D5D4D3D1D0CFCD65
:10200000CCCBCAC8C7C6C5C4C2C1C0BFBEBDBCBB9D
:10201000BAB9B8B7B6B5B4B3B2B1B0AFAEADACAB98
:10202000AAA9A8A8A7A6A5A4A3A3A2A1A09F9F9E72
:102030009D9C9C9B9A999998979796959594939324
:10204000929191908F8F8E8E8D8C8C8B8B8A8989BB
:10205000888887878685858484838382828181803E
:102060000000FF070000F87F0EF1020E2EF0030EB5
:102070005EF8046B364205D4012A43EB030515F5DF
:10208000001F12D8012841EB010C1CF5001F0CD8D1
:102090000ED14FEAD17C15F5001F0CEB4C0C0CF166
:1020A000020C08BF4CEBD37C04E04FF0080C01E0BD
:1020B0004FEAD37C0CEB4C0526FA05F606F0070632
:1020C000B6F1040C06D20EEB860CBDE870404CF065
:1020D000010C6047DFE80CF0090B02024FF00041F1
:1020E0004FF00000A1F5002170BD194610460128EF
:1020F00051EB010418BFD4F5001484BF002001F097
:10210000004170BD0808A0F500114FEA3101704789
:1021100010B591EA030F48BF83F000433FF5ACAD23
:10212000841A71EB030C07D212198CF0004C43EBAC
:102130000C03001B61EB0C01DFF8A4E14FEA115422
:10214000A4EB135C1EEA430F18BF9EEA445F00F045
:10215000B08023EA6E03524221EA0451C3EB6E03BE
:1021600038BF5B1EDCF1200E25D322FA0CFE10EBEB
:102170000E0043FA0CFE41EB0E01CCF1200E03FAE7
:102180000EFE10EB0E0051F10001CCF1200E29D40F
:1021900012FA0EF201EB0451BDE8104058BF70472F
:1021A000401C1CBFB2F1004F704700280CBF491CF7
:1021B00020F00100704712EB020E43EB030218BF40
:1021C0004FF0010E4EEA4202ACF1200CDCF11E0E83
:1021D00054D943FA0CFE10EB0E0051F1FF31CCF153
:1021E0001E0ED5D50EF1010E12FA0EFE404141EB46
:1021F000010101EB445C5FEA5C5C10D910EBDE701E
:1022000001EB045138BFBEF1004FBDE8104018BFCC
:10221000704700280CBF491C20F00100704730D2E5
:102220004FEAD42C11F5001124F400641BD0B1FA4C
:1022300081F20B3AA41AA41ED2F12003914030FA85
:1022400003F31943904001EBCC71002C01EB0451D6
:10225000BDE81040A8BF704701F1C0414FF0000039
:1022600001F000417047B0FA80F310FA03F100D199
:1022700010BDE41A173C4805C90AE4E701EB045114
:1022800010BD491001EB0451BDE810404FEA300089
:1022900002E04FF0000170474A0008BF0042F8D04A
:1022A000B2F5001F28BF704701F000414FF0000059
:1022B00070479EEA445F07D011EA5E0FBDE8104008
:1022C00004BF002100207047BDE8104070B5FFF743
:1022D000CBFE00BF40DFF63E83F000411046704762
:1022E0000000E0FF43004FEAD30C4FEA3C0C4340B0
:1022F0001FBF40070CF1605113F0FE4F70471CF0F8
:10230000006F03D100200CF0004170470CF0004337
:1023100043EA507010B540EACC0000F00EF800BF60
:10232000000000924FEA0001FFF7ECBE4FF00041C1
:102330004FF00000A1F5002170470EF1020E2EF0C3
:10234000030E5EF8044B244204D44FEA4102B2F17A
:102350007F4F11D84FEA4003B3F17F4F0CD80ED115
:102360004FEAD07CB2F17F4F0CEB4C0C0CF1020C1D
:1023700008BF4CEBD17C04E04FF0080C01E04FEAC1
:10238000D17C0CEB4C0324FA03F404F00704B4F101
:10239000040C06D20EEB840CBDE810404CF0010C8E
:1023A0006047DFE80CF0070802024FF00040A0F59C
:1023B000800010BD0846420018BFD2F1807288BF6D
:1023C00000F0004010BD4FF04070E1EE100A704781
:1023D000FF2141EAD050C005704700000000000016
:1023E00000000102030406070809000000000102C2
:1023F0000304000014240008000000201000000066
:10240000C401000824240008100000201807000060
:10241000E00100080024F4000000000010000000AB
:0424200001000000B7
:040000050800018965
:00000001FF
