:020000040800F2
:100000002841002029020008B11A000845180008FC
:10001000AD1A00081F0400084F200008000000006F
:100020000000000000000000000000003B0200088B
:1000300023040008000000003F020008B31A000873
:10004000430200084302000843020008430200087C
:10005000430200084302000843020008430200086C
:10006000430200084302000843020008430200085C
:10007000430200084302000843020008430200084C
:10008000430200084302000843020008430200083C
:10009000430200084302000843020008430200082C
:1000A000430200084302000843020008430200081C
:1000B000430200084302000843020008430200080C
:1000C00043020008430200084302000843020008FC
:1000D00043020008430200084302000843020008EC
:1000E00043020008430200084302000843020008DC
:1000F0004302000843020008D51B00084302000821
:1001000043020008430200084302000843020008BB
:1001100043020008430200084302000843020008AB
:10012000430200084302000843020008430200089B
:10013000430200084302000843020008430200088B
:10014000430200084302000843020008430200087B
:10015000430200084302000843020008430200086B
:10016000430200084302000843020008430200085B
:100170004302000843020008430200080000000098
:10018000430200084302000800F002F800F03CF8C7
:100190000AA090E8000C82448344AAF10107DA45E2
:1001A00001D100F031F8AFF2090EBAE80F0013F0F8
:1001B000010F18BFFB1A43F001031847A42B0000DE
:1001C000C42B0000103A24BF78C878C1FAD852076F
:1001D00024BF30C830C144BF04680C6070470000C1
:1001E0000023002400250026103A28BF78C1FBD840
:1001F000520728BF30C148BF0B6070471FB502F0DF
:100200009DFD1FBD10B510BD00F0CFF81146FFF7E2
:10021000F5FF01F03BFF00F0EDF803B4FFF7F2FF4C
:1002200003BC00F0F5F80000094880470948004782
:10023000FEE7FEE7FEE7FEE7FEE7FEE7FEE7FEE796
:10024000FEE7FEE704480549054A064B70470000F3
:10025000711B0008890100082801002028410020A6
:10026000282100202821002053EA020C00F0698098
:100270002DE9F04B4FF00006002B1FBFB3FA83F5BA
:1002800003FA05F424FA05F65E4012BF1643B2FAEB
:1002900082F502FA05F4C5F120051EBF22FA05FC1D
:1002A00044EA0C04203556EA044C4FEA144418BFC3
:1002B000641C4FF000084FF00009904271EB030CF2
:1002C00039D3002919BFB1FA81F701FA07F6B0FA5C
:1002D00080F700FA07F6C7F120071EBF20FA07FCD7
:1002E00046EA0C062037B6FBF4FCA7EB0507103FE7
:1002F00007F01F0BCBF120060CFA0BFB2CFA06F6CD
:1003000044BFB3460026202FA4BF5E464FF0000B2B
:100310005BEA060C08BF4FF0010B19EB0B09ABFBB6
:10032000027C48EB0608C01B06FB02CC0BFB03CC8F
:1003300071EB0C01C1E70B46024641464846BDE859
:10034000F08B13B54FF000004FF00001AFF30080C9
:10035000BDE81C4070474FF0000200B513469446BC
:100360009646203922BFA0E80C50A0E80C50B1F10D
:100370002001BFF4F7AF090728BFA0E80C5048BF21
:100380000CC05DF804EB890028BF40F8042B08BFBF
:10039000704748BF20F8022B11F0804F18BF00F8BB
:1003A000012B7047704770477047754600F02CF876
:1003B000AE4605006946534620F00700854618B052
:1003C00020B5FFF73FFFBDE820404FF000064FF09B
:1003D00000074FF000084FF0000B21F00701AC467A
:1003E000ACE8C009ACE8C009ACE8C009ACE8C00999
:1003F0008D46704710B50446AFF300802046BDE837
:100400001040FFF70ABF000000487047C8000020F6
:1004100001491820ABBEFEE726000200704700BF6E
:10042000FEE770477047000070B5044600F010F911
:1004300006462546681C10B104480078054400BFF4
:1004400000F006F9801BA842FAD370BD44000020DA
:10045000F8B502460B460025002400200021DCE010
:10046000012606FA01F51E6806EA0504AC4273D1BE
:100470005E68022E02D05E68122E13D1CF0802F100
:10048000200656F827004E07F70E0F26BE40B04351
:100490004F07FF0E1E69BE403043CF0802F1200611
:1004A00046F8270010684F000326BE40B0431E796F
:1004B00006F003064F00BE40304310605E68012E18
:1004C00008D05E68022E05D05E68112E02D05E68EC
:1004D000122E13D190684F000326BE40B0434F0048
:1004E000DE68BE4030439060506801268E40B043C5
:1004F0001E79C6F300168E4030435060D0684F001E
:100500000326BE40B0434F009E68BE403043D060DB
:100510005E6806F08056B6F1805F7DD100BF002690
:100520000096404E366846F480463E4F3E603E465A
:10053000366806F48046009600BF00BF3A4E8F082A
:1005400056F827008E07370F0F26BE40B043374EB0
:10055000B24202D1002624E05EE0354EB24201D123
:1005600001261EE0334EB24201D1022619E0324E7E
:10057000B24201D1032614E0304EB24201D104262A
:100580000FE02F4EB24201D105260AE02D4EB242B5
:1005900001D1062605E02C4EB24201D1072600E02B
:1005A00008268F073F0FBE4030431F4E8F0846F886
:1005B0002700264E3068A0435E6806F48036B6F504
:1005C000803F00D12043214E3060361D3068A0436B
:1005D0005E6806F40036B6F5003F00D120431B4E9E
:1005E000361D3060361D3068A0435E6806F4801604
:1005F000B6F5801F00D12043144E08363060361DFA
:100600003068A0435E6806F40016B6F5001F00D1FE
:1006100020430E4E0C363060491C1029FFF420AFE9
:10062000F8BD000044380240083801400000024094
:100630000004024000080240000C0240001002408A
:100640000014024000180240001C0240003C01401F
:1006500001480068704700003C0000200348006823
:100660000349097808440149086070473C000020AC
:100670004400002010B50D48006840F400700B499C
:1006800008600846006840F480600860084600681A
:1006900040F480700860032000F0A2F8002000F011
:1006A00007F800F02BF8002010BD0000003C0240CD
:1006B00070B504460E4800784FF47A71B1FBF0F043
:1006C0000C490968B1FBF0F5284600F0D9FB08B1E8
:1006D000012070BD102C07D200222146501E00F0D0
:1006E00041F80548046001E00120F2E70020F0E74E
:1006F00044000020380000204000002008B500BF62
:10070000002000900E48006840F480400C490860CA
:100710000846006800F48040009000BF00BF00BFA2
:1007200000200090081F006840F08050091F0860FA
:100730000846006800F08050009000BF00BF08BD70
:100740004438024001460846002809DB00F01F0338
:1007500001229A4043099B0003F1E023C3F80021E2
:1007600000BF70472DE9F05F80460D461646002712
:1007700001F070FC074639462A46334601F007006F
:10078000C0F1070ABAF1040F02D94FF0040A01E0E0
:10079000C0F1070AD14600F1040ABAF1070F02D2EC
:1007A0004FF0000A01E0A0F1030AD4464FF0010A1D
:1007B0000AFA09FAAAF1010A0AEA020A0AFA0CFA82
:1007C0004FF0010B0BFA0CFBABF1010B0BEA030B27
:1007D0004AEA0B042146404601F044FCBDE8F09F84
:1007E00000BF00F00702064B19684FF6FF031940DF
:1007F000044B0B4343EA0221014B196000BF7047D1
:100800000CED00E00000FA0570B504460D460CB989
:10081000012070BD5848006800F00F00A84209D2BE
:1008200055490D700846006800F00F00A84201D03D
:100830000120EEE7207800F0020002281DD1207888
:1008400000F00400042805D14C48006840F4E05052
:100850004A490860207800F00800082805D1474878
:10086000006840F46040454908604448006820F052
:10087000F000A168084341490860207800F00100B9
:10088000A8B36068012807D13C4808380068C0F365
:100890004040B8B90120BCE76068022802D0606817
:1008A000032807D1354808380068C0F3406048B9CC
:1008B0000120AEE7314808380068C0F3400008B9AD
:1008C0000120A6E72D48006820F003006168084376
:1008D0002A490860FFF7BCFE064609E0FFF7B8FEAC
:1008E000801B41F28831884202D9032091E707E05A
:1008F0002248006800F00C006168B0EB810FEDD178
:100900001D48006800F00F00A84209D91A490D706F
:100910000846006800F00F00A84201D0012078E7E7
:10092000207800F00400042807D11448006820F45F
:10093000E050E168084311490860207800F00800A1
:10094000082808D10D48006820F46040216940EA79
:10095000C1000A49086000F017F808490968C1F3A6
:100960000311074A515CC840064908600020FFF7A0
:100970009FFE00204DE70000003C02400838024086
:10098000462D0008380000202DE9F04700240025FE
:100990000026A1462548006800F00C0020B104287C
:1009A00005D008283AD105E0DFF8849039E0DFF877
:1009B000849036E01D48001F006800F03F041B488B
:1009C000001F006800F4800078B11A481749091F19
:1009D0000968C1F38811A0FB01700146224600237B
:1009E0003846FFF741FC05460EE011480F49091F44
:1009F0000968C1F38811A0FB01700146224600235B
:100A00003846FFF731FC05460848001F0068C0F370
:100A10000140401C4600B5FBF6F902E0DFF81090FB
:100A200000BF00BF4846BDE8F0870000083802401C
:100A30000024F400001BB700F8B504460CB90120EF
:100A4000F8BD207800F00100002874D0F948006853
:100A500000F00C0004280DD0F648006800F00C00EF
:100A6000082813D1F348001F006800F48000B0F597
:100A7000800F0BD1EF4808380068C0F340400028D1
:100A800059D06068002856D10120D9E700BF6068BE
:100A9000B0F5803F08D1E7480838006840F480305E
:100AA000E449083908601EE06068B0F5A02F0DD158
:100AB000E0480838006840F48020DE4908390860C2
:100AC0000846006840F4803008600CE0D9480838D7
:100AD000006820F48030D74908390860084600686B
:100AE00020F48020086000BF606890B1FFF7B0FD7F
:100AF000054606E0FFF7ACFD401B642801D9032042
:100B00009EE7CC4808380068C0F340400028F1D088
:100B100011E0FFF79DFD054606E0FFF799FD401B3C
:100B2000642801D903208BE7C24808380068C0F365
:100B300040400028F1D1207800F0020002285FD167
:100B4000BC48006800F00C0058B1BA48006800F0DA
:100B50000C0008281CD1B748001F006800F4800072
:100B6000B0B9B44808380068C0F3400020B1E0686C
:100B7000012801D0012063E7AE480838006820F062
:100B8000F800216940EAC100AA490839086037E045
:100B9000E06800B30120A8490860FFF759FD054649
:100BA00006E0FFF755FD401B022801D9032047E767
:100BB000A04808380068C0F340000028F1D09D48E4
:100BC0000838006820F0F800216940EAC10099491E
:100BD0000839086014E0002097490860FFF738FDE5
:100BE000054606E0FFF734FD401B022801D903202B
:100BF00026E7904808380068C0F340000028F1D18B
:100C0000207800F0080008282CD16069A8B10120E4
:100C10008A490860FFF71CFD054606E0FFF718FD4E
:100C2000401B022801D903200AE782486C30006883
:100C3000C0F340000028F1D014E000207F49086094
:100C4000FFF706FD054606E0FFF702FD401B022800
:100C500001D90320F4E677486C300068C0F3400007
:100C60000028F1D1207800F00400042870D100267B
:100C700070483830006800F0805090B900BF002004
:100C800000906C483830006840F080506949383135
:100C900008600846006800F08050009000BF00BF68
:100CA00001266748006800F48070B0B964480068A5
:100CB00040F4807062490860FFF7CAFC054606E010
:100CC000FFF7C6FC401B022801D90320B8E65C48A8
:100CD000006800F480700028F2D000BFA0680128EE
:100CE00008D154486830006840F00100514968312B
:100CF00008601DE0A06805280DD14E4868300068E6
:100D000040F004004B49683108600846006840F034
:100D1000010008600CE047486830006820F00100DE
:100D20004449683108600846006820F00400086003
:100D300000BFA068A8B1FFF78BFC054609E0FFF7EC
:100D400087FC401B41F28831884202D9032077E6B4
:100D500026E0384868300068C0F340000028EED034
:100D600013E0FFF775FC054608E0FFF771FC401B38
:100D700041F28831884201D9032061E62D4868306C
:100D80000068C0F340000028EFD1012E07D12948A8
:100D90003830006820F0805026493831086000BFA4
:100DA000A069B8B32348006800F00C0008285ED0A2
:100DB000A069022846D100201F490866FFF748FCB9
:100DC000054606E0FFF744FC401B022801D903203A
:100DD00036E6184808380068C0F340600028F1D1B2
:100DE000D4E907010843616A40EA81110122A06A3F
:100DF000C2EB500041EA00412C20005D41EA006056
:100E00000C49091F086001200B490866FFF720FC08
:100E1000054607E02DE0FFF71BFC401B022801D927
:100E200003200DE6034808380068C0F3406000283E
:100E3000F1D01EE00838024000004742800E4742D1
:100E40000070004000200C490866FFF701FC0546D1
:100E500006E0FFF7FDFB401B022801D90320EFE568
:100E600006480068C0F340600028F2D101E001208C
:100E7000E6E50020E4E500000000474200380240BB
:100E800070B504462546681EB0F1807F01D301206D
:100E90000FE0681E4FF0E02148610F214FF0FF3056
:100EA00001F0E0F800204FF0E021886107200861A0
:100EB000002070BD7047704710B50346002200BF88
:100EC00093F83C00012801D1022010BD012083F8D5
:100ED0003C0000BF22F0FF00CC6840EA040222F48C
:100EE00040708C6840EA040222F480604C6840EA5A
:100EF000040222F400600C6840EA040222F48050EC
:100F00000C6940EA040222F400504C6940EA0402F1
:100F100022F48040CC6940EA04021868426400BFB1
:100F2000002083F83C0000BF00BFCEE710B50246AA
:100F300000BF92F83C00012801D1022010BD012021
:100F400082F83C0000BF022082F83D001068436830
:100F50001068846823F070030868034324F0800459
:100F6000486804431068436010688460012082F878
:100F70003D0000BF002082F83C0000BF00BFDDE75D
:100F800010B504460CB9012010BD94F83D0028B9F5
:100F9000002084F83C00204600F00CF8022084F881
:100FA0003D00211D206800F01DFE012084F83D0059
:100FB0000020E9E710B586B00446142101A8FFF728
:100FC000CAF92F49206888420FD100BF0020009045
:100FD0002C48006840F001002A4908600846006873
:100FE00000F00100009000BF48E0274920688842D7
:100FF00044D100BF002000902248006840F0020069
:10100000204908600846006800F00200009000BF18
:1010100000BF00BF002000901A481438006840F458
:1010200080701849143908600846006800F4807020
:10103000009000BF00BF00BF00200090084600687D
:1010400040F0040008600846006800F004000090CA
:1010500000BF00BF40200190022002900390049046
:101060000320059001A90948FFF7F2F900220221A7
:101070002E20FFF777FB2E20FFF764FB06B010BD94
:1010800000000140443802400004014000080240D2
:101090000146022081F83D000868806800F00702E0
:1010A000062A05D00868006840F001000B68186047
:1010B000012081F83D00002070472DE9F0410446F1
:1010C0000D4600BF94F83C00012802D10220BDE883
:1010D000F081012084F83C0000BF022084F83D002C
:1010E0002068866826F0770626F47F4620688660AA
:1010F0002868502833D00CDC202850D004DC00288D
:101100004BD0102851D149E0302849D040284CD14B
:1011100039E060282DD0702807D0B0F5805F03D06B
:10112000B0F5005F41D10DE040E0D5E902136A68F7
:10113000206800F0D4FD2068866846F077062068B5
:10114000866033E0D5E902136A68206800F0C7FDC5
:101150002068806840F480402168886026E0EA6862
:101160006968206800F0ACFE5021206800F0C2FDE4
:101170001CE0EA686968206800F0FEFE60212068D3
:1011800000F0B8FD12E0EA686968206800F098FE97
:101190004021206800F0AEFD08E000BF00BF00BFA6
:1011A0002968206800F0A6FD00E000BF00BF012014
:1011B00084F83D0000BF002084F83C0000BF00BF61
:1011C00085E7000010B504463248007800F0800042
:1011D00000285DD12F48007800F04000D8B12D489C
:1011E000007840F080002B49087000212A4800F068
:1011F0000FFB2A49086028480068006A4FF6F5711D
:10120000084025490968086223480068006A2249A5
:10121000096808623CE000201E4908701F49086008
:101220001C48007840F040001A49087000BF1A4876
:101230000068006A41F21111084068B91648006858
:10124000006A8910084038B913480068006820F027
:10125000010011490968086000BF00200E490968B3
:1012600048620D480068006A4FF6F57108400A4967
:101270000968086208480068006A07490968086246
:1012800005480068006840F00100034909680860EB
:1012900010BD000030000020880000203400002035
:1012A0002DE9F04104460D46164600BF94F83C0077
:1012B000012802D10220BDE8F081012084F83C0021
:1012C00000BF022084F83D0096B9EB68D5E9001212
:1012D000206800F009FE2068806920F00C00216879
:1012E000886120688069A9680843216888613DE0B9
:1012F000042E13D1EB68D5E90012206800F050FEEF
:101300002068806920F440602168886120688069D5
:10131000A96840EA01202168886127E0082E12D1DF
:10132000EB68D5E90012206800F057FE2068C0691C
:1013300020F00C002168C8612068C069A9680843D2
:101340002168C86112E0EB68D5E90012206800F05E
:1013500060FE2068C06920F440602168C861206890
:10136000C069A96840EA01202168C861012084F8A9
:101370003D0000BF002084F83C0000BF00BF9AE79A
:1013800010B504460CB9012010BD94F83D0028B9F1
:10139000002084F83C00204600F00CF8022084F87D
:1013A0003D00211D206800F01DFC012084F83D0057
:1013B0000020E9E7704770B504460D4635B1042DAD
:1013C0000BD0082D10D00C2D1CD114E02068C06863
:1013D00040F002002168C86015E02068C06840F055
:1013E00004002168C8600EE02068C06840F0080072
:1013F0002168C86007E02068C06840F010002168DC
:10140000C86000E000BF00BF01222946206800F04C
:1014100055FC2068806800F00706062E05D020687D
:10142000006840F0010021680860002070BD10B520
:10143000044620680069C0F34000D8B12068C06845
:10144000C0F34000B0B16FF00200216808610120D4
:1014500020772068806900F0030018B12046FFF76C
:10146000B1FE05E0204600F0DFF8204600F07CF9F0
:101470000020207720680069C0F38000D8B1206880
:10148000C068C0F38000B0B16FF00400216808614B
:10149000022020772068806900F4407018B120464F
:1014A000FFF790FE05E0204600F0BEF8204600F071
:1014B0005BF90020207720680069C0F3C000D8B134
:1014C0002068C068C0F3C000B0B16FF008002168A8
:1014D0000861042020772068C06900F0030018B17B
:1014E0002046FFF76FFE05E0204600F09DF82046FD
:1014F00000F03AF90020207720680069C0F300105E
:10150000D8B12068C068C0F30010B0B16FF010000F
:1015100021680861082020772068C06900F44070C5
:1015200018B12046FFF74EFE05E0204600F07CF89B
:10153000204600F019F9002020772068006900F0AB
:10154000010058B12068C06800F0010030B16FF0B0
:10155000010021680861204600F034F92068006924
:10156000C0F3C01058B12068C068C0F3C01030B1DB
:101570006FF08000216808612046FFF79BFC20681F
:101580000069C0F3801058B12068C068C0F38010B3
:1015900030B16FF0400021680861204600F051F939
:1015A00020680069C0F3401058B12068C068C0F3DB
:1015B000401030B16FF02000216808612046FFF72D
:1015C0007AFC10BD10B586B00446142101A8FEF7C0
:1015D000C2FE1249206888421ED100BF0020009040
:1015E0000F48006840F010000D4908600846006888
:1015F00000F01000009000BF00BF4FF4D4400190F5
:101600000220029001200390022004900120059006
:1016100001A90448FEF71CFF06B010BD0000014000
:101620003038024000100240704770B504460D4645
:10163000164600BF94F83C00012801D1022070BD7D
:10164000012084F83C0000BF022084F83D0036B140
:10165000042E1BD0082E31D00C2E5ED145E0294639
:10166000206800F051FB2068806940F00800216884
:1016700088612068806920F0040021688861206802
:101680008069296908432168886147E02946206804
:1016900000F072FB2068806940F400602168886176
:1016A0002068806920F480602168886120688069F2
:1016B000296940EA0120216888612FE029462068D5
:1016C00000F098FB2068C06940F008002168C861FC
:1016D0002068C06920F004002168C8612068C069E2
:1016E000296908432168C86118E02946206800F08C
:1016F000BDFB2068C06940F400602168C8612068B3
:10170000C06920F480602168C8612068C0692969C7
:1017100040EA01202168C86100E000BF00BF01204D
:1017200084F83D0000BF002084F83C0000BF00BFEB
:1017300085E710B504460CB9012010BD94F83D00B2
:1017400028B9002084F83C00204600F00CF8022064
:1017500084F83D00211D206800F044FA012084F83F
:101760003D000020E9E770477047000070B504466F
:101770000E4601223146206800F0A0FA0F49206889
:10178000884203D00E492068884201D1012000E040
:10179000002028B12068406C40F400402168486473
:1017A0002068806800F00705062D05D020680068D5
:1017B00040F0010021680860002070BD0000014079
:1017C000000401401049097801F08001D1B90E49A7
:1017D000097801F04001A9B10B49097801F03F01F6
:1017E0003F290AD10849097841F08001064A117061
:1017F0004FF0FF31054A116004E003490978491CA4
:10180000014A1170704700003000002034000020B1
:101810000246002031B1042907D0082908D00C293C
:101820000CD108E01368586B09E01368986B06E068
:101830001368D86B03E01368186C00E000BF00BFAA
:101840007047704700BFFEE708B500BF002000905A
:101850002448006840F001002249086008460068FA
:1018600000F00100009000BF00BF00BF002000900A
:101870000846006840F4807008600846006800F47C
:101880008070009000BF00BF00BF0020009008469D
:10189000006840F0800008600846006800F08000A2
:1018A000009000BF00BF00BF002000900846006805
:1018B00040F0040008600846006800F00400009052
:1018C00000BF00BF00BF002000900846006840F045
:1018D000100008600846006800F01000009000BF8B
:1018E00000BF08BD3038024000B595B0002011900F
:1018F0001290139014900F9010901C2108A8FEF7DE
:101900002AFD20216846FEF726FD38483849086040
:10191000A720486000213648816044F61F61C160FD
:101920000021016141618161FFF72AFB08B1FEF7E7
:1019300079FD4FF48050119011A92D48FFF7BDFBA0
:1019400008B1FEF76FFD2A48FFF7F3FE08B1FEF776
:1019500069FD00200F9010900FA92548FFF7E6FAC7
:1019600008B1FEF75FFD602008904FF4FA6009901F
:1019700000200A900B900C900D900E90002208A968
:101980001B48FFF752FE08B1FEF74CFD042208A9E0
:101990001748FFF74AFE08B1FEF744FD082208A9E0
:1019A0001348FFF742FE08B1FEF73CFD0C2208A9E0
:1019B0000F48FFF73AFE08B1FEF734FD0020009013
:1019C00001900290039004904FF400500590002085
:1019D000079069460648FFF76FFA08B1FEF722FD47
:1019E0000348FFF7EFFD15B000BD00000000014007
:1019F0004800002000B58BB00020079008900990A7
:101A00000A9005900690019002900390049025485A
:101A100025490860A720486000212348816044F6DA
:101A20001F61C1600021016141618161FFF7A8FA76
:101A300008B1FEF7F7FC4FF48050079007A91A4849
:101A4000FFF73BFB08B1FEF7EDFC1748FFF798FCEA
:101A500008B1FEF7E7FC00200590069005A91248A2
:101A6000FFF764FA08B1FEF7DDFC002001900120C9
:101A7000029000200390049000210B48FFF79BFC8C
:101A800009480068C06840F0010007490968C8605B
:101A9000002201A90448FFF703FC08B1FEF7C2FCCD
:101AA0000BB000BD000401408800002000BFFEE72D
:101AB000704710B5FEF7D2FD10BD000000B593B021
:101AC000302107A8FEF747FC142102A8FEF743FCCB
:101AD00000BF002001902448006840F08050224957
:101AE00008600846006800F08050019000BF00BF09
:101AF00000BF002001901D48006840F480401B4951
:101B000008600846006800F48040019000BF00BFF4
:101B1000012007900004089002200D9041050E91CD
:101B200006210F91A82110910221119107211291F4
:101B300007A8FEF781FF08B1FEF774FC0F200290A2
:101B400002200390002004904FF4A05005904FF421
:101B500080500690052102A8FEF756FE08B1FEF758
:101B600061FC13B000BD000040380240007000402E
:101B70001448006840F47000124908601248006878
:101B800040F001001049086000200F49083108604A
:101B90000D4800680D4908400B4908600C48091DB4
:101BA0000860081F006820F48020091F08600020DA
:101BB00005490C3108604FF0006002498039086027
:101BC0007047000088ED00E000380240FFFFF6FE9D
:101BD0001030002410B50248FFF729FC10BD0000AA
:101BE0008800002010B50268294B98420ED0B0F151
:101BF000804F0BD0274B984208D0274B984205D0F6
:101C0000264B984202D0264B984203D122F0700214
:101C10004B681A431E4B984220D0B0F1804F1DD024
:101C20001C4B98421AD01C4B984217D01B4B984221
:101C300014D01B4B984211D01A4B98420ED01A4B1D
:101C400098420BD0194B984208D0194B984205D0B6
:101C5000184B984202D0184B984203D122F440729C
:101C6000CB681A4322F080034C6943EA0402026005
:101C70008B68C3620B688362054B984202D0084BA5
:101C8000984201D10B6903630123436110BD000039
:101C9000000001400004004000080040000C00402B
:101CA0000004014000400140004401400048014060
:101CB00000180040001C00400020004030B501F03A
:101CC0001F05012404FA05F3046A9C430462046AB4
:101CD00001F01F0502FA05F52C43046230BD30B552
:101CE0000C46816821F47F4142EA032525432943BC
:101CF000816030BD0A46816821F0700142F007031F
:101D0000194381607047000030B5056A25F0010570
:101D10000562026A4368846924F0700424F00304B5
:101D20000D682C4322F002028D682A43104DA84210
:101D300000D103E00F4DA84206D100BF22F00802F7
:101D4000CD682A4322F00402094DA84202D0094D71
:101D5000A84207D123F4807323F400734D692B4309
:101D60008D692B43436084614D684563026230BDD9
:101D7000000001400004014030B5056A25F010055F
:101D80000562026A4368846924F4E04424F44074E0
:101D90000D6844EA052422F020028D6842EA05120B
:101DA000124DA84200D103E0114DA84207D100BF57
:101DB00022F08002CD6842EA051222F040020B4D6B
:101DC000A84202D00A4DA84209D123F4806323F42B
:101DD00000634D6943EA85038D6943EA85034360E7
:101DE00084614D688563026230BD000000000140DF
:101DF0000004014030B5056A25F480750562026A69
:101E00004368C46924F0700424F003040D682C4373
:101E100022F400728D6842EA0522124DA84200D1D8
:101E200003E0114DA84207D100BF22F40062CD6843
:101E300042EA052222F480620A4DA84202D00A4DED
:101E4000A84209D123F4805323F400534D6943EA97
:101E500005138D6943EA05134360C4614D68C5638A
:101E6000026230BD000001400004014030B5056A47
:101E700025F480550562036A4468C26922F4E04291
:101E800022F440720D6842EA052223F400538D6863
:101E900043EA0533084DA84202D0084DA84204D1B8
:101EA00024F480444D6944EA85144460C2614D685D
:101EB0000564036230BD00000000014000040140E1
:101EC00030B50B461446026A056A25F00105056225
:101ED000816921F0F00141EA041122F00A021A435B
:101EE0008161026230BD000070B50C461546066A7D
:101EF00026F0010606628169026A184EB04214D0CB
:101F0000B0F1804F11D0164EB0420ED0154EB042F7
:101F10000BD0154EB04208D0144EB04205D0144E2E
:101F2000B04202D0134EB04201D1012600E000269B
:101F30001EB121F00301294301E041F0010121F02C
:101F4000F001F02606EA0316314322F00A0204F0FB
:101F50000A0632438161026270BD00000000014048
:101F60000004004000080040000C00400004014054
:101F7000004001400018004030B50B461446056A89
:101F800025F0100505628169026A21F4704141EA79
:101F9000043122F0A00242EA03128161026230BDE4
:101FA00070B50C461546066A26F010060662816971
:101FB000026A21F4407141EA052121F470414FF495
:101FC000704606EA0336314322F0A002A02606EA54
:101FD000041632438161026270BD70B50C4615462D
:101FE000066A26F480760662C169026A21F003015E
:101FF000294321F0F001F02606EA0316314322F4CA
:1020000020624FF4206606EA04263243C161026270
:1020100070BD70B50C461546066A26F480560662F9
:10202000C169026A21F4407141EA052121F470413D
:102030004FF4704606EA0336314322F420424FF44F
:10204000204606EA04363243C161026270BD00BF19
:10205000FEE7000002480068C0F30220704700005D
:102060000CED00E010B5002804DB0A07130E054A4A
:10207000135406E00A07140E034A00F00F031B1F57
:10208000D45410BD00E400E018ED00E02DED108BFD
:1020900084B000BF00BF9FED9A0BB0EE40AAF0EEF7
:1020A00060AA9FED990BB0EE40BAF0EE60BA9FEDDA
:1020B000980B8DED020B9FED960B8DED000BFEF74F
:1020C000D9FAFFF7FBFCFFF7BFFBFFF793FCFFF725
:1020D0000BFC9148FEF7DCFF00218F48FFF746FB21
:1020E0000C218D48FFF742FB8C48FEF7D1FF40F2F0
:1020F000DC5089490968486387490968086441F2E6
:102100008830FEF791F94FF4C86083490968486345
:10211000F5E08348007800F080000028F8D080487F
:10212000007800F03F00C51704464FF0FF3300264B
:102130002046A0FB031705FB037204FB06250C4693
:1021400078480068241845F100052046294600F02B
:1021500049FB9FED750B53EC102B00F0D1FB41ECCC
:102160001C0B53EC1C2B9FED720B51EC100B00F071
:10217000B3F941EC190B704890ED000B6F4880EDFE
:10218000000B53EC192B6E4890ED000B51EC100B2B
:1021900000F0EAFC684A03C2674890ED000B53EC7C
:1021A000102B684890ED000B51EC100B00F0E0F89C
:1021B000644A03C22046294600F014FB9FED5A0BE7
:1021C00053EC102B00F09CFB5F4A03C25B4890ED80
:1021D000000B53EC102B584890ED000B51EC100BFA
:1021E00000F0C2FC41EC1C0B574890ED000B53EC87
:1021F000102B51EC1C0B00F06FF9544A03C25348EA
:1022000090ED000B53EC102B9DED000B51EC100BDF
:1022100000F076FB41EC1C0B4A4890ED000B53ECB0
:10222000102B9DED020B51EC100B00F069FB41EC03
:102230001E0B414890ED000B53EC102B51EC1B0B87
:1022400000F05EFB53EC1E2B00F092F853EC1C2BBD
:1022500000F08EF841EC180B9FED3D0B53EC102B6A
:1022600051EC180B00F04AFC05D29FED390BB0EE93
:10227000408AF0EE608A9FED380B53EC102B51EC46
:10228000180B00F001FB05D29FED330BB0EE408A36
:10229000F0EE608A9FED320B53EC102B51EC180BD3
:1022A00000F02EFB41EC1C0B9FED150B53EC102B9B
:1022B00000F05EF841EC180B9FED110B53EC102B66
:1022C00051EC180B00F0E0FA05D29FED0D0BB0EECB
:1022D000408AF0EE608A9FED240B53EC102B51ECFA
:1022E000180B00F00BFC00D200BF51EC1A0B00F0F1
:1022F0004BFA09490968486300200949087008E752
:1023000000000000007097400000000000003E4008
:102310009A9999999999B93F48000020880000201E
:1023200030000020340000208DEDB5A0F7C6B03E8F
:102330000000000000004E400000002008000020C7
:10234000280000201000002018000020200000209D
:10235000000000000000F03F000000000000F0BF9F
:102360000000000000407F400000000000409F404F
:1023700010B591EA030F48BF83F0004300F1FC83DE
:10238000841A71EB030C05D2121943EB0C03001BEA
:1023900061EB0C01DFF824E14FEA1154A4EB135C6C
:1023A0001EEA430F18BF9EEA445F73D023EA0E0370
:1023B000DCF1200E21EA045143F4801332D322FAD7
:1023C0000CFE10EB0E0023FA0CFE41EB0E01CCF1DB
:1023D000200E03FA0EFE10EB0E0051F10001B1F5D4
:1023E000801FCCF1200E32D201EB045112FA0EF212
:1023F000BDE8104058BF7047401C38BF5FEA42023A
:1024000018BF7047002814BF20F0010041F10001FF
:102410004FEA410313F5001F38BF7047A1F1C041D7
:1024200000F066BB012A43EB0302ACF1200CDCF1A7
:102430001F0E32BF4FF0000E23FA0CF310EB030017
:1024400041EB0451B4EB115FD0D0A1EB045101F585
:10245000801149085FEA300001EB04510ED350F1BE
:10246000000038BF12FA0EFE08D1BDE81040C9E7DF
:10247000401C38BF5FEA4202CAD1C3E7BDE8104042
:102480004FEA410313F5001F38BF7047A1F1C04167
:1024900000F02EBB9EEA445F08D011EA5E0FBDE853
:1024A000104004BF01F0004100207047BDE810401B
:1024B00070B500F0CFFA00BF64FBBE3E0000E0FF45
:1024C000491058BFC1F140415B1058BFC3F14043B0
:1024D0008B42EFF3008070472DE9C04130B4DFF844
:1024E000A0C23CEA111418BF3CEA131400F0EC80BF
:1024F00081EA03051CEA111444EAD57418BF1CEAEA
:10250000131500F0C780A4EB05044FF0004545EA21
:10251000C12145EAC32341EA505143EA525304F131
:102520007F74994204F500344FEAC0204FEAC2227A
:1025300008BF904200F09C804FEA13650FF24016EE
:10254000765D4FEA134506FB05F7C7F1807706FB7A
:1025500007F74FEAD737A7FB03687642C8F58038FC
:10256000A7FB06CE38BFA8F1010807FB08E64FF02D
:10257000000EA6FB028CE6FB03CEDCF1000CCEF1D4
:10258000004E38BFAEF1010EA6FB0C584FF000070D
:102590004FF00005E6FB0E87A1FB08C6A0FB07CEA7
:1025A00016EB0E0645F10005E1FB076515F1E04E5F
:1025B0007EBFA4F580345FEA46066D4116F18007C0
:1025C00045F100054FEA17274FEA066647EA056717
:1025D000A6F1DE46B6F1805F4FEA15251FD93846D1
:1025E00024F0010C05EBC471BCF1FE6F01EB0C1182
:1025F00002D8F0BCBDE8008124425CBF01F5801E1A
:102600009EEAC47F02D4F0BCBDE80081244238D4E5
:10261000F0BCA1F1C041BDE8004100F069BA4FEA49
:10262000D22242EA43524FEAD323A7FB02864FEA63
:10263000D02040EA415007FB03661EEA0E0F4FEA26
:10264000D12105FB026658BFA6EB0056B6EB00563B
:102650004FEA520E4EEAC37E18EB0E0E56EB530EA7
:10266000BDD518EB02085E417F1C55F10005B6E7A9
:102670004FF480154FF000074FF000064FF00008B0
:10268000ADE7F0BC4FF0000001F1C04101F00041A6
:10269000BDE8008111EA0C1F0CEA131500D00CE014
:1026A00013EA0C1F00F025804FF00000F0BC81EA17
:1026B000030101F00041BDE80081F0BCBDE800412C
:1026C00081EA030100F014BAF0BCBDE8004170B526
:1026D00000F0C0F9097EFC3E00F007B881EA030172
:1026E0004FF0000001F00041704781EA030100F063
:1026F000FFB9F0BCBDE800414FF000002149704730
:10270000FFFDFBF9F7F5F4F2F0EEEDEBE9E8E6E4B6
:10271000E3E1E0DEDDDBDAD8D7D5D4D3D1D0CFCD3D
:10272000CCCBCAC8C7C6C5C4C2C1C0BFBEBDBCBB76
:10273000BAB9B8B7B6B5B4B3B2B1B0AFAEADACAB71
:10274000AAA9A8A8A7A6A5A4A3A3A2A1A09F9F9E4B
:102750009D9C9C9B9A9999989797969595949393FD
:10276000929191908F8F8E8E8D8C8C8B8B8A898994
:102770008888878786858584848383828281818017
:102780000000FF070000F87F4FEA1153A3F58063B4
:10279000D3F11E03A8BFD3F1200C08DB4FF0004299
:1027A00042EAC12252EA505232FA03F0704709421B
:1027B0000BD4102BC4BF0020704703F5787CBCF10C
:1027C000FF3F05D04FF0FF3070474FF000007047DB
:1027D00070B500F03FF900BF499224800020704797
:1027E000F0E700007FEAE17202D1101A62EB01010A
:1027F000B1FA81F30B3B24D3994012D1B0FA80F3A4
:1028000010FA03F108BF7047C3F11D0303F54063DD
:1028100003EBC2234FEAD1224FEA415002EB0351AE
:102820007047C3F1200C20FA0CFC9840C3F132032E
:1028300003F5406303EBC22341EA0C0101EB0351B2
:10284000704710B5C3F1320CC3F10004C4F1200E7F
:102850000CF5406C0CEBC22201FA0EFC21FA04F1DB
:1028600000FA0EF3E040BDE8104040EA0C0001EB36
:10287000025138BF7047401C41F100015B0008BFA6
:1028800020F001007047000051EA030C17D41CF53A
:10289000801F58BFBCF5801F00F10680994218BF09
:1028A000704708BF9042704707D711F5801F58BF87
:1028B00013F5801F19D499427047894270471CF55F
:1028C000801F08D5BCF5801FF7D58B4218BF704715
:1028D00008BF824270474FF4001C1CEB410F38BF09
:1028E0001CEB430F01D28B42704770B500F0B2F879
:1028F000922449004FF000514FF08053FFF7E0BDA4
:10290000DFF848C170B51CEA111E1EBF1CEA131582
:102910009EEA0C0F95EA0C0F00F06F8081EA030429
:1029200023EA4C134EEAD47E21EA4C1141F4801183
:1029300043F48013AE44A1FB024CA0FB0365AEF14F
:102940007F7E361955EB0C05A1FB034C4CF10003BF
:10295000A0FB021C16EB0C06654153F10003094273
:1029600018BF46F0010613F4007F0BD14FEA033184
:102970004FEA0530340341EA155140EA16506FF032
:1029800003020AE04FEAC3214FEAC520F40241EAFC
:10299000555140EA56506FF0020202EB2E4201EB15
:1029A000025585EACE710AD05FEA440C18BF24F0C4
:1029B000004450F1000041F1000120EAD47040F2DF
:1029C000FE7C624500D270BDA84214BF4FF0804427
:1029D0004FF04044002E08BF0024BEF1806FA8BF16
:1029E000A1F1C041BDE8704080F282804FF000004C
:1029F00001F1C04101F0004170479EEA0C0F0CEA62
:102A0000131518BF95EA0C0F06D04FF0000081EAAD
:102A1000030E0EF0004170BD00F01CF88900013E6D
:102A200000F007B800F009B84FEA430C5FEA5C5CBD
:102A300008D081EA030100F05BB84FEA410C5FEA7D
:102A40005C5CF6D14FF00000014970470000FF07C1
:102A50000000F87F0EF1020E2EF0030E5EF8046BFC
:102A6000364205D4012A43EB030515F5001F12D8A1
:102A7000012841EB010C1CF5001F0CD80ED14FEAC8
:102A8000D17C15F5001F0CEB4C0C0CF1020C08BFAF
:102A90004CEBD37C04E04FF0080C01E04FEAD37C10
:102AA0000CEB4C0526FA05F606F00706B6F1040C09
:102AB00006D20EEB860CBDE870404CF0010C60476E
:102AC000DFE80CF0090B02024FF000414FF000006C
:102AD000A1F5002170BD19461046012851EB0104F3
:102AE00018BFD4F5001484BF002001F0004170BD70
:102AF0000808A0F500114FEA3101704753EA010CB4
:102B000017D41CF5801F58BFBCF5801F00F106804C
:102B10008B4218BF704708BF8242704707D713F532
:102B2000801F58BF11F5801F19D48B4270479B42FC
:102B300070471CF5801F08D5BCF5801FF7D599425A
:102B400018BF704708BF904270474FF4001C1CEB41
:102B5000430F38BF1CEB410F01D2994270470FB4AD
:102B60000CBC03BCFFF7C1BE10B591EA030F48BF10
:102B700083F000433FF504AC841A71EB030C07D2D9
:102B800012198CF0004C43EB0C03001B61EB0C01A1
:102B9000DFF8A4E14FEA1154A4EB135C1EEA430FE3
:102BA00018BF9EEA445F00F0B08023EA6E035242F1
:102BB00021EA0451C3EB6E0338BF5B1EDCF1200E2B
:102BC00025D322FA0CFE10EB0E0043FA0CFE41EB6B
:102BD0000E01CCF1200E03FA0EFE10EB0E0051F1A7
:102BE0000001CCF1200E29D412FA0EF201EB0451AF
:102BF000BDE8104058BF7047401C1CBFB2F1004FE9
:102C0000704700280CBF491C20F00100704712EBF0
:102C1000020E43EB030218BF4FF0010E4EEA4202D0
:102C2000ACF1200CDCF11E0E54D943FA0CFE10EB73
:102C30000E0051F1FF31CCF11E0ED5D50EF1010E73
:102C400012FA0EFE404141EB010101EB445C5FEAE8
:102C50005C5C10D910EBDE7001EB045138BFBEF1A3
:102C6000004FBDE8104018BF704700280CBF491C3A
:102C700020F00100704730D24FEAD42C11F500113A
:102C800024F400641BD0B1FA81F20B3AA41AA41EFA
:102C9000D2F12003914030FA03F31943904001EB45
:102CA000CC71002C01EB0451BDE81040A8BF704767
:102CB00001F1C0414FF0000001F000417047B0FA4F
:102CC00080F310FA03F100D110BDE41A173C480557
:102CD000C90AE4E701EB045110BD491001EB0451AE
:102CE000BDE810404FEA300002E04FF000017047AD
:102CF0004A0008BF0042F8D0B2F5001F28BF704755
:102D000001F000414FF0000070479EEA445F07D099
:102D100011EA5E0FBDE8104004BF0021002070479B
:102D2000BDE8104070B5FFF795FE00BF40DFF63EEE
:102D300083F00041104670470000E0FF4FF0407004
:102D4000E1EE100A704700000000000000000102E0
:102D50000304060708090000000001020304000044
:102D6000802D00080000002048000000C401000879
:102D7000C82D000848000020E0400000E0010008E5
:102D80000000000000000000000000000000000043
:102D90000000000000000000000000000000000033
:102DA00000000000000000000000000000408F4014
:102DB00000000000000000000024F40000000000FB
:082DC0001000000001000000FA
:040000050800018965
:00000001FF
